:020000040803EF
:10500000F0F40020DD510308E55A0308E75A0308CD
:10501000E95A0308EB5A0308ED5A030800000000A0
:1050200000000000000000000000000045510308DF
:10503000EF5A03080000000089510308F15A0308E1
:10504000F7510308F7510308F7510308F751030814
:10505000F7510308F7510308F75103085B70030881
:10506000F75103087F6F0308F7510308F75103084E
:10507000F7510308F7510308F7510308F7510308E4
:10508000F7510308F7510308F7510308F7510308D4
:10509000F7510308F7510308F7510308F7510308C4
:1050A000F7510308F7510308F7510308F7510308B4
:1050B000F7510308F7510308F7510308F7510308A4
:1050C000F7510308F7510308F7510308F751030894
:1050D000F7510308DFA5030883A60308F3A6030816
:1050E000F7510308F7510308F7510308F751030874
:1050F000F7510308F7510308F7510308F751030864
:10510000F7510308C5BE0308F7510308F751030818
:10511000F7510308F7510308F7510308F751030843
:10512000F7510308F7510308F7510308F751030833
:10513000DFF80CD011F0E4FE00480047ED590308F9
:10514000F0F40020224B19680868B0E8F00F80F3F3
:105150000988BFF36F8F4FF0000080F311884EF085
:105160000D0E70470000000006480068006880F3DC
:10517000088862B661B6BFF34F8FBFF36F8F00DF51
:1051800000BF00BF08ED00E0EFF30980BFF36F8FB1
:105190000F4B1A6820E9F00F106008B54FF050006F
:1051A00080F31188BFF34F8FBFF36F8F0BF0DFFDDC
:1051B0004FF0000080F31188BDE8084019680868C6
:1051C000B0E8F00F80F30988BFF36F8F704700BF1E
:1051D00044120020EFF30580704700000648804726
:1051E00006480047FEE7FEE7FEE7FEE7FEE7FEE7CC
:1051F000FEE7FEE7FEE7FEE7791E040831510308EB
:105200002DE9F04104462121204611F096FA04F1DF
:1052100021001121054611F090FA04F132002121FC
:10522000064611F08AFA04F153004121074611F0B5
:1052300084FAE8A1204611F0ACFAE9A1284611F061
:10524000A8FAE9A1304611F0A4FAEFA1384611F00E
:10525000A0FAF2A1204611F08EFA78B1F3A1284607
:1052600011F089FA50B1F4A1304611F084FA28B156
:10527000F5A1384611F07FFA002806D1BDE8F041CB
:10528000F74AF848114605F08FB9BDE8F08110B52E
:105290000A460146032005F01DF9002010BD0A460C
:1052A0000146032005F0DDB88CB000260A96EE48D2
:1052B00000680CF0D4F8ED4CE060E94A03460F3288
:1052C0001146EBA005F070F9F24DF34C61274FF059
:1052D00075084FF074094FF0300A4FF0200BEF487B
:1052E000007802281FD004282CD02F7085F8018068
:1052F00085F8029085F803A085F804B03320687122
:105300007320A871EE71E6480078022829D0D74AA8
:105310001832D6480088B0F5004F25D32D218DF8DE
:10532000281080B223E0532028704920687047205D
:10533000A8704E20E870412028714C206871AE7131
:10534000EE71E0E72F7085F8018085F8029085F80E
:1053500003A085F804B0322068717320A871EE7143
:10536000D1E7C24A1B32D4E72B218DF82810B4F8BC
:1053700006C061892389B4F804E0CDE905ECCDE9E4
:105380000731C84B6188B3F800C0C74B1B78CDE923
:10539000023CCDE9000504910AABC449C44811F0B0
:1053A0004DFEC349A1F6782007F0FDF8C04811F082
:1053B000DBF9401CBE4982B20BABA1F6782007F0A6
:1053C000A8F8BB4811F0D0F9401CB94982B20BAB28
:1053D000A1F6782007F08CFD4FF47A7009F0C5FE35
:1053E0007DE7B44800680CF03AF8A04908619C4A8F
:1053F00003461C321146B0A005F0D6F84FF4806485
:105400002146B748FFF74BFF002805DDB44982B2BB
:10541000A1F2E45006F0D2FE012009F0A6FEEFE76B
:1054200010B505F0B7F84FF47A31032004F0F6FE1A
:105430004FF41651022004F0F1FE01F063FD01F07B
:10544000C5FD9B489438FFF7DBFE99499439A1F6D6
:10545000E41006F077FEAFF2C9118E48343006F042
:10546000AFFE8C48343007F03DF88A489D4934300F
:1054700007F0D4F89C4802789C480168854834308D
:1054800007F0C7F883489A49343007F0CBF88148D1
:105490009849343007F0CAF87E48343007F045F9AF
:1054A0007C489549343007F053F97A4893493430B1
:1054B00007F017FC77489249343007F0E3FC754851
:1054C0009049343007F004FD68480121801C0170C8
:1054D0000222427003228270C170BDE8104006F0C3
:1054E0005FBE5F4A0B462F32114687A005F05CB8BD
:1054F000F0B50025438802794479867931444FF428
:10550000C8774FF0640C012A1CD0032A1AD0052A50
:1055100018D0072A16D0082A14D00A2A12D00C2A2A
:1055200010D0042A24D0062A22D0092A20D00B2AFF
:105530001ED01F2593FBF7F607FB163606B39E0712
:1055400019D01FE01F26032A0ED193FBF7F507FBA6
:10555000153535B19D0706D193FBFCF50CFB1535D0
:105560000DB11D2500E01C25082A0CD11F250AE0DD
:105570001E261F2507E093FBFCF60CFB16360EB12A
:105580001D2600E01C26182909DB1839641CB442CA
:1055900005DDA41B521C0C2A01DD0C3A5B1C002902
:1055A00009DA1831641E012C05DA2C46521E012A34
:1055B00001DA0C225B1E374D0A356B802A716C7143
:1055C000A971C179E971017A2972D0F80B00C5F887
:1055D0000B00F0BD53484152452D3130315300008E
:1055E00036353138370000006633373932336135AC
:1055F0006232663934343737646566643831373837
:105600003365663130303500313835353430313638
:10561000373636403132362E636F6D00796F7572D2
:105620005F6170705F6E616D65000000796F75720B
:105630005F6170705F696400796F75725F6170702F
:105640005F6B657900000000796F75725F64657645
:10565000656C6F7065725F6163636F756E74000077
:105660008A790408FC460708580000200000002042
:105670005B25735D5B44656275675D5B25735D2DBE
:1056800066616E5F5441534B202025640D0A0D0A5C
:105690000D0A0000DC120020EA250020AA010020EB
:1056A0007501002088010020B5010020504707083F
:1056B000881D0020540000205B25735D5B446562FB
:1056C00075675D5B25735D2D70726F636573735FC6
:1056D0005441534B202025640D0A0D0A0D0A000089
:1056E000F4180020055B0308647D04089400002082
:1056F000295B0308895B03089C7D0408CC7D0408B2
:10570000D87F0408AC8004085B25735D5B44656248
:1057100075675D5B25735D2DE4BBBBE58AA1EFBCBE
:105720009A257320E58F91E78EB0E6A088E6BAA2AD
:10573000E587BA5C720A0D0A0D0A000096B04FF0B8
:1057400000094FF0010A00201490002637468848CF
:1057500000680BF084FE87494861874A034611467A
:1057600086A004F021FFDFF83882DFF838B28E48D7
:105770000068012825D1BAF1010F22D109F0A5FC5A
:105780004FF47A714843B0FBF1F17A488160854863
:105790002A3001F0A3FA0022D8F86400D8F8681083
:1057A000134611F035FA06D0D8F86460D8F868705E
:1057B0000020149001E0012014904FF4FA7009F0D9
:1057C000D4FC022009F0D1FC012401F03BFC0028AC
:1057D000CDD009F07AFC4FF47A714843B0FBF1F177
:1057E000644881607149012008701498012802D032
:1057F0004FF0000AAFE04FF0010AACE0022009F0E0
:10580000B4FC5C4881686A480068814227D2401A2B
:10581000B0F5FA6F22D263482A3001F05FFA08210E
:105820006448FFF765FE644D2878A0B90020634AFC
:1058300000211154401CC0B21428FAD39BF8050073
:1058400000909BF80430BBF802205DA15B4811F08A
:10585000F5FB012028704FF0010900E00024B9F1A8
:10586000010F78D14FF0000959480078022857D02D
:105870000020584A00211154401CC0B2C828FAD355
:1058800054481390544800781590E8B3D8F8644011
:10589000D8F8685032463B462046294611F062F857
:1058A000DBF80B209BF808309BF807C09BF806E05C
:1058B000CDE90EECCDE910329BF805209BF80430C1
:1058C000BBF802C0DDF854E0CDE90C32CDE90AECBA
:1058D000CDE90801B8F94A00B8F94C10B8F94820E8
:1058E000CDE90420CDE902450691D8F86010D8F83A
:1058F0005C00CDE90001D8F85420D8F85830374979
:10590000139811F09BFB00E018E031480178022960
:1059100011D0022101703248139910F03AFF17E0BC
:105920000020304A00211154401CC0B2C828FAD3CC
:105930002C481390A6E701210170ECE72849139841
:1059400010F027FF22480178022908D002210170B7
:1059500005F044F80024002C3FF409AF4EE7012184
:105960000170F5E720480168491C0160704700009C
:105970005C00002000000020D77904085B25735DDF
:105980005B44656275675D5B25735D2D7070735F49
:105990005441534B202025640D0A0D0A0D0A0000C6
:1059A000CC240020E61200204C01002048010020F9
:1059B0005401002094240020A40C0020B80C0020E6
:1059C0002534642E253032642E25303264000000E8
:1059D000A60C002090540020B5010020AC47070819
:1059E000881F0020C85300207801002001F074FABD
:1059F00001F048FBFFF714FD0021364809F071FB68
:105A00003549086036493548086009F050FBFEE723
:105A100010B50CF06AF909F079FF2F4C60632D483E
:105A20000021103809F085FDA0632A4800210838BC
:105A300009F07FFDE06327480021143009F051FB95
:105A4000606024480021283009F04BFBA060214809
:105A500000213C3009F045FBE0601E480021503039
:105A600009F03FFB20611B480021643009F039FB3D
:105A7000606118480021783009F033FBA0611548B7
:105A800000218C3009F02DFBE06112480021A0308C
:105A900009F027FB20620F480021B43009F021FBF8
:105AA00060620C480021F03009F01BFB20630948BC
:105AB0000021C83009F015FBA06206480021DC3047
:105AC00009F00FFBE062206809F024FBBDE81040FC
:105AD0000CF027B9F07904082C00002000500308CE
:105AE00008ED00E07047FEE7FEE7FEE7FEE77047DF
:105AF00010B50BF0BDFC012803D0BDE810400CF040
:105B000023B910BD10B50C46014622469E4810F040
:105B1000FBFD9D49002008559C4A0B46BDE81040FE
:105B200011469BA004F040BDA4480C292AD2DFE80E
:105B300001F0060A290E121A292922261E16D0F86B
:105B4000010010601EE0D0F8110010601AE0D0F8DB
:105B50000500106016E0D0F80900106012E0D0F8DF
:105B6000210010600EE0D0F80D0010600AE0D0F8BF
:105B70001D00106006E0D0F81500106002E0D0F8BB
:105B8000190010600020704770B5154600248B4E38
:105B9000B06A04EB840202EBC40200EB820252788A
:105BA0008A4203D0641CE4B20C2CF2D30C2912D22A
:105BB000DFE801F03F4D065B677B192CA7BD9171B3
:105BC0002868012801D038B1C8E0704A7CA01E3294
:105BD000114604F0E9FCBFE06C4A83A01E32114676
:105BE00004F0E2FCB8E02868012801D038B1B5E043
:105BF000664A87A01E32114604F0D6FCACE0634A28
:105C00008DA01E32114604F0CFFCA5E028680128C3
:105C100001D038B1A2E05D4A91A01E32114604F0D5
:105C2000C3FC99E0594A98A01E32114604F0BCFC0E
:105C300092E0564A9EA01E32114604F0B5FC286838
:105C4000012801D00028BFD1C6F8010084E04F4AE6
:105C50009FA01E32114604F0A7FC2868012801D03D
:105C600000287BD1C6F8110076E0484AA0A01E3279
:105C7000114604F099FC286865286FD2C6F8050023
:105C80006AE0424AA2A01E32114604F08DFC286848
:105C9000C6F8090060E03D4AA5A01E32114604F096
:105CA00083FC2868C6F8210056E0384AA8A01E32B6
:105CB000114604F079FC04EB8401B26A01EBC401E3
:105CC00002EB81012868097A884247DA002845DB1F
:105CD000C6F80D0040E02D4AA5A01E32114604F082
:105CE00063FC04EB8401B26A01EBC40102EB8101A5
:105CF0002868097A884231DA00282FDBC6F81D00AF
:105D00002AE0224AA2A01E32114604F04DFC04EB08
:105D10008401B26A01EBC40102EB81012868097AAF
:105D200088421BDA002819DBC6F8150014E0174A70
:105D30009FA01E32114604F037FC04EB8401B26AC6
:105D400001EBC40102EB81012868097A884205DA77
:105D5000002803DBC6F81900002070BD042070BDC8
:105D600070B50D461446154B1B780370134920225D
:105D70002C31284610F0ECFC104920224C312046F2
:105D800010F0E6FC002070BD50200020657D040866
:105D90005B25735D5B44656275675D5B25735D2D97
:105DA000526563656976652066726F6D204170701B
:105DB0003A2025730D0A0D0A000000006C00002037
:105DC0005B25735D5B44656275675D5B25735D2D67
:105DD000427574746F6E3120507265737320446F16
:105DE000776E0D0A0D0A00005B25735D5B446562EA
:105DF00075675D5B25735D2D427574746F6E312020
:105E000052656C656173652055700D0A0D0A0000BE
:105E10005B25735D5B44656275675D5B25735D2D16
:105E2000427574746F6E3220507265737320446FC4
:105E3000776E0D0A0D0A00005B25735D5B44656299
:105E400075675D5B25735D2D427574746F6E3220CE
:105E500052656C656173652055700D0A0D0A00006E
:105E60005B25735D5B44656275675D5B25735D2DC6
:105E7000427574746F6E3320507265737320446F73
:105E8000776E0D0A0D0A00005B25735D5B44656249
:105E900075675D5B25735D2D427574746F6E33207D
:105EA00052656C656173652055700D0A0D0A00001E
:105EB0005B25735D5B44656275675D5B25735D2D76
:105EC00053776974636831204F70740D0A0D0A00AE
:105ED0005B25735D5B44656275675D5B25735D2D56
:105EE00053776974636832204F70740D0A0D0A008D
:105EF0005B25735D5B44656275675D5B25735D2D36
:105F00005363616C6531204F70740D0A0D0A0000F7
:105F10005B25735D5B44656275675D5B25735D2D15
:105F2000496E70757431204F70740D0A0D0A0000AF
:105F30005B25735D5B44656275675D5B25735D2DF5
:105F4000496E70757432204F70740D0A0D0A00008E
:105F50005B25735D5B44656275675D5B25735D2DD5
:105F60004C69737431204F70740D0A0D0A000000E3
:105F70005B25735D5B44656275675D5B25735D2DB5
:105F80004C69737432204F70740D0A0D0A000000C2
:105F90005B25735D5B44656275675D5B25735D2D95
:105FA0004C69737433204F70740D0A0D0A000000A1
:105FB0005B25735D5B44656275675D5B25735D2D75
:105FC0004C69737434204F70740D0A0D0A00000080
:105FD0007047704700200870012048707047704774
:105FE00070477047704717490069086170477047EC
:105FF0007FB5044609F069F84FF47A714843B0FB65
:10600000F1F60020039000F0B7FF0546002D16D0F2
:1060100003AA2946304600F041FE00280FD19DF822
:106020000C0001280BD1206861682289ADF8082096
:10603000A27A8DF80A202B46029A00F040FE7FBD1E
:10604000704770475024002070B504460D46EE4A54
:10605000EEA0114604F0A8FA2078F74A012803D1EF
:10606000917909B9117911B110B9117A01B910708A
:106070000020287070BD00200870EF48007848703C
:10608000704770B504460E46DF4AECA01532114643
:1060900004F08AFA2078E84C0025012801D1217A01
:1060A00009B1E0B11FE009F010F84FF47A714843EC
:1060B000B0FBF1F0606260780122E849062804D064
:1060C000012806D0042807D00DE0627122710A7001
:1060D00009E062710A7006E0A2710A7003E025719E
:1060E0006571A571E571357070BD2DE9F0470D46FC
:1060F000D14EDA4F002430794FF47A794FF4FA78A0
:10610000012806D07079012836D0B079012841D015
:1061100053E008F0DAFF4FF47A714843B0FBF9F02E
:10612000716A4FF47A72411AB08A5043B1FBF0F2AF
:1061300000FB1210404503D801207071387001E057
:1061400074713C70F078FF2837D008F0BEFF4FF430
:106150007A714843B0FBF9F0716AB28A411AF0785B
:10616000401E504300EB4002C2EBC01008EBC000E1
:10617000814222D9347120E008F0A7FF4FF47A71F0
:106180004843B0FBF9F1706A081A404515D974719B
:106190003C7012E008F099FF4FF47A714843B0FB6D
:1061A000F9F0716A411AB07800EB4002C2EBC010FE
:1061B000B1EB800F01D9B4713C702C7031796878E3
:1061C00061F34100717961F30000B17961F38200FC
:1061D000F17961F3C3006870BDE8F08770B50446DB
:1061E0000D46894A9EA02832114604F0DDF90020B0
:1061F000287091482178417061788170A178C170D0
:10620000B4F80310818270BD002008708A4842787B
:106210004A7082788A70C278CA70808A8880704793
:1062200070B504460E46784A97A04232114604F0F3
:10623000BBF92078804C0025012803D1207908B9CA
:10624000A07910B12572357070BD0120207208F060
:106250003CFF4FF47A714843B0FBF1F0A062F2E7E3
:1062600070B50C46744D287A60700026012802D063
:106270006680267070BD08F028FF4FF47A7148439D
:10628000B0FBF1F0AA6A801AB0FBF1F06080F0E791
:1062900070B50C46684D6078697A61F3000040F093
:1062A000020020F0040020F008006070A97A0026A7
:1062B000012918D020F010006070607820F02000D4
:1062C00020F0400020F080006070E86AC4F803000D
:1062D000286BC4F80700A86BC4F80F00686BC4F8FB
:1062E0000B00267070BD08F0F0FE4FF47A71484341
:1062F000B0FBF1F0E96B401AB0F5FA7F04D2607898
:1063000040F010006070D8E7AE72607820F01000A6
:106310006070D2E710B50C463B4A64A05632114675
:1063200004F042F908F0D1FE4FF47A714843B0FB13
:10633000F1F24148C263012282720020207010BD38
:1063400070B505460C46304A61A06A32114604F029
:106350002BF9394A2878D0720020207070BD364859
:10636000C07A487000200870704770B504460D462A
:10637000254A61A08132114604F016F920782E4A90
:1063800000F00F031373000950730020287070BDD4
:10639000294A4878137B63F30300527B62F30710AA
:1063A000487000200870704770B505460C46164AC4
:1063B0005BA09832114604F0F7F81F4A28789073D2
:1063C0000020207070BD1C48807B48700020087041
:1063D000704770B504460D460B4A5AA0AC321146C0
:1063E00004F0E2F814482268026462684264002003
:1063F000287070BD1048026CC1F80120406CC1F8D3
:1064000005000020087070475C7E04085B25735D02
:106410005B44656275675D5B25735D2D5365742014
:1064200043616D65726120576F726B204D6F6465BB
:106430000D0A0D0A00000000D80000205B25735DE6
:106440005B44656275675D5B25735D2D53686F6F97
:106450007450686F746F0D0A0D0A00008A010020E5
:106460005B25735D5B44656275675D5B25735D2DC0
:106470005365742053686F6F7450686F746F204D4C
:106480006F64650D0A0D0A005B25735D5B446562F0
:1064900075675D5B25735D2D536574205265636F71
:1064A0007264696E670D0A0D0A0000005B25735D5A
:1064B0005B44656275675D5B25735D2D466F726D2C
:1064C000617420536420636172640D0A0D0A000038
:1064D0005B25735D5B44656275675D5B25735D2D50
:1064E000536574204D65746572696E67204D6F64E5
:1064F000650D0A0D0A0000005B25735D5B44656253
:1065000075675D5B25735D2D5365742053706F74E3
:10651000204D65746572696E670D0A0D0A000000F2
:106520005B25735D5B44656275675D5B25735D2DFF
:1065300053657420466F637573204D6F64650D0A53
:106540000D0A00005B25735D5B44656275675D5BEA
:1065500025735D2D53657420466F637573205A6FE4
:106560006E650D0A0D0A000070B504460D46664AB8
:1065700066A0114604F018F82078704AC0F3400372
:10658000D37300F0010010740020287070BD6B4AB6
:106590004878D37B63F34100127C62F300004870BB
:1065A000002008702FE76548C08AA1F8010000208C
:1065B000087028E770B505460C46534A60A02132A2
:1065C000114603F0F1FF5D4A2888108300202070F7
:1065D00070BD5A48008BA1F801000020087012E736
:1065E0006248C1F80100002008700CE770B505464C
:1065F0000C46454A5EA03A32114603F0D5FF4F4A99
:10660000286890640020207070BD4C48806CC1F8F0
:10661000010000200870F6E64848428B21F8012F5F
:10662000828B4A80C08B8880002001F8010CEAE64A
:1066300070B505460C46344A58A05632114603F050
:10664000B3FF3E4A288810840020207070BD10B52A
:106650003A4B587C002813D01A8C18469C7CC07C7E
:10666000012C13D0C0F1470000EB800010445A8B7E
:10667000904200DD10469A8B904200DA1046188452
:10668000188CA1F801000020087010BD473800EBFD
:1066900080001044EBE770B50D46284C208CA18B90
:1066A000401A10F046FA0022484B10F0D3F90022AD
:1066B000474B10F0B6F810F0C3FAE064C5F80100DB
:1066C0000020287070BD70B504460D460E4A41A0EA
:1066D0007732114603F068FF184A01205074607841
:1066E00090742078D0740020287070BD10B50C46CE
:1066F000054A43A09932114603F056FF0F4A002085
:106700005074207010BD00001C7F04085B25735D71
:106710005B44656275675D5B25735D2D5365742011
:10672000466F63757320417373697374616E74206F
:1067300053657474696E670D0A0D0A00D800002055
:106740005B25735D5B44656275675D5B25735D2DDD
:1067500053657420466F6375732052696E672056C7
:10676000616C75650D0A0D0A0000000000004041D3
:106770005B25735D5B44656275675D5B25735D2DAD
:10678000536574204469676974616C205A6F6F6D3A
:1067900020466163746F720D0A0D0A005B25735DFC
:1067A0005B44656275675D5B25735D2D5365744F52
:1067B00070746963616C5A6F6F6D466F63616C4C86
:1067C000656E6774680D0A0D0A0000000000244021
:1067D0000000F03F5B25735D5B44656275675D5B40
:1067E00025735D2D537461727420436F6E74696EEE
:1067F000756F7573205A6F6F6D0D0A0D0A000000DA
:106800005B25735D5B44656275675D5B25735D2D1C
:1068100053746F7020436F6E74696E756F7573205B
:106820005A6F6F6D0D0A0D0A000000002DE9F04748
:106830000C46824D28786070A07820F0010884F81A
:106840000280B5F90A0010F074F9DFF8F491DFF86E
:10685000F4A14A46534610F08BF810F0A1F9A9882C
:10686000084407B2AF80B5F90C0010F062F94A464F
:10687000534610F07DF810F093F9E988084406B209
:10688000EE80B5F90E0010F054F94A46534610F068
:106890006FF810F085F92989084400B22881002199
:1068A0006981A981E9814FF49672974200DD17460C
:1068B000AF80654B9F4200DA1F46AF804FF4E17C0A
:1068C000664500DD6646EE80DFF880914E4500DAD1
:1068D0004E46EE804FF46179484500DD48462881F8
:1068E000984200DA184628814FF0010A974201D0F9
:1068F0009F4201D185F803A0664502D016F5E17FDD
:1069000001D185F802A0484501D0984201D185F80F
:1069100001A0EA7862F3C308AA7862F382086A7871
:10692000641C62F3410884F801806780A680E080DF
:1069300004F8011CBDE8F08770B505460C46444AD2
:1069400044A0114603F030FE3C4A28781070002025
:10695000207070BD10B50C463D4A47A01832114654
:1069600003F022FE354A00209080D08010812070F4
:1069700010BD70B504460D46354A47A02D3211466C
:1069800003F012FE2D482188418161888181A18810
:10699000C1810020287070BD2DE9F04104460F46EA
:1069A0002B4A46A04432114603F0FEFD4E4E2068AD
:1069B00031460FF004FF10F0DAF8204DA88060682F
:1069C00031460FF0FCFE10F0D2F8E880A0683146A6
:1069D0000FF0F5FE10F0CBF8288100203870BDE8EC
:1069E000F08170B504460D46194A40A05B3211464D
:1069F00003F0DAFD11482188018261884182A18873
:106A000081820020287070BD10B50C46104A43A04A
:106A10007732114603F0C8FD0020207010BD10B57C
:106A20000C460B4A49A09232114603F0BDFD0020EE
:106A3000207064216170A07010BD0000280100204A
:106A40009A9999999999B93F7CFCFFFF3EFEFFFF07
:106A5000F87F04085B25735D5B44656275675D5B69
:106A600025735D2D5365742047696D62616C204DFF
:106A70006F64650D0A0D0A005B25735D5B446562FA
:106A800075675D5B25735D2D52657475726E204868
:106A90006561640D0A0D0A005B25735D5B446562E8
:106AA00075675D5B25735D2D436F6E74726F6C202F
:106AB00053706565640D0A0D0A0000005B25735D67
:106AC0005B44656275675D5B25735D2D436F6E7416
:106AD000726F6C2047696D62616C20416E676C65F6
:106AE0000D0A0D0A00000000000020415B25735DC7
:106AF0005B44656275675D5B25735D2D436F6E74E6
:106B0000726F6C2047696D62616C204A6F696E74A8
:106B100020416E676C650D0A0D0A00005B25735DF0
:106B20005B44656275675D5B25735D2D47696D62CA
:106B3000616C2053746172742043616C696272618C
:106B400074696F6E0D0A0D0A000000005B25735D0D
:106B50005B44656275675D5B25735D2D47696D629A
:106B6000616C204765742043616C6962726174696D
:106B70006F6E2050726F67726573730D0A0D0A0095
:106B800010B5C0B00C46FF2C0DD801462246684611
:106B90000FF0BAFD00200DF80400044A6B461146C0
:106BA00003A003F001FD40B010BD0000B080040858
:106BB0005B25735D5B44656275675D5B25735D2D69
:106BC000526563656976652066726F6D204F534428
:106BD0004B3A2025730D0A0D0A0000003FB597B00F
:106BE000DDE91E542C210CA80FF0A7FD2C2101A8D3
:106BF0000FF0A3FD00200090F4B31A98281A4FF468
:106C00007A714843DDF863109D4A014491FBF2F02C
:106C100002FB1010002800DA101AC4F80700081A46
:106C200090FBF2F5BDF85C00A0F26C7011909DF83D
:106C30005E0010909DF85F000F909DF860000E9030
:106C40009DF861000D909DF862000C904FF0FF30B0
:106C500014900CA80FF004FD411C1BD02844009098
:106C600001A968460FF0B6FCB0B1069800F26C704E
:106C700020800598A07000E00AE00498E070039876
:106C80002071029860710198A07100201BB030BD86
:106C9000FF20FBE7FF20F9E7FF20F7E7002A08D0F5
:106CA000884208D9401AB0F5FA7F04D2012010704A
:106CB00003E00520704700201070002070471FB5CA
:106CC0001C460B2269466F480FF01EFD6D48C460DC
:106CD0006D490120087004B0002010BD2DE9F0417D
:106CE000DCB005460F460024002659965A965B965E
:106CF00028214FA80FF021FD4FF4907107A80FF045
:106D00001CFD6148007898B35E48C36859A8CDE976
:106D100000705C482838283007C8FFF75FFF012063
:106D20008DF83C018DF83D61BDF86401ADF83E0180
:106D30009DF866018DF840019DF867018DF84101CD
:106D40009DF868018DF842019DF869018DF84301B5
:106D50009DF86A018DF844014C48C600DDF86B11BE
:106D600081420AD9DDF86B21A2F57432903A11E024
:106D7000FFE7FF205CB0BDE8F0819DF8442122B917
:106D80009DF843315B1E8DF84331521E8DF844212E
:106D90003F4A0A44B24217D83B49091D51F82430F2
:106DA0005F1C41F8247004EB44074FA901EB470135
:106DB00031F8097F63F30C070F804B7864F34713B6
:106DC0004B70C1F80220641C012CC7DB2D48BDF8B4
:106DD0003E11283841809DF8401101719DF8411104
:106DE00041719DF8421181719DF84311C1719DF867
:106DF00044110172C0F80B2007AA4FA9284606F0DB
:106E0000C9F810B99DF81C0008B1FF20B2E70025B1
:106E10001C4EDFF8808007AF103605EBC500C0EBD5
:106E20008510C419207C113488F80000216AE069BB
:106E3000CDE90401A1696069CDE902012169E06839
:106E4000154ACDE90001114614A003F0ADFB483608
:106E5000E0682169F06031616069A1697061B161C8
:106E6000E069216AF061316220883080608870803A
:106E7000A088B080483E6D1C012DCEDB012079E753
:106E800040420F00BC2400204001002090D00300AD
:106E9000B0710B00B5010020EF8004085B25735D25
:106EA0005B44656275675D5B25735D2D4C6F6E6736
:106EB00069747564653A202566094C617469747556
:106EC00064653A202566094865696768743A202533
:106ED000660D0A0D0A00000070470000384801687E
:106EE00021F008010160364908201431086070471C
:106EF00033490820143108603148016841F0080125
:106F0000016070477FB5012109200BF050FC082477
:106F1000ADF8004028208DF8030003208DF8020012
:106F2000694628480BF03DFA032101200BF0F5FAE1
:106F3000029400258DF80C508DF80D4001248DF839
:106F40000E4002A80BF05CF909208DF804000B201C
:106F50008DF805008DF806508DF8074001A80AF05D
:106F6000F6FF7FBD18480168012901D00020704755
:106F7000002101600120704713484068704770B5D8
:106F800008200BF08EF9002818D00F4C012020604B
:106F900008F09BF84FF47A7148430D46B0FBF5F0CA
:106FA000606008F092F84FF47A714843B0FBF5F056
:106FB000A060BDE8704008200BF081B970BD0000F2
:106FC00000040140000C01404C01002030B585B0A8
:106FD000012104200BF0EBFB0225ADF80850042042
:106FE0008DF80B0003208DF80A0002A923480BF04E
:106FF000D8F900248DF8104008208DF811000121E7
:1070000000200BF08AFA039501258DF8125003A891
:107010000BF0F6F807208DF804008DF805008DF8C8
:1070200006408DF8075001A80AF091FF0094012155
:10703000684608F06DF912490860002108F080F9EF
:1070400005B030BD10B50E480021006808F078F991
:1070500008B1002010BD012010BD10B502200BF0BA
:1070600020F9002808D00648006808F09CF9BDE81F
:10707000104002200BF023B910BD000000080140B1
:10708000580100202DE9F84F01211C200BF08FFB47
:10709000374E00273760DFF8DC904FF00108C9F861
:1070A0009081C6F8108003F0A9F837624FF40060B1
:1070B000ADF8000002248DF8024010258DF8035031
:1070C00069462D480BF06DF9ADF800408DF802408F
:1070D0004FF0040A8DF803A0DFF8A0B069465846C7
:1070E0000BF05FF98020ADF800008DF802408DF8BC
:1070F00003A0694622480BF054F9E001ADF8000006
:107100008DF802408DF8035069461B480BF049F991
:10711000ADF800508DF802408DF8035069461648CE
:107120000BF03FF9ADF8005003208DF802008DF808
:107130000350694658460BF034F9E002ADF8000000
:107140008DF802408DF8035069460B480BF029F981
:107150003760C9F89081C6F8108003F04FF83762A5
:10716000012108480BF0AEF901F09CFEBDE8F88F54
:10717000900121420080214200080140000C0140A2
:10718000001001400002300008B5F84800680AF01D
:1071900066F9F7490860F74A03461146F6A003F07E
:1071A00003FAFE4C02E00A2007F0DFFF20780028F7
:1071B000F9D0642007F0D9FF0221F94E642230682B
:1071C00008F0BBF9642007F0D0FF04240022214618
:1071D000306808F0B2F94FF4967A504607F0C5FFD0
:1071E00000222146306808F0A8F9504607F0BDFF9C
:1071F000EC4FDFF8B493ED4D78784FF0000838B1DC
:10720000B87828B1F87818B1387908B17879E8BB3E
:107210000621C9F800100022286808F08EF902F053
:10722000E1FF4FF4FA7007F0A0FF02F0E7FF6420DF
:1072300007F09BFF0124DFF878B30122CDF800802E
:1072400000231146DBF8000008F02AFCC00703D039
:1072500002F0D4FF002420E002F0C4FF0421002249
:10726000306808F06AF9504607F07FFF02F0C6FF69
:10727000504607F07AFF787801280ED1B8780128B7
:107280000BD1F878012808D1387900E007E001280F
:1072900003D17879012800D10024012CCDD0012020
:1072A000C44F395C01B1D220401CC0B20528F8D9C6
:1072B000C82803D30420C9F8000001E0C9F8008001
:1072C0000022D9F80010286808F037F902F08AFF88
:1072D0004FF4FA7007F049FF02F090FF642007F0C6
:1072E00044FF00244FF0030BD9F80000E8BB042151
:1072F0000022306808F021F9504607F036FF0120DF
:10730000395C01B1D220401CC0B20528F8D9C82888
:107310001AD302216422306808F00FF9504607F0B2
:1073200024FF0421C9F800100022286808F005F99C
:1073300002F058FF4FF4FA7007F017FF02F05EFFFB
:10734000642007F012FF002499480122CDF8008044
:1073500000231146006808F0A3FBC00714D059466B
:10736000C9F800B00022286800E00DE008F0E5F858
:1073700002F038FF4FF4FA7007F0F7FE02F03EFF1C
:10738000642007F0F2FE0024D9F8000004285DD143
:10739000641CE4B2012C38D0B4FBFBF00BFB1040B2
:1073A00090B302F02BFF082C08D30221642230682E
:1073B00008F0C3F8642007F0D8FE0024042100225E
:1073C000306808F0BAF8504607F0CFFE0120395C6B
:1073D00001B1D220401CC0B20528F8D9642817D2C8
:1073E0004146C9F800800022286808F0A6F802F09B
:1073F000F9FE4FF4FA7007F0B8FE02F0FFFE6420C9
:1074000007F0B3FE002421E0FFE702F0EBFECAE73D
:1074100067480122CDF8008000231146006808F07B
:107420003FFBC00712D05946C9F800B000222868B7
:1074300008F083F802F0D6FE4FF4FA7007F095FEDC
:1074400002F0DCFE642007F090FE0024D9F8000072
:10745000052871D1641CE4B2012C4DD0B4FBFBF0C3
:107460000BFB1040F0B302F0C9FE082C08D3012139
:107470006422306808F061F8642007F076FE00248A
:1074800004210022306808F058F8504607F06DFEDD
:107490000120395C012900D0D220401CC0B205284F
:1074A000F7D964282BD240F6B834204607F05DFEA9
:1074B000204607F05AFE204607F057FE032100221F
:1074C000306808F03AF8204607F04FFE0121C9F86D
:1074D00000100022286808F030F802F083FE4FF414
:1074E000FA7000E008E007F040FE02F087FE64203A
:1074F00007F03BFE00241FE002F074FEB5E72C48C5
:107500000122CDF8008000231146006808F0C8FA77
:10751000C00711D00221C9F800100022286808F025
:107520000CF802F05FFE4FF4FA7007F01EFE02F056
:1075300065FE642007F019FED9F8000002287CD10E
:107540000224C82007F011FE64222146306807F0AB
:10755000F4FF642007F009FE0024042100223068B3
:1075600007F0EBFF504607F000FE25E03800002052
:107570005C010020048104085B25735D5B44656247
:1075800075675D5B25735D2D63616D5F5441534B82
:10759000202025640D0A0D0A0D0A0000AC01002010
:1075A0006400002096010020B00100206800002047
:1075B00060000020900100200120395C012900D1E9
:1075C000D220401CC0B20528F7D9642800D2DC24A0
:1075D000641CE4B2322CC0D3C82C13D34146C9F882
:1075E00000800022286807F0A8FF02F0FBFD4FF49E
:1075F000FA7007F0BAFD02F001FE642007F0B5FD55
:1076000000241AE002216422306807F096FF64200B
:1076100007F0ABFD0421C9F800100022286807F02C
:107620008CFF02F0DFFD4FF4FA7007F09EFD02F0D0
:10763000E5FD642007F099FD0024D9F80000032837
:1076400063D101216422306807F077FF642007F0DE
:107650008CFD002404210022306807F06EFF5046A4
:1076600007F083FD0120395C01B9D220401CC0B273
:107670000528F8D9642800D2DC24641CE4B2322C3A
:10768000E8D3C82C26D340F6B834204607F06DFD69
:10769000204607F06AFD204607F067FD032100221F
:1076A000306807F04AFF204607F05FFD0121C9F866
:1076B00000100022286807F040FF02F093FD4FF40D
:1076C000FA7007F052FD02F099FD642007F04DFDBD
:1076D00000241AE004210022306807F02EFF5046F3
:1076E00007F043FD0521C9F800100022286807F0C3
:1076F00024FF02F077FD4FF4FA7007F036FD02F038
:107700007DFD642007F031FD0024012007F02DFDF0
:10771000EAE5000008B507F0D8FC00903A48006898
:1077200009F09DFE39490860394A0346114639A0DF
:1077300002F03AFF404F414D414E0A21684608F0A1
:107740006BF8387898B1D5F81C010028F5D10520E0
:1077500007F00BFDD5F81C010028EED10F2007F033
:1077600004FDD5F81C010028E7D100242DE0D5F850
:107770001C010028E1D1052007F0F7FCD5F81C0119
:107780000028DAD10F2007F0F0FCD5F81C0170B901
:107790000121306808F0C7F809E00A2007F0E5FC8D
:1077A000D5F81C010028F8D03C2007F0DEFCD5F805
:1077B0001C010028C1D1F3E70A2007F0D6FC641CA5
:1077C000E4B2642C01D3D2240EE0D5F81C010028C9
:1077D000F2D009E00A2007F0C8FCD5F81C01002807
:1077E000F8D03C2007F0C1FCD5F81C010028F4D0EB
:1077F000C82C04D30221306808F095F89DE70121D8
:10780000306808F090F898E734000020600100200C
:107810000D8104085B25735D5B44656275675D5B84
:1078200025735D2D6B65795F5441534B2020256492
:107830000D0A0D0A0D0A0000A901002000002242D5
:107840006000002086B0002401F0BCFB0A2007F095
:107850008CFC4D48006809F002FE4C4908604C4A17
:10786000034611464BA002F09FFE534E534D00229B
:107870006846316807F08FFEDDE900120298CDE915
:10788000031205900398102806D0C82007F06DFC5D
:107890002868082809D00AE001F094FB04982860C1
:1078A0000A2007F062FC0024F2E701F0D5FD286809
:1078B00008B101281CD1A4F10B01092904D802F058
:1078C00011F8641CE4B213E00A2C0BD8012805D08F
:1078D000002001F0F0FE641CE4B209E0012001F098
:1078E000EAFEF8E701F06EFB022007F03EFC002400
:1078F00028680D2802D1012002F074FA28680E28A9
:1079000002D1022002F06EFA28680F2802D103206B
:1079100002F068FA2868102802D1042002F062FA06
:107920002868072801D101F0CFFD2868022801D17D
:1079300001F007FE2868032801D101F05FFE2868E6
:10794000042801D102F03CF82868052801D102F092
:1079500077F82868062801D102F0B1F828680928CC
:1079600001D102F0F0F828680B2802D1002002F0C3
:10797000F2F928680C2802D1012002F0ECF90A2063
:1079800007F0F3FB73E700003000002064010020E3
:10799000168104085B25735D5B44656275675D5BFA
:1079A00025735D2D4F4C45445F5441534B2020259A
:1079B000640D0A0D0A0D0A006800002084010020F1
:1079C0000026002500245B48006809F048FD5A495C
:1079D00048605A4A0346114659A002F0E5FDDFF817
:1079E00084B1DFF88491DFF884A1A04601276048C4
:1079F0000178022904D15F490968012905D00026D0
:107A00005D48007801280AD020E0761CB6B244F226
:107A100050618E42F4D380F800800026F0E755488C
:107A20000068012816D0444880F80080A0F8028041
:107A3000002452480760002551480078012805D0ED
:107A4000CAF89871C9F8B871C9F8BC810A2007F062
:107A50008CFBCCE74B48C0F8A0816D1CADB2484808
:107A60000078012815D0322D15D0642D0AD39BF84B
:107A7000000001282AD003282DD0CAF89871C9F82F
:107A8000BC7100252C48017851B3A0F80280002475
:107A9000DCE70025F6E79BF80000012808D0032862
:107AA0000DD0CAF89871C9F8B871C9F8BC81E9E776
:107AB000C9F8B871CAF89881C9F8BC81E2E7C9F879
:107AC000B871CAF89881C9F8BC81DBE7CAF8987127
:107AD000C9F8BC71D5E7CAF89871C9F8BC71D0E78C
:107AE0009BF80010022912D0A0F8028000244288DE
:107AF0004FF4FA718A42A9D94180234909780429AF
:107B00000BD006290FD0A0F8028000249EE7418800
:107B1000491C4180641CA4B2E9E7C82C96D31B48D9
:107B20000770002492E7B4F5967F8FD3174807704B
:107B300000248BE738000020680100202081040821
:107B40005B25735D5B44656275675D5B25735D2DC9
:107B50007267625F5441534B202025640D0A0D0A61
:107B60000D0A000074010020008021420000224222
:107B7000B4010020B0010020AC010020A00121428E
:107B8000A801002000002142AA0100208A01002053
:107B900010B5FB4807210160FA480022006807F091
:107BA000CCFC02F01FFB4FF4FA7007F0DEFA02F093
:107BB00025FBBDE81040642007F0D7BA2DE9F84F47
:107BC000002600F05BFFDFF8B8930C21C9F8001025
:107BD000DFF8B0B30022DBF8000007F0AEFC02F0E3
:107BE00001FB4FF4FA7007F0C0FA02F007FBC8205F
:107BF00007F0BBFA4FF47A74204607F0B6FA204635
:107C000007F0B3FA0421E04B0022186807F095FC56
:107C1000204607F0AAFA0024DFF870830094234678
:107C200001220321D8F8000007F03AFFD84DDFF811
:107C300064A3D94FC00704D02E788AF800600120D1
:107C40003870387801285CD10921C9F80010002269
:107C5000DBF8000007F071FC02F0C4FA4FF4FA7090
:107C600007F083FA02F0CAFA642007F07EFA48E0CF
:107C70000094002301220321D8F8000007F010FF30
:107C8000C10719D09AF8000038B102280AD0042898
:107C90000DD02E708AF8004030E002208AF80000F3
:107CA00028702BE004208AF80000287026E00620C7
:107CB0008AF80000287021E080071FD59AF800009C
:107CC00020B30B21C9F800100022DBF8000007F0F8
:107CD00034FC02F087FA4FF4FA7007F046FA02F02B
:107CE0008DFA642007F041FA00F0E4FEC82007F0A6
:107CF0003CFA40F6B83007F038FA3C700A2007F03A
:107D000034FA38780128B3D0BDE8F88F0D21C9F8CE
:107D100000100022DBF8000007F00FFC02F062FA0E
:107D20004FF4FA77384607F020FA02F067FA642039
:107D300007F01BFA0121944E6422306807F0FDFB26
:107D4000780007F012FA0025DFF850A20421002283
:107D5000306807F0F2FB384607F007FA0121642289
:107D6000306807F0EAFB384607F0FFF99AF801009F
:107D7000012810D19AF8020001280CD19AF80300CA
:107D8000012808D19AF80400012804D19AF80500C6
:107D9000012800D1C8256D1CEDB2142DD6D340F6B4
:107DA000B835284607F0E1F9284607F0DEF92846FD
:107DB00007F0DBF903210022306807F0BEFB2846FC
:107DC00007F0D3F90E21C9F800100022DBF80000FB
:107DD00007F0B3FB02F006FA384607F0C6F902F0E6
:107DE0000DFA642007F0C1F9002500940023012258
:107DF0000321D8F8000007F053FEC1070FD005217A
:107E00000022306807F099FB02F0ECF9642007F0DB
:107E1000ACF902F0F3F9642007F0A7F906E0800757
:107E200001D5012502E00A2007F09FF9002DDCD0E2
:107E30000F21C9F800100022DBF8000007F07DFBDD
:107E400002F0D0F9384607F090F902F0D7F9642033
:107E500007F08BF902216422306807F06EFB4FF4C3
:107E60007A7007F082F9002404210022306807F0BC
:107E700064FB384607F079F902216422306807F084
:107E80005CFB384607F071F99AF8010060B99AF87E
:107E9000020048B99AF8030030B99AF8040018B9FA
:107EA0009AF8050000B9C824641CE4B2142CDBD392
:107EB0004FF4FA6007F059F91021C9F800100022B8
:107EC000DBF8000007F039FB02F08CF9384607F0C8
:107ED0004CF902F093F9642007F047F9642007F0A9
:107EE00044F9FBE72DE9F0472548082101602548C2
:107EF0000022006807F021FB0A254FF00009012449
:107F0000274E284FDFF8A08019E002F06BF9C6F881
:107F1000BC41C6F8B841C7F89891C8F8A091642050
:107F200007F023F902F06AF9C7F89841C6F8BC4196
:107F3000C6F8B841C8F8A041642007F016F96D1ED4
:107F4000ADB2E2D202F04EF94FF4FA7007F00DF93B
:107F500002F054F9642007F008F9C7F89841C6F810
:107F6000B841C6F8BC91BDE8F08770B50F4800680D
:107F700009F075FA0E4908600E4A034611461BE0E7
:107F8000B001002068000020640000206000002094
:107F9000AA010020AB010020A901002090010020CF
:107FA00000802142000022420000214238000020CF
:107FB00070010020298104081BA002F0F5FAFFF7E8
:107FC00091FF142007F0D1F80425214C0022294606
:107FD000206807F0B2FA4FF49676304607F0C5F8FD
:107FE00000222946206807F0A8FA304607F0BDF8BD
:107FF00000222946206807F0A0FA304607F0B5F8BD
:10800000FFF7DCFDFFF7C4FD642007F0AEF811496F
:10801000012008704FF4FA7007F0A7F80E480068C6
:10802000BDE8704007F076B85B25735D5B44656220
:1080300075675D5B25735D2D72756E696E69745F22
:108040005441534B202025640D0A0D0A0D0A0000EF
:1080500064000020AC0100204000002008B500258D
:1080600044F620644FF00008AC48006809F0F7F9C6
:10807000AB4EF060AB4A03461146ABA002F094FA57
:108080004FF4FA6007F071F809F02FFE00F0CBFE14
:1080900000F0C9FE00F0C7FE09F043FE4FF47A700D
:1080A00007F063F809F021FE00F0BDFE708009F0D2
:1080B00038FEA74F02E00A2007F057F8387800286A
:1080C000F9D0642007F051F80027DFF88892DFF834
:1080D00088B2BA46D9F80000012817D0002786F8E0
:1080E00001A086F800A0641CA4B243F69820844244
:1080F00007D309F0FAFD00F096FE708009F011FE3A
:1081000000249BF80000012869D003E147B9934897
:10811000007804280AD0062808D002203070707039
:1081200001279BF8000001281ED020E001203070BC
:10813000801E00908A48012200231146006807F043
:10814000AFFCC007ECD002F04DF84FF4FA7007F026
:108150000CF802F053F8642007F007F88BF800A041
:10816000022030707070DBE77E480278B2B3641C86
:10817000A4B243F69820844207D309F0B6FD00F07C
:1081800052FE708009F0CDFD002475480122CDF823
:1081900000A000231146006807F082FCC007B4D09D
:1081A0006E48007804287ED006287CD086F801A08E
:1081B00086F800A00221C9F800106B480022006870
:1081C00007F0BBF902F00EF84FF4FA7006F0CDFF9D
:1081D00002F014F8642006F0C8FF9BE000E097E08E
:1081E0007068B060C6F804A060490888401C088028
:1081F00001205F4901F800A0401CC0B20528F9D950
:10820000CAB901F0EFFF5B4C0120207003215A48EE
:108210000022006807F091F9642006F0A6FF78209C
:1082200006F0A3FF322006F0A0FF8BF800A084F830
:1082300000A001F0E3FF002409F057FD00F0F3FD7A
:10824000708009F06EFD04214B480022006807F0A1
:1082500074F9012049490A5C012A00D0D220401C4F
:10826000C0B20528F7D9642819D96D1CEDB2032DC9
:1082700016D300250521C9F800103B4800220068EC
:1082800007F05BF901F0AEFF4FF4FA7006F06DFFF6
:1082900001F0B4FF642006F068FF01E003E0002570
:1082A0008BF800A071E7B8F1000F1CD086F801A090
:1082B00086F800A00221C9F800102B4800220068AF
:1082C00007F03BF901F08EFF4FF4FA7006F04DFF16
:1082D00001F094FF642006F048FF4FF000082848A2
:1082E00080F800A016E086F801A0032030704FF05F
:1082F000010823490120087001F074FF4FF4FA705F
:1083000006F033FF01F07AFF642006F02EFF01E053
:108310008BF800A0022006F028FFDBE648000020D2
:1083200074010020368104085B25735D5B4465623F
:1083300075675D5B25735D2D747269676765725F34
:108340005441534B202025640D0A0D0A0D0A0000EC
:10835000AC010020B00100208A010020AA01002009
:1083600060000020A8010020680000208801002093
:10837000A2010020C4010020640000209001002020
:108380006801002008B5002600270025484800683D
:1083900009F065F847490860474A0346114647A077
:1083A00002F002F94FF6FF7801226946022002F03E
:1083B000F0F8002878DD9DF80000402800D1012465
:1083C0000A2C6FD2DFE804F0050608121F27364595
:1083D000545EE9E70224E7E7A0F13101042903D85C
:1083E0003038C6B20324DFE70024DDE7A0F1310115
:1083F000012906D8312802D000270424D4E7012718
:10840000FBE70024D0E73038052802D885B20524E0
:10841000CAE70024C8E7A0F13001092908D805EB14
:10842000850108EA41010844303885B20624BBE7DB
:108430000024B9E7A0F13001092908D805EB85012E
:1084400008EA41010844303885B20724ACE700242B
:10845000AAE7A0F13001092908D805EB850108EA4F
:1084600041010844303885B208249DE700249BE789
:108470003038092804D80F4910318855092493E76A
:10848000002491E7232809D10A48001D8755154883
:1084900020F81650074901200A318855002483E747
:1084A00002E0FFE700247FE7012006F05EFE7BE7A5
:1084B000440000208C010020438104085B25735D8B
:1084C0005B44656275675D5B25735D2D7532726512
:1084D00063655F5441534B202025640D0A0D0A0D3E
:1084E0000A000000EA25002010B567490120086055
:1084F000032006F03AFE65A1022002F03DF864A1D7
:10850000022002F039F8BDE81040142006F02DBE1C
:1085100070B55D4C01252560032006F026FE5EA1A6
:10852000022002F029F8072006F01FFE0026266030
:108530001E2006F01AFE2560032006F016FE58A144
:10854000022002F019F8072006F00FFE26601E2018
:1085500006F00BFE2560032006F007FE52A1022064
:1085600002F00AF8072006F000FE26601E2006F042
:10857000FCFD2560032006F0F8FD4DA1022001F06E
:10858000FBFF072006F0F1FD26601E2006F0EDFD42
:108590002560032006F0E9FD47A1022001F0ECFF71
:1085A000072006F0E2FD26601E2006F0DEFD2560B5
:1085B00070BD10B534490120086034A1022001F0DB
:1085C000DBFFBDE810403EA1022001F0D5BF10B591
:1085D0002D4901200860032006F0C7FD2BA10220D1
:1085E00001F0CAFF38A1022001F0C6FFBDE810402B
:1085F000142006F0BABD10B52349012008600320FD
:1086000006F0B3FD21A1022001F0B6FF30A1022047
:1086100001F0B2FFBDE81040142006F0A6BD86B000
:108620002D48006808F01BFF2C4908602C4A0346BF
:1086300011462CA001F0B8FF344C4FF0FF352A460C
:108640006846216806F0A7FF9DE8070003AB07C353
:1086500003981028F3D104980628F0D2DFE800F040
:108660000304070A0D10EAE7FFF7C5FFE7E7FFF786
:10867000AEFFE4E7FFF79DFFE1E7FFF749FFDEE725
:10868000FFF732FFDBE700009081214240404000CD
:108690004058352300000000403134230000000022
:1086A0004032342300000000403334230000000037
:1086B0004034342300000000403534230000000023
:1086C00040583323000000004058322300000000CF
:1086D00040583123000000004C000020B801002069
:1086E0004F8104085B25735D5B44656275675D5B64
:1086F00025735D2D753273656E645F5441534B2055
:108700002025640D0A0D0A0D0A00000064000020F7
:108710000A2006F02AFD1E48006808F0A0FEDFF8D7
:108720007490C9F804001C4A034611461BA001F0CE
:108730003BFF234EDFF88C800124234D0027D6F821
:10874000040198B1C6F8B841C5F8B07188F8007056
:1087500098F80000012814D099F80000012813D0DF
:10876000C5F89071012006F000FDE8E7C5F8B041BA
:1087700016480460C6F8BC41C6F8B87188F80040D5
:10878000E6E7C5F89041EDE7C5F89041EAE700005B
:1087900050000020BC0100205B8104085B25735D54
:1087A0005B44656275675D5B25735D2D66616E5F19
:1087B0005441534B202025640D0A0D0A0D0A000078
:1087C00000802142A801002000002142980122429D
:1087D0000020401CC0B20A28FBD3704770B5BE48C9
:1087E0004024046080250560FFF7F2FFBA4E361D75
:1087F0003460FFF7EDFF3560BDE87040E8E770B525
:10880000B5484024001D0460B34D80202860FFF768
:10881000DFFF2C6070BD2DE9F04705460024DFF82E
:10882000B892AD4F09F1040980264FF040082806A0
:1088300002D5C7F8008001E0C9F80080FFF7C8FF43
:108840003E60FFF7C5FFC9F80060072C01D1C7F8EB
:1088500000806806050EFFF7BBFF641CE4B2082C1D
:10886000E5D3BDE8F0872DE9F047002400259A4EB6
:10887000DFF864828027A8F1080806F10409600681
:10888000040E3760FFF7A4FFD8F80000400601D5BA
:10889000641CE4B2C9F80070FFF79AFF6D1CEDB2DA
:1088A000082DECD32046DCE770B58B4C40202060CF
:1088B000FFF78EFF80252560FFF78AFF864808387E
:1088C0000068400601D5012400E000248248001D14
:1088D0000560FFF77DFF204670BD2DE9F0417E4D1C
:1088E00040242D1D2C60FFF773FF2F1F80263E6054
:1088F000FFF76EFF2E60FFF76BFF3C60BDE8F08175
:1089000070B5754D40202860FFF762FF80242C6011
:10891000FFF75EFF281D0460BDE8704058E708B50A
:108920000121042009F043FFC020ADF8000003201E
:108930008DF8020014208DF803006748694610384E
:1089400009F02FFDFFF75BFF08BD10B50446FFF7E8
:10895000E6FFFFF743FF2046FFF75DFFFFF7A4FFA9
:108960000446FFF74CFF204610BD10B5A020FFF7CE
:10897000ECFF18B1FFF743FF002010BD012010BD30
:108980002DE9F04105460C461646FFF727FFA020CB
:10899000FFF741FFFFF788FF68B9E0B2FFF73BFF41
:1089A000FFF782FF38B9FFF719FFA120FFF733FF68
:1089B000FFF77AFF18B1FFF722FF00209EE700249F
:1089C000771E0BE0FFF74FFF2855BC4202D0FFF7A0
:1089D00084FF01E0FFF794FF641CA4B2B442F1D31A
:1089E000FFF70DFF012089E72DE9F04780460E468D
:1089F000914600254FF47A7728E00DB1700716D123
:108A0000FFF7FDFE0024FFF7E9FEA020FFF703FFBC
:108A1000FFF74AFF18B1641CA4B2BC42F3D3BC42B6
:108A20000CD0F0B2FFF7F7FEFFF73EFF30B918F8B1
:108A30000500FFF7F0FEFFF737FF18B1FFF7DFFE85
:108A400000200EE7761CB6B26D1CADB24D45D4D3F6
:108A5000FFF7D5FE012004E700B5C1B0002001AA50
:108A6000FF211154401C80B2FF28FAD94FF48072C4
:108A7000002101A8FFF7B8FF41B000BD10B509F013
:108A800034F9022201211548FFF77AFF13481449EF
:108A90000278552A0BD055220270022242700A70C9
:108AA0000121FFF7A1FFBDE8104009F03AB9407875
:108AB0000870F8E710B509F018F908485521017059
:108AC00007490978417002220121FFF78DFFBDE8B7
:108AD000104009F026B9000010080140C50100202F
:108AE000AA01002000204FF43A7100BF00BF00BF70
:108AF00000BF00BF00BF00BF00BF00BF00BF00BF7E
:108B000000BF00BF00BF00BF00BF00BF00BF00BF6D
:108B100000BF00BF00BF00BF00BF00BF00BF00BF5D
:108B200000BF00BF00BF00BF00BF00BF00BF00BF4D
:108B300000BF00BF00BF00BF00BF00BF00BF00BF3D
:108B400000BF00BF00BF00BF00BF00BF00BF00BF2D
:108B500000BF00BF00BF00BF00BF00BF00BF00BF1D
:108B600000BF00BF00BF00BF00BF401C8842BCD98F
:108B7000704700BF00BF00BF00BF00BF00BF00BF05
:108B800000BF00BF00BF00BF00BF00BF00BF00BFED
:108B900000BF00BF00BF00BF00BF00BF00BF00BFDD
:108BA00000BF00BF00BF00BF00BF00BF00BF00BFCD
:108BB00000BF00BF00BF00BF00BF00BF00BF00BFBD
:108BC00000BF00BF00BF00BF00BF00BF00BF00BFAD
:108BD00000BF00BF00BF00BF00BF00BF00BF00BF9D
:108BE00000BF00BF00BF00BF00BF00BF00BF00BF8D
:108BF000704770B50024A748016821F070410160FA
:108C0000016841F080410160A34D03E0641CE4B2BF
:108C1000FFF7AFFFD5F83C0108B1C82CF6D3C82C3C
:108C200001D3012070BD002403E0641CE4B2FFF70F
:108C3000A0FFD5F83C0108B9F02CF6D3F02C01D3F5
:108C4000012070BD002070BD002140E000BF00BFCA
:108C500000BF00BF00BF00BF00BF00BF00BF00BF1C
:108C600000BF00BF00BF00BF00BF00BF00BF00BF0C
:108C700000BF00BF00BF00BF00BF00BF00BF00BFFC
:108C800000BF00BF00BF00BF00BF00BF00BF00BFEC
:108C900000BF00BF00BF00BF00BF00BF00BF00BFDC
:108CA00000BF00BF00BF00BF00BF00BF00BF00BFCC
:108CB00000BF00BF00BF00BF00BF00BF00BF00BFBC
:108CC00000BF00BF00BF00BF00BF00BF491C814202
:108CD000BCD3704710B56F48016821F07041016046
:108CE000016841F0405101606C4C00202060FFF7AA
:108CF000F9FE01202060BDE810400F20A4E738B540
:108D00000121042009F053FD4FF40044ADF8004068
:108D100010208DF8030003208DF802005D4D694698
:108D20002D1F284609F03DFB2146284609F0A8FBE7
:108D3000FFF7D0FFFFF75DFF38BD70B5554C2068D9
:108D400020F070402060206840F040502060534D7B
:108D500000202860FFF70DFFFFF70BFF01202860C0
:108D6000206820F070402060206840F08040206043
:108D70000F20FFF769FF55F8800C08B1012400E0CF
:108D800000243C20FFF760FF204670BD70B5002531
:108D90000124FFF7D2FFC00140EA5500C5B2641CB0
:108DA000E4B2082CF5D9284670BD2DE9F0410546FE
:108DB0003848016821F070410160016841F040517C
:108DC00001600124344E00274FF0010805F0010036
:108DD0006D0858B1C6F8BC71FFF7CBFEFFF7C9FEAE
:108DE000C6F8BC813C20FFF72FFF0AE0C6F8BC7133
:108DF0003C20FFF729FFC6F8BC81FFF7BAFEFFF75A
:108E0000B8FE641CE4B2082CE0D9BDE8F08110B5CE
:108E1000FFF760FFFFF7EDFECC20FFF7C6FFBDE8D0
:108E200010404420C1E770B5FFF7F1FFFFF752FF94
:108E3000FFF7DFFECC20FFF7B8FFBE20FFF7B5FF3E
:108E4000FFF7A4FF0546FFF7A1FF4FF6FF720728C3
:108E500009D9C043E943C9B2002402EA002008440A
:108E6000401C80B204E0012402EA0020284480B2C1
:108E70000DF070FE00220A4B0DF07AFD0DF0AFFEF2
:108E800080B20A21B0FBF1F0002C01D140F4004087
:108E900070BD00000408014000002142BC012142D5
:108EA0000000E43F10B5012401211C2009F07FFCE3
:108EB0004FF4407009F046F801F028F902E0FFF79E
:108EC0001EFF0446012CFAD000F01BFA01F042F913
:108ED000FFF74BFDBDE8104001F030BE02490148EC
:108EE000086070470400FA050CED00E02DE9F04140
:108EF0000546FD4E002904D04021304609F0C0FA55
:108F000003E04021304609F0BDFA2021304609F047
:108F1000B9FA00244FF480784FF400773946304690
:108F200009F0B0FA280604D54146304609F0A8FAFF
:108F300003E04146304609F0A5FA3946304609F0CB
:108F40009FFA6806050E641CE4B2082CE6D32021C3
:108F5000304609F095FA3046BDE8F041402109F06D
:108F60008FBA10B50446B031C8B20021FFF7BEFF7A
:108F7000102040EA14100021FFF7B8FF04F00F00A2
:108F8000BDE8104040F001000021AFE710B500211E
:108F90008D20FFF7ABFF00211420FFF7A7FF002172
:108FA000BDE81040AF20A1E710B500218D20FFF7EC
:108FB0009DFF00211020FFF799FF0021BDE8104020
:108FC000AE2093E770B5002505F1B000C0B20021D6
:108FD000FFF78CFF00210220FFF788FF00211020FF
:108FE000FFF784FF002401210020FFF77FFF641CAE
:108FF000E4B2802CF7D36D1CEDB2082DE4D370BD24
:109000002DE9F04180460F460024203AD5B2B8F150
:109010007F0F02D9A046BF1CFFB239464046FFF77A
:10902000A0FFB24E04EB05100121305CFFF75EFF9C
:10903000641CE4B2082CF5D37F1CF9B24046FFF75C
:1090400090FF002404EB051030440121007AFFF763
:109050004DFF641CE4B2082CF4D3BDE8F0812DE987
:10906000F04180460F460024203AD5B2B8F17F0F78
:1090700002D9A046BF1CFFB239464046FFF771FF38
:109080009A4E04EB05100121305CC043C0B2FFF7DB
:109090002DFF641CE4B2082CF3D37F1CF9B24046C8
:1090A000FFF75FFF002404EB051030440121007A34
:1090B000C043C0B2FFF71AFF641CE4B2082CF2D31D
:1090C000CBE70346012000E05843491EC9B2FBD25A
:1090D00070472DE9F047804608988A4691461D461C
:1090E0000026002447081CE0281B401EC1B20A20AD
:1090F000FFF7E7FFB9FBF0F00A21B0FBF1F201FB4B
:10910000120326B9681E844201DA73B1012607FBF7
:1091100004803033DAB2C0B25146FFF771FF641CED
:10912000E4B2AC42E0D3BDE8F08707FB0480C0B2F4
:1091300020225146FFF764FFF1E72DE9F041044694
:109140000E46174600250CE031462046FFF758FF33
:109150000834E4B2782C02D90024B61CF6B26D1C97
:10916000EDB27A5D002AEFD177E72DE9F0410446B0
:109170000E46174600250CE031462046FFF76FFFEC
:109180000834E4B2782C02D90024B61CF6B26D1C67
:10919000EDB27A5D002AEFD15FE72DE9F047814615
:1091A0008846174641464846FFF7DBFE0024504EEE
:1091B00006EB87150121285DFFF798FE641CE4B2D9
:1091C000102CF7D308F1010808F0FF014846FFF71B
:1091D000C8FE0024012000EB470006EB40150121EA
:1091E000285DFFF783FE641CE4B2102CF7D39AE7E6
:1091F0002DE9F04781468846174641464846FFF725
:10920000B0FE00243B4E06EB87150121285DFFF7D9
:109210006DFE641CE4B2102CF7D308F1010808F0CD
:10922000FF014846FFF79DFE0024012000EB4700A8
:1092300006EB40150121285DFFF758FE641CE4B2DF
:10924000102CF7D36FE72DE9F04781468846174683
:1092500041464846FFF785FE0024264E06EB87155B
:109260000121285DC043C0B2FFF740FE641CE4B298
:10927000102CF5D308F1010808F0FF014846FFF76C
:1092800070FE0024012000EB470006EB4015012191
:10929000285DC043C0B2FFF729FE641CE4B2102C65
:1092A000F5D340E72DE9F0478246DDF820900E46E1
:1092B00090461F460025780712E031465046FFF7DA
:1092C00050FE544608E028466D1C19F800000121A4
:1092D000FFF70CFE641CE4B24445F4D3761CF6B2EE
:1092E000BE42EAD31FE70000000C0140648104087D
:1092F000D201002012040020FB48401E411CFCD17A
:10930000704738B50121082009F051FA4FF47874FC
:10931000ADF8004010208DF8030003208DF8020006
:10932000F24D6946284609F03CF82146284609F0E6
:10933000A7F88021284609F0A3F8FFF7DDFF802178
:10934000284609F09FF8FFF7D7FF8021284609F04B
:1093500097F80021AE20FFF7C9FD00210220FFF79A
:10936000C5FD00211020FFF7C1FD00214020FFF7BF
:10937000BDFD00218120FFF7B9FD0021CF20FFF7BF
:10938000B5FD0021A120FFF7B1FD0021C820FFF7A6
:10939000ADFD0021A620FFF7A9FD0021A820FFF7C1
:1093A000A5FD00213F20FFF7A1FD00218120FFF74F
:1093B0009DFD0021FF20FFF799FD0021D320FFF73D
:1093C00095FD00210846FFF791FD0021D520FFF70C
:1093D0008DFD00218020FFF789FD0021D920FFF7B6
:1093E00085FD0021F120FFF781FD0021DA20FFF744
:1093F0007DFD00211220FFF779FD0021DB20FFF722
:1094000075FD00214020FFF771FD00212020FFF7AE
:109410006DFD00210220FFF769FD00218D20FFF77F
:1094200065FD00211420FFF761FD0021A420FFF756
:109430005DFD0021A620FFF759FD0021AF20FFF7B9
:1094400055FD0021AF20FFF751FDFFF7BBFD0021C7
:109450000846FFF786FD38BD1FB5A5480068039094
:10946000002101220846FFF798FE02220021122067
:10947000FFF793FE032200212420FFF78EFE042233
:1094800000213620FFF789FE052200214820FFF742
:1094900084FE98A200215F20FFF74FFE97480090BE
:1094A0000723502202213020FFF7FCFE94A2062160
:1094B0000520FFF742FE102000900A2306211E20FF
:1094C000039AFFF706FE1FBD70B50D220221002092
:1094D000FFF78EFE0E2202211220FFF789FE0F22D7
:1094E00002212420FFF784FE102202213620FFF7FC
:1094F0007FFE112202214820FFF77AFE814C20785E
:1095000030B101280DD00025022813D0257070BD80
:109510007DA202215A20FFF710FE2078401C207007
:1095200070BD7AA202215A20FFF707FE2078401C66
:10953000207070BD76A202215A20FFF7FEFD257033
:1095400070BD70B5062202210020FFF751FE0122F6
:1095500002211220FFF74CFE052202212420FFF7F2
:1095600047FE6C480024674D0078012807D06878D2
:1095700058B3012832D0022839D06C7070BD66A271
:1095800002213820FFF7D9FD687828B101280CD0D6
:10959000022813D06C7070BD5BA202215220FFF72D
:1095A000CCFD6878401C687070BD58A20221522022
:1095B000FFF7C3FD6878401C687070BD54A202219B
:1095C0005220FFF7BAFD6C7070BD54A20221362004
:1095D000FFF7B3FD6878401C687070BD52A202218D
:1095E0003620FFF7AAFD6878401C687070BD51A254
:1095F00002213620FFF7A1FD6C7070BD70B502220C
:1096000011460020FFF7F4FD012202211220FFF78E
:10961000EFFD052202212420FFF7EAFD3D4800244A
:10962000384D0078012807D0A87858B3012832D0E7
:10963000022839D0AC7070BD37A202213820FFF764
:109640007CFDA87828B101280CD0022813D0AC707A
:1096500070BD2DA202215220FFF76FFDA878401C9B
:10966000A87070BD29A202215220FFF766FDA878DC
:10967000401CA87070BD26A202215220FFF75DFD9C
:10968000AC7070BD25A202213620FFF756FDA878E8
:10969000401CA87070BD24A202213620FFF74DFDAA
:1096A000A878401CA87070BD22A202213620FFF7C6
:1096B00044FDAC7070BD2DE9F843002808D0204867
:1096C000007801283ED0022847D0032850D059E026
:1096D000002106220846FFF78BFD012200211220FF
:1096E000FFF786FD4EE0000040420F00000C0140F5
:1096F000E8F7FF1F56312E370000000092030020CC
:1097000049443A00CD0100202E2020002E2E2000BA
:109710002E2E2E00A8010020555342002E2020207E
:1097200020202020000000002E2E2020202020209D
:10973000000000002E2E2E202020202000000000FF
:1097400074010020002121220846FFF751FD02226A
:1097500000211220FFF74CFD14E0002102220846F0
:10976000FFF746FD012200211220FFF741FD09E02D
:10977000002121220846FFF73BFD0622002112208E
:10978000FFF736FDFE48FF4C0025007801281DD06C
:10979000E570FDA200212620FFF7CFFCFC4EFD4F17
:1097A000DFF8F48332881024B2F5004F2BD322F473
:1097B00000420223002160200094FFF78AFC3D70E4
:1097C000308800F50040A8F800002BE0E07870B188
:1097D000012812D0F1A200212620FFF7AEFCE0788C
:1097E000401CC0B2E0700328D8D1E570D6E7EEA2E5
:1097F00000212620FFF7A1FCF1E7EEA200212620A0
:10980000FFF79BFCEBE70223002160200094FFF7A9
:1098100060FC3088A8F800001E2802D301203870B0
:1098200000E03D70142200217020FFF7E1FCE448C5
:10983000007802281DD0042821D0E2A202210020B5
:10984000FFF77BFCE448009402230278194662206B
:10985000FFF73FFCE1A204210020FFF76EFCE44883
:10986000028842F210754FF47A76B2420DD304208A
:1098700014E0E0A202210020FFF75FFCE2E7E2A291
:1098800002210020FFF759FCDCE7642A01D3032002
:1098900004E00A2A01D3022000E00120401CC3B2E8
:1098A000042129200094FFF714FCDCA206210020EB
:1098B000FFF743FCDE484288B24201D3042008E0AF
:1098C000642A01D3032004E00A2A01D3022000E025
:1098D0000120401CC3B2062129200094FFF7F9FBA8
:1098E000BDE8F883F8B50021D2A20846FFF725FCB1
:1098F000CF4CA2884FF47A77BA4201D3042008E013
:10990000642A01D3032004E00A2A01D3022000E0E4
:109910000120401C1025C3B2002129200095FFF72B
:10992000D8FBC9A202210020FFF707FCE288BA4257
:1099300001D3042008E0642A01D3032004E00A2AAA
:1099400001D3022000E00120401CC3B202212920E3
:109950000095FFF7BEFBC1A204210020FFF7EDFB3D
:109960002289BA4201D3042008E0642A01D30320EB
:1099700004E00A2A01D3022000E00120401CC3B207
:10998000042129200095FFF7A4FBB8A2062100209E
:10999000FFF7D3FB6289BA4201D3042008E0642AAE
:1099A00001D3032004E00A2A01D3022000E00120B1
:1099B000401CC3B2062129200095FFF78AFBF8BDA1
:1099C00070B56F480078012829D00021ACA2084664
:1099D000FFF7B3FB062202210020FFF709FC01225A
:1099E00002211220FFF704FC052202212420FFF7A8
:1099F000FFFBA4A204210020FFF79FFB0124A44D3C
:109A0000285D012812D0601E0007000E20220621CA
:109A1000FFF7F6FA641CE4B2052CF1D970BDAFF281
:109A2000083200210846FFF788FBD3E704F1300035
:109A3000C2B2601E0007000E0621FFF7E1FAE9E757
:109A400070B54F480078012828D000218CA2084624
:109A5000FFF773FB022211460020FFF7C9FB01222A
:109A600002211220FFF7C4FB052202212420FFF768
:109A7000BFFB88A204210020FFF75FFB0124844D77
:109A8000285D90B1601E0007000E20220621FFF71E
:109A9000B7FA641CE4B2052CF2D970BDAFF288327B
:109AA00000210846FFF749FBD4E704F13000C2B2B9
:109AB000601E0007000E0621FFF7A2FAE9E770B565
:109AC0002F48007801282DD000216DA20846FFF70D
:109AD00034FB002202211046FFF78AFB01220221FB
:109AE0001220FFF785FB122202212420FFF780FBC2
:109AF000132202213620FFF77BFB68A204210020FD
:109B0000FFF71BFB0124674D285D90B1601E000725
:109B1000000E20220621FFF773FA641CE4B2052C24
:109B2000F2D970BDAFF2104200210846FFF705FBE5
:109B3000CFE704F13000C2B2601E0007000E06211C
:109B4000FFF75EFAE9E710B5574C2078002815D0EA
:109B5000002107220846FFF776FB08220021122089
:109B6000FFF771FB092200212420FFF76CFB0A227A
:109B700000213620FFF767FB152297E0A0E00000E8
:109B8000A8010020CD01002020202020202000005E
:109B900076010020BC010020000000205553422E19
:109BA0002E2E2020200000005553422E2020202061
:109BB000200000005553422E2E20202020000000BF
:109BC000AA0100204155544F3D33732052544B3D60
:109BD0002020202000000000B5010020503A202065
:109BE00020202020202020202020202000000000F5
:109BF000880100205349474E414C202052544B3D90
:109C000020202020000000004155544F3D32732099
:109C100052544B3D20202020000000005049433189
:109C20003A2020202020202020202020000000009A
:109C3000EA250020504943323A20202020202020CD
:109C40002020202020000000504943333A202020CB
:109C500020202020202020200000000050494334F4
:109C60003A20202020202020202000005049433589
:109C70003A2020202020202020202020000000004A
:109C80002020200057524F4E473A2020000000006D
:109C90009001002057524F4E472020004C4F534513
:109CA0003A20200096010020AB01002000215C201A
:109CB000FFF79EFA162200216E20FFF799FA1DE0A9
:109CC000002107220846FFF793FA082200211220FC
:109CD000FFF78EFA092200212420FFF789FA0A22D1
:109CE00000213620FFF784FA152200215C20FFF7BF
:109CF000AAFA162200216E20FFF7A5FA2078022882
:109D000016D0EAA202210020FFF717FA20780428D3
:109D100014D0E9A204210020FFF70FFA20780628CA
:109D200012D00621BDE81040E6A20020FFF705BAD8
:109D3000E7A202210020FFF718FAE7E7E7A20421D3
:109D40000020FFF712FAE9E70621BDE81040E6A27D
:109D50000020FFF70ABA10B5012820D00722002101
:109D60001220FFF745FA082200212420FFF740FACD
:109D7000032200213620FFF73BFA0422002148206D
:109D8000FFF736FADB48007802281DD0042822D0DD
:109D90000221BDE81040CBA20020FFF7E6B90B225C
:109DA00000211220FFF724FA0C2200212420FFF7C3
:109DB0001FFA072200213620FFF71AFA0822002195
:109DC0004820FFF715FADDE70221BDE81040C0A2E8
:109DD0000020FFF7CAB90221BDE81040B6A200205A
:109DE000FFF7C3B92DE9F0410646152200211220E4
:109DF000FFF7FEF9162200212420FFF7F9F90922C6
:109E000000213620FFF7F4F90A2200214820FFF74D
:109E1000EFF9032E1CD80124DFF8DC82282718F87C
:109E2000040001284BD004F13000C2B2611E01EBE6
:109E3000410007EB8005E8B20421FFF7E1F8E8B242
:109E400020220221FFF7DCF8641CE4B2052CE6D9DD
:109E50000024AA4D012E44D0022E77D0032E76D0B6
:109E6000042E2AD11A2202210020FFF7C1F91B2259
:109E700002211220FFF7BCF91C2202212420FFF747
:109E8000B7F91D2202213620FFF7B2F91E22022166
:109E90004820FFF7ADF91F2202215A20FFF7A8F949
:109EA000202202216C20FFF7A3F9287900287DD019
:109EB00001287CD002287BD02C71BDE8F08104F110
:109EC0003000C2B2611E01EB410007EB8005E8B231
:109ED0000221FFF795F8E8B220220421FFF790F85D
:109EE000B2E7022211460020FFF7ADF9012202215C
:109EF0001220FFF7A8F9062204210020FFF778F9C5
:109F0000012204211220FFF773F90222062100200A
:109F1000FFF76EF9012206211220FFF769F90522E9
:109F200006212420FFF764F9287928B101280FD0F1
:109F3000022817D02C71C0E7AFF620020621362088
:109F4000FFF7FBF82879401C2871B6E712E049E0DA
:109F5000AFF62C0206213620FFF7EFF82879401CD7
:109F60002871AAE7AFF6340206213620FFF7E5F89C
:109F70002C71A2E7022211460020FFF739F90122D5
:109F800002211220FFF734F9062204210020FFF7F6
:109F90002FF9012204211220FFF72AF918220621A5
:109FA0000020FFF725F91922062102E061E06AE0AE
:109FB00073E01020FFF71CF951A206212020FFF7C3
:109FC000BCF8172206213820FFF712F919220621C2
:109FD0004820FFF70DF9BDE8F041062149A25820BD
:109FE000FFF7ABB8022211460020FFF701F901226A
:109FF00002211220FFF7FCF8062204210020FFF7BF
:10A0000022F9012204211220FFF71DF90622114630
:10A010000020FFF7EDF8012206211220FFF7E8F8F3
:10A02000052206212420FFF7E3F8287928B101282A
:10A030000DD0022815D02C713FE7AFF62012062173
:10A040003620FFF77AF82879401C287135E7AFF6FB
:10A05000281206213620FFF770F82879401C287155
:10A060002BE7AFF6301206213620FFF766F82C7189
:10A0700023E7AFF6581204210020FFF75EF8287995
:10A08000401C287119E7AFF6601204210020FFF789
:10A0900054F82879401C28710FE7AFF668120421A4
:10A0A0000020FFF74AF82C7107E7000053494741A9
:10A0B0004E4C2020200000004155544F20325320A8
:10A0C000202000004155544F203353202020000011
:10A0D0005349474E414C2020200000004155544F29
:10A0E00020325320200000004155544F203353208C
:10A0F00020000000AA01002090010020CD010020D6
:10A100003D4F4B003D4E45585400000038B50121ED
:10A11000182008F04CFB4FF44040ADF80000032538
:10A120008DF8025010248DF803406946074808F066
:10A1300038F94020ADF800008DF802508DF803404A
:10A140006946034808F02DF938BD0000000C0140B5
:10A150000010014030B589B00121CC02204608F042
:10A1600026FB0121042008F022FBADF80440182052
:10A170008DF8070003208DF8060001A9254808F096
:10A1800010F9F920ADF80C004720ADF808000024C4
:10A19000ADF80E40ADF80A401F4D02A9284608F060
:10A1A0001DFD7021ADF814100121ADF816107C21B1
:10A1B000ADF81A10ADF81C4005A9284608F0FEFDC0
:10A1C0000821284609F0F4F80121284609F0AAF8E8
:10A1D0000021284608F0DFFF0021284608F0CFFFC5
:10A1E00009B030BD10B50C4C0121204608F0D3FF5A
:10A1F0002046BDE81040012108F0C1BF10B5064C53
:10A200000021204608F0C7FF2046BDE8104000218D
:10A2100008F0B5BF00080140002C01402DE9F04FC7
:10A2200085B00C46002503260427DFF800B44FF064
:10A2300001084FF018094FF00C0A01285CD00228E1
:10A240007DD0032855D1FA49FA01A1F1180000F098
:10A250009EFAF849FA01A1F5037000F098FA01217D
:10A26000082008F0A4FA0121880408F0ABFA8DF860
:10A270000F908DF80E603802ADF80C00DFF8B8933F
:10A2800003A9484608F08DF88DF80F707802ADF8F4
:10A290000C0003A9484608F084F827208DF80C002C
:10A2A0008DF80D608DF80E508DF80F8003A807F023
:10A2B0004EFE0094ADF80450ADF80650ADF80850CD
:10A2C000ADF80C50ADF80AA0DC4C6946204609F008
:10A2D000FBF90121204609F072FA012240F22551D2
:10A2E000204609F078FA049504A804F0A9FFCBF8F9
:10A2F0000C0005B0BDE8F08FD1494FF40072A1F118
:10A30000180000F044FACF494FF40072A1F5037031
:10A3100000F03DFA0121042008F049FA01218803E8
:10A3200008F045FA8DF80F908DF80E604FF400702C
:10A33000ADF80C00DFF8109303A9484600E038E0C0
:10A3400008F02FF88DF80F704FF48060ADF80C0016
:10A3500003A9484608F025F825208DF80C008DF853
:10A360000D608DF80E508DF80F8003A807F0EFFDFB
:10A370000094ADF80450ADF80650ADF80850ADF8B3
:10A380000C50ADF80AA0B14C6946204609F09CF982
:10A390000121204609F013FA012240F225512046FE
:10A3A00009F019FA049504A804F04AFFCBF8040058
:10A3B0009FE7A7494FF40072A1F1180000F0E7F9F8
:10A3C000A4494FF40072A1F5037000F0E0F90121F7
:10A3D000042008F0ECF90121480408F0F3F98DF8A5
:10A3E0000F908DF80E60ADF80C70DFF85C9203A949
:10A3F000484607F0D6FF8DF80F700820ADF80C0026
:10A4000003A9484607F0CDFF26208DF80C008DF8F3
:10A410000D608DF80E508DF80F8003A807F097FDA2
:10A420000094ADF80450ADF80650ADF80850ADF802
:10A430000C50ADF80AA0884C6946204609F044F952
:10A440000121204609F0BBF9012240F225512046A6
:10A4500009F0C1F9049504A804F0F2FECBF8080055
:10A4600047E770B50D461646704C4FF0FF31012896
:10A4700005D0022811D003281DD0084670BD6068A1
:10A4800004F0E1FE6E4832462946183800F0B4F96F
:10A490000546606804F00AFF1AE0A06804F0D3FEE5
:10A4A0006B4832462946183800F0A6F90546A068E0
:10A4B00004F0FCFE0CE0E06804F0C5FE5C483246A7
:10A4C0002946183800F098F90546E06804F0EEFED9
:10A4D000284670BD2DE9F0410E461746534C40F218
:10A4E00027754FF0FF31012806D0022817D0032826
:10A4F00028D00846BDE8F081606804F0A4FE50480A
:10A500003A4631460C3800F052F9064601222946F7
:10A510004E4809F060F9606804F0C8FE24E0A068C5
:10A5200004F091FE4A483A4631460C3800F03FF9B3
:10A53000064601222946484809F04DF9A06804F072
:10A54000B5FE11E0E06804F07EFE39483A46314637
:10A550000C3800F02CF9064601222946374809F04C
:10A560003AF9E06804F0A2FE3046C3E713B501A94A
:10A570000122FFF7AFFF1CBD70B505460C46204613
:10A580000CF0F2F8401C82B221462846BDE870402B
:10A59000A0E766E710B54FF4E1210120FFF73EFE8A
:10A5A00022490120087010BD0FB400B5C1B01F488A
:10A5B0000078002810D043ABFF2101A8429A0CF08C
:10A5C00051FD01A80CF0D0F8401C82B201A9012075
:10A5D000FFF780FF0020009041B05DF814FB38B514
:10A5E0001A4C40F22551204609F0C2F948B12046E4
:10A5F00009F04AF90090124801226946183800F023
:10A60000D6F840F227752946204609F0B1F960B125
:10A610000B48012269460C3800F0EEF8F0B19DF8C5
:10A620000010204609F02CF91DE01CE0940C0020DD
:10A63000402E002040300020000C01400048004027
:10A64000102600201028002000080140003801409A
:10A65000282A0020282C00200044004000222946FF
:10A66000204609F0B8F80821204609F076F90128BB
:10A6700006D10821204609F077F9204609F004F9AF
:10A6800038BD38B5374C40F22551204609F070F9F5
:10A6900040B1204609F0F8F800900122694632489E
:10A6A00000F085F840F227752946204609F060F948
:10A6B00088B12D48012269460C3000F09DF828B180
:10A6C0009DF80010204609F0DBF804E0002229463E
:10A6D000204609F080F80821204609F03EF90128BB
:10A6E00006D10821204609F03FF9204609F0CCF8B0
:10A6F00038BD38B51D4C40F22551204609F038F9D7
:10A7000040B1204609F0C0F800900122694618487F
:10A7100000F04DF840F227752946204609F028F947
:10A7200088B11348012269460C3000F065F828B161
:10A730009DF80010204609F0A3F804E00022294605
:10A74000204609F048F80821204609F006F90128BA
:10A7500006D10821204609F007F9204609F094F8AF
:10A7600038BD000000440040102A0020004800408E
:10A77000282E0020034600210A46491C23FA02F035
:10A7800089B20128F8D1491E884080B2704710B5BF
:10A79000044610460022E28022812160411E0842C8
:10A7A00003D0FFF7E7FFA08010BDA08010BD2DE90A
:10A7B000F04104460F46A0882389E588C11A294440
:10A7C0008DB2954200D91546411E0B40C01A86B283
:10A7D000AE4200D92E4620683246184439460BF066
:10A7E00093FFAA1BB91920680BF08EFF208928441B
:10A7F00020812846BDE8F0812DE9F04104460F464E
:10A800002189E088091A8DB2954200D91546A2889F
:10A81000511E0840111A8EB2AE4200D92E46216850
:10A820003246014438460BF06FFFAA1BB819216865
:10A830000BF06AFFE0882844E0802846DAE7818848
:10A840000289C088891A084480B2704710B5002276
:10A8500047F2305405E02146491E4B1CFCD1521CE6
:10A8600092B28242F7D310BD0122A2A100200AF0C9
:10A8700026BB2DE9F04782460024002551469E481C
:10A880000AF0A7FE30B150460BF054F80120FFF754
:10A89000DDFFF3E7994E0027F07850B3DFF85882D8
:10A8A000DFF85C9208F128081CE098F80D0000B36E
:10A8B00098F80C00202804D012E009F80500641C68
:10A8C0006D1C08EB0400407B2E28F6D109F80570BA
:10A8D0008B480BF067FFB060F168884200DBF060E6
:10A8E000002425468449844828310AF0B6FE002811
:10A8F000DBD0F770F36852465B1C82A180480CF0F5
:10A900009DFB13227E4982480AF0FEFA307100282E
:10A9100032D17F4801690AF0A3FD7848283000E071
:10A92000641C015D0029FBD1307801280ED17348E9
:10A93000F0300BF019FF714B0246103303F1E001C8
:10A9400073480AF04FFC3071022030706B4B224686
:10A95000103303F118016E480AF044FC307118B14D
:10A960000220FFF773FFF1E7F088401CF080BDE89C
:10A97000F04767480AF065BDBDE8F08710B560484C
:10A9800001225CA1DC300AF09AFA5C4C20710D289F
:10A9900008D0002821D06078401C6070BDE81040CD
:10A9A000012053E70022114652A00BF048F9207114
:10A9B00030B16078401C6070BDE81040012045E770
:10A9C00001224CA100200AF07AFA20714C480122A1
:10A9D00048A1DC300AF073FA207110BD2DE9F04176
:10A9E0000020464E464A0025B1781432012908D08D
:10A9F000484B195C99B11154401CC0B2B928F8D326
:10AA000010E03D4B4C33195C29B11154401CC0B2CD
:10AA1000B928F8D306E01554401CC0B202E0155422
:10AA2000401CC0B2364C1434401EC0B27071B42801
:10AA30005DD807F05AF9FFF7A1FF07F072F9F08827
:10AA40004FF47A77B0FBF7F22C49303228310A7094
:10AA5000B0FBF7F207FB12036422B3FBF2F33033CF
:10AA60004B70B0FBF7F307FB1303B3FBF2FC02FBE5
:10AA70001C3C0A23BCFBF3FC0CF1300C81F802C037
:10AA8000B0FBF7FC07FB1C00B0FBF2F702FB170062
:10AA9000B0FBF3F203FB12003030C8702C200871B9
:10AAA00005207679721D04E014F8017B0F54401CD8
:10AAB000C0B29042F8D30D22881942718371C571DA
:10AAC00007F013F90D481430FFF7D3FE0220FFF70B
:10AAD000BDFEFFF7C9FE0120FFF7B8FEFFF7C4FE79
