:020000040803EF
:10500000F8F10020DD510308F1590308F3590308B2
:10501000F5590308F7590308F9590308000000007F
:1050200000000000000000000000000045510308DF
:10503000FB5903080000000089510308FD590308CB
:10504000F7510308F7510308F7510308F751030814
:10505000F7510308F7510308F7510308B36E03082B
:10506000F7510308D76D0308F7510308F7510308F8
:10507000F7510308F7510308F7510308F7510308E4
:10508000F7510308F7510308F7510308F7510308D4
:10509000F7510308F7510308F7510308F7510308C4
:1050A000F7510308F7510308F7510308F7510308B4
:1050B000F7510308F7510308F7510308F7510308A4
:1050C000F7510308F7510308F7510308F751030894
:1050D000F75103082B9E0308D19E0308439F030842
:1050E000F7510308F7510308F7510308F751030874
:1050F000F7510308F7510308F7510308F751030864
:10510000F751030849B60308F7510308F75103089C
:10511000F7510308F7510308F7510308F751030843
:10512000F7510308F7510308F7510308F751030833
:10513000DFF80CD010F006FF00480047DD580308E8
:10514000F8F10020224B19680868B0E8F00F80F3EE
:105150000988BFF36F8F4FF0000080F311884EF085
:105160000D0E70470000000006480068006880F3DC
:10517000088862B661B6BFF34F8FBFF36F8F00DF51
:1051800000BF00BF08ED00E0EFF30980BFF36F8FB1
:105190000F4B1A6820E9F00F106008B54FF050006F
:1051A00080F31188BFF34F8FBFF36F8F0BF0B2F80E
:1051B0004FF0000080F31188BDE8084019680868C6
:1051C000B0E8F00F80F30988BFF36F8F704700BF1E
:1051D0008C070020EFF305807047000006488047E9
:1051E00006480047FEE7FEE7FEE7FEE7FEE7FEE7CC
:1051F000FEE7FEE7FEE7FEE77D14040831510308F1
:105200002DE9F0410446212110F0B9FA04F1210002
:105210001121054610F0B3FA04F1320021210646AF
:1052200010F0ADFA04F153004121074610F0A7FA3F
:10523000EDA1204610F0CFFAEEA1284610F0CBFAEF
:10524000EEA1304610F0C7FAF4A1384610F0C3FAC8
:10525000F7A1204610F0B1FA78B1F9A1284610F074
:10526000ACFA50B1F9A1304610F0A7FA28B1FBA171
:10527000384610F0A2FA002806D1BDE8F041FD4AF8
:10528000FD48114604F0B8BDBDE8F0810A4610B5EE
:105290000146032004F04AFD002010BD0A460146E5
:1052A000032004F00EBD8CB00026F44DF44C09969A
:1052B000ADF8286061274FF075094FF0740A4FF080
:1052C000300BF0480078022816D02F7085F8019036
:1052D000042885F802A085F803B04FF0200028715B
:1052E00018D0332068717320A871E748EE71E74A3F
:1052F0000078022810D010E05320287049206870F0
:105300004720A8704E20E870412028714C20687119
:10531000AE71EAE73220E5E7D21CDC481838008895
:10532000B0F5004F04D32D218DF8241080B202E097
:105330002B218DF82410E388B4F80AC0B4F8088053
:10534000A188CDE90513CDE9078CD14B6188B3F86D
:1053500000C0D04B1B780090CDE90153CDE903C1CB
:10536000C64809ABCC490A3010F08AFEC3490A315D
:1053700001F2F22006F0F3FCC0480A3010F016FAF1
:10538000BE49401C82B20A310AAB01F2F22006F09B
:10539000A1FCBA480A3010F009FAB849401C82B2A0
:1053A0000A310AAB01F2F22007F05DF94FF47A708E
:1053B00009F097FA85E74FF480642146B748FFF774
:1053C0006DFF002805DDB54982B201F5F26006F0F7
:1053D000DCFA012009F085FAEFE710B504F002FDD0
:1053E0004FF47A31032004F049FB4FF416510220A8
:1053F00004F044FB01F0B2FC01F014FD9F48943826
:10540000FFF7FEFE9D49943901F5647006F084FAB9
:10541000AFF28711A24806F0BAFAA14806F045FC9F
:10542000A0499F4806F0D5FC9F4802789F48016834
:105430009B4806F0C9FC9E49994806F0CEFC9D4960
:10544000974806F0CEFC964806F03FFD9A499448EE
:1054500006F04EFD9949924807F001F898499048A6
:1054600007F0CCF897498E4807F0EDF887480121FE
:10547000163802220170427003228270C170BDE8AA
:10548000104006F074BAF0B5027986790025438899
:10549000447931444FF4C8774FF0640C012A1CD092
:1054A000032A1AD0052A18D0072A16D0082A14D0A1
:1054B0000A2A12D00C2A10D0042A26D0062A24D078
:1054C000092A22D00B2A20D093FBF7F607FB1636C9
:1054D0001F250EB39E071AD020E01F26032A02D0F4
:1054E000082A10D01BE093FBF7F507FB153535B103
:1054F0009D0706D193FBFCF50CFB15350DB11D2561
:105500000DE01C250BE01F2509E01E26FBE793FBA1
:10551000FCF60CFB16360EB11D2600E01C261829E1
:1055200009DB1839641CB44205DDA41B521C0C2A8B
:1055300001DD0C3A5B1C002909DA1831641E012CCC
:1055400005DA521E2C46012A01DA0C225B1E544D4C
:10555000F23D6B802A716C71A971C179E971017A90
:105560002972D0F80B00C5F80B00F0BD4FF0000A0F
:10557000012592B05446AB4653480068012821D11A
:10558000012D1FD109F05EF94FF47A714843B0FB49
:10559000F1F13E4E4248183EB16001F0FDFA4B4C2D
:1055A00000221346606EA16E10F054FB05D0606EB1
:1055B000A16E0024C6E9040100E001244FF4FA7052
:1055C00009F08FF9022009F08CF9012601F066FC40
:1055D0000028D1D0012C06D0002509F033F94FF472
:1055E0007A71484374E096E053484152452D31307A
:1055F0003153000036353138370000006633373913
:105600003233613562326639343437376465666403
:10561000383137383365663130303500313835351B
:1056200034303136373636403132362E636F6D00C6
:10563000796F75725F6170705F6E616D65000000FB
:10564000796F75725F6170705F696400796F7572F0
:105650005F6170705F6B657900000000796F757233
:105660005F646576656C6F7065725F6163636F75AB
:105670006E740000CE69040874410708B80C00205D
:10568000EE1A0020AB01002081010020180000204C
:105690008E010020AF010020C84107082408002027
:1056A000B40F0020115A0308A86D04089C000020C4
:1056B000355A0308855A0308E06D0408106E040883
:1056C0001C700408F070040854010020D019002058
:1056D000B0FBF1F16148624A624F816082F800B02C
:1056E0004FF4FA698046022009F0FBF8D8F8080068
:1056F0003968884227D2081A484523D25A48D8F830
:10570000081001F049FA08215848FFF7BCFE584E2E
:10571000307810B11AE001255FE70020554A0146B4
:105720001154401CC0B21428FAD34F48F2384179C2
:1057300000910379428850A14E4810F0A1FC86F8F0
:1057400000B003E00026BAF1000F77D04E484FF0CA
:10575000000A00780228504652D04C4A00211154C9
:10576000401CC0B2C828FAD348480790484800787F
:105770000090E8B3474E776EB16ED8E904238946AE
:105780003846483610F010F986463748F238D0F8D7
:105790000BC090F80880C3798279CDE9108CCDE9EF
:1057A0000E23427903794088DDF800C0CDF820E06F
:1057B0000D92CDE9091CCDE90B03B6F90410B6F939
:1057C0000220B6F90000CDE90402CDE90279069184
:1057D000B1697069CDE90001F26833692E49079813
:1057E00010F04EFC28480178022912D0022100E076
:1057F00012E001701C480799CB380FF0ECFF16E05F
:10580000264A00211154401CC0B2C828FAD32348AC
:10581000ABE780F800B0EDE713490798CB390FF0FC
:10582000DAFF19480178022905D00221017004F03D
:10583000E7FCA1E602E080F800B0F8E7002E7FF474
:1058400052AF99E616480168491C01607047154A35
:105850000B46114614A004F0CFBA0000000000204F
:10586000500100205C010020B40F00209819002096
:10587000D8010020EC0100202534642E253032644C
:105880002E25303264000000DA010020E8280020D4
:10589000AF010020D0190020244207082028002052
:1058A00084010020DD6904085B25735D5B4465624B
:1058B00075675D5B25735D2DE4BBBBE58AA1EFBC1D
:1058C0009A257320E58F91E78EB0E6A088E6BAA20C
:1058D000E587BA5C720A0D0A0D0A000001F028FA89
:1058E00001F0FCFAFFF779FD00213C4808F0B6FF13
:1058F0003B4908603C493B48086008F095FFFEE7DB
:1059000010B50BF0FAFC09F0A5FB354C0021E06363
:105910003248103809F0ACF92064304800210838CA
:1059200009F0A6F960642D480021143008F096FFB4
:1059300060602A480021283008F090FFA0602748C6
:1059400000213C3008F08AFFE060244800215030FC
:1059500008F084FF206121480021643008F07EFFB8
:1059600060611E480021783008F078FFA0611B4874
:105970000021A03008F072FF2062184800218C300E
:1059800008F06CFFE06115480021B43008F066FFB4
:10599000606212480021C83008F060FFA0620F4822
:1059A0000021DC3008F05AFFE06200210F4808F0C7
:1059B00055FFA0630D480021283808F04FFF2063F1
:1059C0000A480021143808F049FF6063206808F095
:1059D0005EFFBDE810400BF0ACBC00000C6A040890
:1059E0002C0000200050030808ED00E0246B0408A0
:1059F0007047FEE7FEE7FEE7FEE7704710B50AF0E6
:105A0000CBFF012803D0BDE810400BF0A3BC10BDB4
:105A100010B50C460A46014695480FF097FE94498A
:105A20000020944A08550B46BDE81040114692A04C
:105A300004F0E2B99B480C290DD2DFE801F0060919
:105A40000C0E11170C0C1D201A14D0F8010001E0E7
:105A5000D0F81100106000207047D0F80500F9E779
:105A6000D0F80900F6E7D0F82100F3E7D0F80D00F0
:105A7000F0E7D0F81D00EDE7D0F81500EAE7D0F820
:105A80001900E7E770B5874E15460024B06A04EBAD
:105A9000840202EBC40200EB820252788A4203D0F5
:105AA000641CE4B20C2CF2D30C2935D2DFE801F0EF
:105AB000354306515D7115249DB387672868012819
:105AC00001D028B1BEE06B4A77A01E32114621E01A
:105AD000684A7FA01E3211461CE02868012801D0C8
:105AE00028B1AFE0634A84A01E32114612E0614A39
:105AF0008BA01E3211460DE02868012801D028B184
:105B0000A0E05C4A90A01E32114603E0594A98A0DA
:105B10001E32114604F070F992E0564A9EA01E32E1
:105B2000114604F069F92868012801D00028C9D17C
:105B3000C6F8010084E04F4A9FA01E32114604F0CF
:105B40005BF92868012801D000287BD1C6F8110034
:105B500076E0484AA0A01E32114604F04DF92868AC
:105B600065286FD2C6F805006AE0424AA2A01E323C
:105B7000114604F041F92868C6F8090060E03D4A82
:105B8000A5A01E32114604F037F92868C6F8210096
:105B900056E0384AA8A01E32114604F02DF904EB55
:105BA0008401B26A01EBC40102EB81012868097A21
:105BB000884247DA002845DBC6F80D0040E02D4A50
:105BC000A5A01E32114604F017F904EB8401B26A55
:105BD00001EBC40102EB81012868097A884231DABD
:105BE00000282FDBC6F81D002AE0224AA2A01E32A0
:105BF000114604F001F904EB8401B26A01EBC4011F
:105C000002EB81012868097A88421BDA002819DB37
:105C1000C6F8150014E0174A9FA01E32114604F082
:105C2000EBF804EB8401B26A01EBC40102EB8101E1
:105C30002868097A884205DA002803DBC6F81900CB
:105C4000002070BD042070BD70B5164B0D4615497F
:105C50001B781446037020222C3128460FF09AFD41
:105C6000104920224C3120460FF094FD002070BDD9
:105C700098150020A96D04085B25735D5B4465627F
:105C800075675D5B25735D2D52656365697665207B
:105C900066726F6D204170703A2025730D0A0D0AEF
:105CA00000000000740000205B25735D5B446562AA
:105CB00075675D5B25735D2D427574746F6E312061
:105CC000507265737320446F776E0D0A0D0A0000E1
:105CD0005B25735D5B44656275675D5B25735D2D58
:105CE000427574746F6E312052656C656173652006
:105CF00055700D0A0D0A00005B25735D5B446562FB
:105D000075675D5B25735D2D427574746F6E32200F
:105D1000507265737320446F776E0D0A0D0A000090
:105D20005B25735D5B44656275675D5B25735D2D07
:105D3000427574746F6E322052656C6561736520B4
:105D400055700D0A0D0A00005B25735D5B446562AA
:105D500075675D5B25735D2D427574746F6E3320BE
:105D6000507265737320446F776E0D0A0D0A000040
:105D70005B25735D5B44656275675D5B25735D2DB7
:105D8000427574746F6E332052656C656173652063
:105D900055700D0A0D0A00005B25735D5B4465625A
:105DA00075675D5B25735D2D53776974636831207A
:105DB0004F70740D0A0D0A005B25735D5B446562CC
:105DC00075675D5B25735D2D537769746368322059
:105DD0004F70740D0A0D0A005B25735D5B446562AC
:105DE00075675D5B25735D2D5363616C6531204F75
:105DF00070740D0A0D0A00005B25735D5B446562DB
:105E000075675D5B25735D2D496E70757431204F2C
:105E100070740D0A0D0A00005B25735D5B446562BA
:105E200075675D5B25735D2D496E70757432204F0B
:105E300070740D0A0D0A00005B25735D5B4465629A
:105E400075675D5B25735D2D4C69737431204F70F0
:105E5000740D0A0D0A0000005B25735D5B446562EA
:105E600075675D5B25735D2D4C69737432204F70CF
:105E7000740D0A0D0A0000005B25735D5B446562CA
:105E800075675D5B25735D2D4C69737433204F70AE
:105E9000740D0A0D0A0000005B25735D5B446562AA
:105EA00075675D5B25735D2D4C69737434204F708D
:105EB000740D0A0D0A00000070477047002008703A
:105EC00001204870704770477047704770477047AF
:105ED00070477FB5044608F0B5FC4FF47A7148432B
:105EE000B0FBF1F600208DF8000000F071FF050016
:105EF00016D001466A46304600F030FE00280FD129
:105F00009DF8000001280BD1206861682289ADF856
:105F10000C20A27A8DF80E202B46039A00F02DFE5D
:105F20007FBD70477047000070B5F04A0C460546CB
:105F30001146EFA003F060FF2878F84A012803D14A
:105F4000917909B9117911B1117A014300D1107019
:105F50000020207070BD00200870F0480078487064
:105F6000704770B5E14A0E46044615321146ECA062
:105F700003F042FF2078E94C0025012801D0E0B170
:105F80001FE0207AE8B908F05DFC4FF47A714843CD
:105F9000B0FBF1F0606260780121E94A062804D084
:105FA000012805D0042805D00BE06171217102E0C1
:105FB000617100E0A171117003E025716571A57137
:105FC000E571357070BD2DE9F047D44EDC4F0024EB
:105FD00030790D464FF47A784FF4FA79012806D0DB
:105FE0007079012836D0B079012840D052E008F00D
:105FF00029FC4FF47A714843B0FBF8F0716A4FF412
:106000007A72411AB08A5043B1FBF0F200FB1210D1
:10601000484503D801207071387001E074713C70FC
:10602000F078FF2836D008F00DFC4FF47A71484321
:10603000B0FBF8F0716AB28A411AF078401E504302
:1060400000EB4002C2EBC01209EBC200814221D931
:1060500034711FE008F0F6FB4FF47A714843B0FB4F
:10606000F8F0716A401A484514D9747111E008F0CB
:10607000E9FB4FF47A714843B0FBF8F0716A411ABA
:10608000B07800EB4002C2EBC010B1EB800F01D939
:10609000B4713C702C703179687861F3410071798A
:1060A00061F30000B17961F38200F17961F3C3001B
:1060B0006870BDE8F08770B58C4A0D4604462832FA
:1060C0001146A0A003F098FE002028709348217884
:1060D000417061788170A178C170B4F80310818239
:1060E00070BD002008708D4842784A7082788A70AE
:1060F000C278CA70808A8880704770B57B4A0E4625
:1061000004464232114699A003F076FE2078834C73
:106110000025012803D1207908B9A07910B1257292
:10612000357070BD0120207208F08CFB4FF47A713D
:106130004843B0FBF1F0A062F2E770B5774D00265E
:106140000C46287A4870012802D06680267070BDFF
:1061500008F078FB4FF47A714843B0FBF1F0AA6A7B
:10616000801AB0FBF1F06080F0E770B56B4D0C4623
:106170000026697A607861F3000020F00C0040F09E
:1061800002006070A97A012911D108F05BFB4FF47D
:106190007A714843B0FBF1F0E96B401AB0F5FA7F31
:1061A00003D2607840F0100003E0AE72607820F017
:1061B000100000F01F006070E86A44F8030F286BBD
:1061C0006060A86BE060686BA06004F8036C70BD51
:1061D00010B5464A0C46563211466DA003F00CFE2F
:1061E00008F030FB4FF47A714843B0FBF1F14B48B3
:1061F000C163012181720020207010BD70B53B4A3F
:106200000C4605466A3211466AA003F0F5FD434A82
:106210002878D0720020207070BD4048C07A487045
:1062200000200870704770B5304A0D460446813230
:1062300011466AA003F0E0FD2078384900F00F0213
:1062400000090A7348730020287070BD334A4878EB
:10625000137B527B63F3030062F307104870002046
:106260000870704770B5214A0C46054698321146B1
:1062700064A003F0C1FD294A2878907300202070A3
:1062800070BD2648807B487000200870704770B54C
:10629000164A0D460446AC32114663A003F0ACFD2D
:1062A0001E4821680164616841640020287070BD47
:1062B0001A48026CC1F80120406CC1F805000020AA
:1062C0000870704770B5094A0D460446C032114641
:1062D0005EA003F091FD20781049C0F3400200F069
:1062E0000100CA7308740020287070BDA06E0408F5
:1062F0005B25735D5B44656275675D5B25735D2D32
:106300005365742043616D65726120576F726B2015
:106310004D6F64650D0A0D0A00000000E0000020CA
:106320005B25735D5B44656275675D5B25735D2D01
:1063300053686F6F7450686F746F0D0A0D0A000018
:10634000900100205B25735D5B44656275675D5B52
:1063500025735D2D5365742053686F6F7450686F9B
:10636000746F204D6F64650D0A0D0A005B25735D27
:106370005B44656275675D5B25735D2D53657420B5
:106380005265636F7264696E670D0A0D0A00000042
:106390005B25735D5B44656275675D5B25735D2D91
:1063A000466F726D617420536420636172640D0ADC
:1063B0000D0A00005B25735D5B44656275675D5B7C
:1063C00025735D2D536574204D65746572696E6724
:1063D000204D6F64650D0A0D0A0000005B25735D9A
:1063E0005B44656275675D5B25735D2D5365742045
:1063F00053706F74204D65746572696E670D0A0D78
:106400000A0000005B25735D5B44656275675D5B38
:1064100025735D2D53657420466F637573204D6F32
:1064200064650D0A0D0A00005B25735D5B446562BF
:1064300075675D5B25735D2D53657420466F6375CD
:1064400073205A6F6E650D0A0D0A00005B25735D9F
:106450005B44656275675D5B25735D2D53657420D4
:10646000466F63757320417373697374616E742032
:1064700053657474696E670D0A0D0A005D4A4878A9
:10648000D37B127C63F3410062F30000487000206C
:10649000087070475748C08AA1F8010000200870B2
:1064A000704770B5544A0C460546114653A003F098
:1064B000A3FC504A288810830020207015E74D481F
:1064C000008BA1F801000020087070475648C1F801
:1064D000010000200870704770B5474A0C46054619
:1064E0001932114651A003F087FC424A2868906493
:1064F00000202070F9E63F48806CC1F801000020C0
:10650000087070473B48428B21F8012F828B4A80EC
:10651000C08B8880002001F8010C704770B5364AA6
:106520000C460546353211464BA003F065FC314A56
:106530002888108400202070D7E62E4B10B5587C98
:1065400098B118469C7C1A8CC07C012C13D0C0F1E9
:10655000470000EB800010445A8B904200DD10464B
:106560009A8B904200DA10461884188CA1F801002A
:106570000020087010BD00EB80001044A0F26310F2
:10658000EAE770B51B4C0D46208CA18B401A0FF02A
:10659000F2FA00223C4B0FF07FFA00223B4B0FF047
:1065A00062F90FF06FFBE064C5F80100002028706D
:1065B0009BE670B5104A0D4604465632114634A08B
:1065C00003F01AFC0B4A0120507460789074207814
:1065D000D0740020287088E610B5074A0C4678323F
:1065E000114636A003F008FC024A002050742070C7
:1065F00010BD0000E0000020816F04085B25735D82
:106600005B44656275675D5B25735D2D5365742022
:10661000466F6375732052696E672056616C7565AD
:106620000D0A0D0A00000000000040415B25735D6B
:106630005B44656275675D5B25735D2D53657420F2
:106640004469676974616C205A6F6F6D204661639D
:10665000746F720D0A0D0A005B25735D5B44656201
:1066600075675D5B25735D2D5365744F7074696349
:10667000616C5A6F6F6D466F63616C4C656E6774C9
:10668000680D0A0D0A000000000024400000F03FE1
:106690005B25735D5B44656275675D5B25735D2D8E
:1066A000537461727420436F6E74696E756F757385
:1066B000205A6F6F6D0D0A0D0A0000005B25735D97
:1066C0005B44656275675D5B25735D2D53746F7008
:1066D00020436F6E74696E756F7573205A6F6F6D9E
:1066E0000D0A0D0A000000002DE9F047854D0C460B
:1066F00028784870887820F0010088708146B5F9C4
:106700000A000FF038FADFF80082DFF800A24246F4
:1067100053460FF04FF90FF065FAA988084407B205
:10672000AF80B5F90C000FF026FA424653460FF041
:1067300041F90FF057FAE988084406B2EE80B5F93E
:106740000E000FF018FA424653460FF033F90FF0DF
:1067500049FA29894FF0000A084400B22881A5F8B7
:106760000AA0A5F80CA04FF49672A5F80EA09742C7
:1067700000DD17466649AF808F4200DA0F464FF4BE
:10678000E173AF809E4200DD1E46DFF888C1EE80D7
:10679000664500DA66464FF4617CEE80604500DDB8
:1067A00060462881884200DA084628814FF00108B7
:1067B000974201D08F4201D185F803809E4202D0DA
:1067C00016F5E17F01D185F80280604501D088424D
:1067D00001D185F80180EA78494662F3C301AA78BD
:1067E00062F382016A7862F34101A170A4F8037038
:1067F000A4F80560A4F8070084F800A0BDE8F087BD
:1068000070B5454A0C460546114644A003F0F4FA1B
:106810003C4A287810700020207070BD10B53E4AA8
:106820000C461832114646A003F0E6FA354A00201D
:106830009080D0801081207010BD70B5364A0D4612
:1068400004462D32114646A003F0D6FA2D48218881
:10685000418161888181A188C1810020287070BD3B
:106860002DE9F0412C4A0F4604464432114645A01A
:1068700003F0C2FA4E4E206831460EF0C2FF0FF010
:1068800098F9204D3146A88060680EF0BAFF0FF0ED
:1068900090F9E880A06831460EF0B3FF0FF089F957
:1068A000288100203870BDE8F08170B51A4A0D4685
:1068B00004465B3211463FA003F09EFA114821883E
:1068C000018261884182A18881820020287070BD88
:1068D00010B5114A0C467732114642A003F08CFAEB
:1068E0000020207010BD10B50B4A0C4692321146A4
:1068F00048A003F081FA0020207064216170A0702C
:1069000010BD0000300100209A9999999999B93FDA
:106910007CFCFFFF3EFEFFFF3C7004085B25735DBF
:106920005B44656275675D5B25735D2D53657420FF
:1069300047696D62616C204D6F64650D0A0D0A0038
:106940005B25735D5B44656275675D5B25735D2DDB
:1069500052657475726E20486561640D0A0D0A00F7
:106960005B25735D5B44656275675D5B25735D2DBB
:10697000436F6E74726F6C2053706565640D0A0D01
:106980000A0000005B25735D5B44656275675D5BB3
:1069900025735D2D436F6E74726F6C2047696D6255
:1069A000616C20416E676C650D0A0D0A00000000E5
:1069B000000020415B25735D5B44656275675D5B2C
:1069C00025735D2D436F6E74726F6C2047696D6225
:1069D000616C204A6F696E7420416E676C650D0AA8
:1069E0000D0A00005B25735D5B44656275675D5B46
:1069F00025735D2D47696D62616C205374617274FB
:106A00002043616C6962726174696F6E0D0A0D0AD0
:106A1000000000005B25735D5B44656275675D5B2C
:106A200025735D2D47696D62616C20476574204355
:106A3000616C6962726174696F6E2050726F677207
:106A40006573730D0A0D0A0010B5C0B00C46FF291E
:106A50000DD80A46014668460EF078FE0020054A29
:106A60000DF804006B46114603A003F0C5F940B0D1
:106A700010BD0000F47004085B25735D5B44656223
:106A800075675D5B25735D2D52656365697665206D
:106A900066726F6D204F53444B3A2025730D0A0DDB
:106AA0000A0000003FB597B02C21DDE91E5468466E
:106AB0000EF065FE2C210BA80EF061FE0020169052
:106AC000F4B31A984FF47A71281A4843DDF863102A
:106AD000914A014491FBF2F002FB1010002800DA09
:106AE000101AC4F80700081A90FBF2F5BDF85C0014
:106AF000A0F26C7005909DF85E0004909DF85F0018
:106B000003909DF8600002909DF8610001909DF84F
:106B1000620000904FF0FF30089068460EF0C2FD12
:106B2000411C19D0284416900BA916A80EF074FD2C
:106B300030B1109800F26C7020800F98A07000E0C7
:106B40000AE00E98E0700D9820710C9860710B9817
:106B5000A07100201BB030BDFF20FBE73AB1884296
:106B600007D9401AB0F5FA7F03D2012002E00520D0
:106B7000704700201070002070471FB51C460B2284
:106B8000694666480EF0E2FD64486549C46001202C
:106B9000087004B0002010BDF0B5D7B000240F4637
:106BA000054626465494559428214AA856940EF03A
:106BB000E6FD4FF4907102A80EF0E1FD5848007810
:106BC000002877D054A8CDE9007054480FC8FFF7CB
:106BD00069FF01208DF828018DF82961BDF8500169
:106BE000ADF82A019DF852018DF82C019DF8530152
:106BF0008DF82D019DF854018DF82E019DF8550159
:106C00008DF82F01474B9DF856018DF83001DE00BD
:106C1000DDF85701984205D9DDF85721A2F5743205
:106C2000903A0CE09DF8301121B99DF82F21521EA9
:106C30008DF82F21491E8DF830113B494218B24280
:106C400017D83749091D51F82400471C41F8247012
:106C500004EB44074AA901EB470131F8097F60F3CF
:106C60000C070F80487864F347104870C1F8022081
:106C7000641C012CCCDB2948BDF82A11283841803E
:106C80009DF82C1101719DF82D1141719DF82E1167
:106C900081719DF82F11C1719DF830110172C0F8FA
:106CA0000B2002AA4AA9284605F02AFD10B99DF832
:106CB000080010B1FF2057B0F0BD184A00211B4C4E
:106CC00002AB103201EBC100C0EB81101844491C2B
:106CD00010F8105F2570D0F80D50D0F81160556590
:106CE0009665D0F81550D0F81960D5651666D0F8BD
:106CF0001D50D0F821605566966630F8015FA2F805
:106D000048504588A2F84A508088A2F84C000129D2
:106D1000D8DB0120CFE7000040420F00C01900205F
:106D20004801002090D00300B0710B00AF0100209B
:106D3000704700003848016821F0080101603649B9
:106D40000820143108607047334908201431086066
:106D50003148016841F00801016070477FB50121A9
:106D600009200AF0D6FF0824ADF80C4028208DF841
:106D70000F0003208DF80E0003A928480AF0E1FD5A
:106D8000032101200AF091FE00258DF804500094A3
:106D90008DF8054001248DF8064068460AF014FD80
:106DA00009208DF808000B208DF809008DF80A5095
:106DB0008DF80B4002A80AF0C2FB7FBD184801689D
:106DC000012901D000207047002101600120704797
:106DD00013484068704770B508200AF045FD002848
:106DE00018D00F4C0120206007F02CFD4FF47A7171
:106DF00048430D46B0FBF5F0606007F023FD4FF40B
:106E00007A714843B0FBF5F0A060BDE870400820FF
:106E10000AF038BD70BD000000040140000C0140C4
:106E20005401002030B585B0012104200AF071FF23
:106E30000225ADF80C5004208DF80F0003208DF8CA
:106E40000E0003A923480AF07CFD00248DF80440BD
:106E500008208DF80500012120460AF026FE009545
:106E600001258DF8065068460AF0AEFC07208DF823
:106E700008008DF809008DF80A408DF80B5002A823
:106E80000AF05DFB012104A8049407F0F5FD124906
:106E90000860002107F006FE05B030BD0E4810B5B1
:106EA0000021006807F0FEFD08B1002010BD0120A0
:106EB00010BD10B502200AF0D7FC002808D0064803
:106EC000006807F021FEBDE8104002200AF0DABC9D
:106ED00010BD000000080140600100202DE9F84FBE
:106EE00001211C200AF015FF394E0027C6F89071C9
:106EF000DFF8E0904FF00108C9F89081C6F8A08152
:106F000006F5C87602F0AAFD37624FF40060ADF8CE
:106F1000000002248DF8024010258DF803506946C8
:106F20002D480AF00EFDADF80040DFF8B0B08DF846
:106F300002404FF0040A8DF803A0694658460AF053
:106F400000FD8020ADF800008DF802408DF803A010
:106F5000694623480AF0F5FCE001ADF800008DF821
:106F600002408DF8035069461B480AF0EAFCADF870
:106F700000508DF802408DF80350694616480AF01B
:106F8000E0FCADF8005003208DF802008DF80350AE
:106F9000694658460AF0D5FCE002ADF800008DF8CD
:106FA00002408DF8035069460B480AF0CAFC37606E
:106FB000C9F89081C6F8108002F050FD37620121B7
:106FC00008480AF049FD01F09BFCBDE8F88F00007D
:106FD000000021420080214200080140000C0140D5
:106FE000001001400002300008B5FE4C02E00A200B
:106FF00007F077FC20780028F9D0642007F071FCB6
:10700000F94E02216422306807F038FE642007F050
:1070100068FC042400222146306807F02FFE4FF45C
:10702000967A5546504607F05CFC002221463068AF
:1070300007F024FE284607F054FCEC4FEC4D4FF0CF
:107040000008787838B1B87828B1F87818B138796C
:1070500008B1787918BBE74806212970002200683A
:1070600007F00CFE02F0EEFC4FF4FA7007F039FC6A
:1070700002F0F4FC642007F034FCB946DFF878B382
:10708000012457460122CDF8008000231146DBF889
:10709000000008F093F8C00702D002F0DFFC22E005
:1070A00002F0D0FC04210022306807F0E7FD3846EA
:1070B00007F017FC02F0D2FC384607F012FC99F8F2
:1070C0000110484601290CD18178012909D1C178E4
:1070D000012906D10179012903D199F80500012878
:1070E00001D0002CCED1C54F0120395C01B1D22096
:1070F000401CC0B20528F8D9C82802D30420287043
:1071000001E085F80080A9462978BA4D0022286858
:1071100007F0B4FD02F096FC4FF4FA7007F0E1FBC3
:1071200002F09CFC642007F0DCFB00244FF0030B12
:1071300099F80000E8BB04210022306807F09EFDAA
:10714000504607F0CEFB0120395C01B1D220401C33
:10715000C0B20528F8D9C8281AD3022164223068A1
:1071600007F08CFD504607F0BCFB042189F80010A5
:107170000022286807F082FD02F064FC4FF4FA70E8
:1071800007F0AFFB02F06AFC642007F0AAFB0024C2
:1071900099480122CDF8008000231146006808F0CC
:1071A0000DF8C00714D089F800B0594600222868AD
:1071B00000E00DE007F062FD02F044FC4FF4FA70CD
:1071C00007F08FFB02F04AFC642007F08AFB0024E2
:1071D00099F8000004284AD1641CE4B2012C25D09F
:1071E000B4FBFBF10BFB114000B302F037FC082CA1
:1071F00008D302216422306807F040FD642007F0C4
:1072000070FB002404210022306807F037FD50464F
:1072100007F067FB0120395C01B1D220401CC0B2ED
:107220000528F8D9642804D241460EE002F00AFC91
:10723000DDE771480122CDF8008000231146006887
:1072400007F0BCFFC00712D0594689F80010002291
:10725000286807F013FD02F0F5FB4FF4FA7007F011
:1072600040FB02F0FBFB642007F03BFB002499F895
:107270000000052871D1641CE4B2012C4DD0B4FB90
:10728000FBF10BFB1140E0B302F0E8FB082C08D344
:1072900001216422306807F0F1FC642007F021FB33
:1072A000002404210022306807F0E8FC504607F073
:1072B00018FB0120395C012900D0D220401CC0B24B
:1072C0000528F7D964282BD240F6B834204607F0B9
:1072D00008FB204607F005FB204607F002FB0321D0
:1072E0000022306807F0CAFC204607F0FAFA0121B4
:1072F00089F800100022286807F0C0FC02F0A2FB09
:1073000000E00AE04FF4FA7007F0EBFA02F0A6FB97
:10731000642007F0E6FA00241FE002F093FBB5E7D3
:1073200035480122CDF8008000231146006807F09F
:1073300045FFC00711D0022189F8001000222868FB
:1073400007F09CFC02F07EFB4FF4FA7007F0C9FADC
:1073500002F084FB642007F0C4FA99F800000228C8
:1073600052D10224C82007F0BCFA642221463068BA
:1073700007F084FC642007F0B4FA00240421002202
:10738000306807F07BFC504607F0ABFA0120395C0F
:10739000012900D1D220401CC0B20528F7D96428A9
:1073A00000D2DC24641CE4B2322CE7D3C82C01D315
:1073B000414608E002216422306807F05FFC642047
:1073C00007F08FFA042189F800100022286807F0DE
:1073D00055FC02F037FB4FF4FA7007F082FA02F026
:1073E0003DFB0DE0AD0100206C0000209701002066
:1073F000AE010020700000206800002091010020F4
:10740000642007F06EFA002499F80000032851D197
:1074100001216422306807F031FC642007F061FA32
:10742000002404210022306807F028FC504607F0B1
:1074300058FA0120395C01B9D220401CC0B205289D
:10744000F8D9642800D2DC24641CE4B2322CE8D3DE
:10745000C82C14D340F6B834204607F042FA204630
:1074600007F03FFA204607F03CFA0321002230687B
:1074700007F004FC204607F034FA012108E004215B
:107480000022306807F0FAFB504607F02AFA05217F
:1074900089F800100022286807F0F0FB02F0D2FA09
:1074A0004FF4FA7007F01DFA02F0D8FA642007F0E2
:1074B00018FA0024012007F014FA39E608B507F09D
:1074C000C1F9334F334D344E00900A21684607F01E
:1074D00037FD38780028D5F81C0111D00028F4D1E8
:1074E000052007F0FEF9D5F81C010028EDD10F208A
:1074F00007F0F7F9D5F81C010028E6D100242BE0AD
:107500000028E2D1052007F0ECF9D5F81C0100288D
:10751000DBD10F2007F0E5F9D5F81C0170B9012186
:10752000306807F0A4FD09E00A2007F0DAF9D5F881
:107530001C010028F8D03C2007F0D3F9D5F81C0135
:107540000028C2D1F3E70A2007F0CBF9641CE4B2AB
:10755000642C01D3D2240EE0D5F81C010028F2D00F
:1075600009E00A2007F0BDF9D5F81C010028F8D081
:107570003C2007F0B6F9D5F81C010028F4D0C82C3F
:1075800001D3022100E00121306807F070FD9CE783
:10759000AA01002000002242680000200EB500244D
:1075A00001F039FA0A2007F09CF9414E414D0022C2
:1075B0006846316807F08EFBDDE90007102806D029
:1075C000C82007F08EF92878082808D009E001F0D3
:1075D00022FA2F700A2007F084F90024F3E701F063
:1075E00012FC287808B1012816D1A4F10B01092951
:1075F00002D801F0C6FD06E00A2C07D8012800D009
:10760000002001F0FBFC641CE4B205E001F003FA89
:10761000022007F066F9002428780D2802D1012005
:1076200001F0FEFF28780E2802D1022001F0F8FFB9
:1076300028780F2802D1032001F0F2FF28781028C3
:1076400002D1042001F0ECFF2878072801D101F0D5
:1076500011FC2878022801D101F042FC2878032887
:1076600001D101F084FC2878042801D101F084FEC6
:107670002878052801D101F0B7FE2878062801D125
:1076800001F0EAFE2878092801D101F022FF2878CC
:107690000B2802D1002001F08AFF28780C2802D1A3
:1076A000012001F084FF0A2007F01BF97FE70000AA
:1076B000700000208C0100200025DFF8EC90DFF83E
:1076C000ECB03B4FDFF8EC802C46AA4601263A4846
:1076D0000078012817D1394800780128504616D083
:1076E00037498BF80000ABF802000024C1F8A06114
:1076F000344925460978012905D0C8F89861C7F8AA
:10770000B861C7F8BC010A2007F0EBF8DFE72C49A5
:10771000C1F8A0012B496D1CADB20978012909D02F
:10772000322D0DD0642D06D399F80010C8F8986159
:10773000C7F8BC6100259BF800105A4691B126E0BD
:1077400099F80010012908D0032906D0C8F89861DB
:10775000C7F8B861C7F8BC01EDE7C7F8B861C8F869
:107760009801F7E799F80010022910D15188641C9C
:10777000491C89B24FF4FA735180A4B29942C2D91C
:10778000114953800978042904D0062908D0ABF8A0
:10779000020003E0C82CB6D30C4806700024B2E700
:1077A000B4F5967FF8D2AEE7800100206401002096
:1077B0000080214200002242AD010020AE010020E5
:1077C00000002142A9010020AB010020900100200F
:1077D0002DE9F84F002600F07DFEDFF834A4DFF835
:1077E00034B40C218AF800100022DBF8000007F006
:1077F00045FA02F027F94FF4FA7007F072F802F038
:107800002DF9C82007F06DF84FF47A74204607F080
:1078100068F8204607F065F8FF4B0421002218683D
:1078200007F02CFA204607F05CF80024DFF8EC8320
:107830000094234601220321D8F8000007F0BEFC83
:10784000F74DDFF8E093F84FC00705D02E7889F8A0
:1078500000600120387002E03878012857D10921F2
:107860008AF800100022DBF8000007F007FA02F0A7
:10787000E9F84FF4FA7007F034F802F0EFF86420FA
:1078800040E00094002301220321D8F8000007F013
:1078900095FCC10713D099F8000038B1022807D031
:1078A000042807D02E7089F800402AE0022002E068
:1078B000042000E0062089F80000287021E08007FD
:1078C0001FD599F8000020B30B218AF80010002280
:1078D000DBF8000007F0D2F902F0B4F84FF4FA70C8
:1078E00006F0FFFF02F0BAF8642006F0FAFF00F09D
:1078F0000DFEC82006F0F5FF40F6B83006F0F1FFA7
:107900003C700A2006F0EDFF38780128B9D0BDE8B8
:10791000F88FC0480D218AF800100022006807F097
:10792000ADF902F08FF84FF4FA77384606F0D9FF38
:1079300002F094F8642006F0D4FFB74E01216422CF
:10794000306807F09BF9780006F0CBFFDFF8DCB277
:107950000025B146042100224E46D9F8000007F068
:107960008DF9384606F0BDFF01216422306807F02A
:1079700085F9384606F0B5FF9BF801005E46012800
:107980000CD1B078012809D1F078012806D13079DE
:10799000012803D17079012800D1C8256D1CEDB2F2
:1079A000142DD7D340F6B835284606F09AFF28465E
:1079B00006F097FF284606F094FF03210022CB46ED
:1079C000D9F8000007F05AF9284606F08AFF0E2180
:1079D000D1468AF80010DFF83CA20022DAF8000055
:1079E00007F04CF902F02EF84FF4FA7006F079FF28
:1079F00002F034F8642006F074FF002544465F4628
:107A000000200346009001220321206807F0D6FBE6
:107A1000C1070DD005210022386807F02FF902F0C8
:107A200011F8642006F05DFF02F018F8642002E00F
:107A3000800704D40A2006F054FF002DE0D00F2167
:107A400089F800100022DAF8000007F017F901F0B9
:107A5000F9FF4FF4FA75284606F043FF01F0FEFFE8
:107A6000642006F03EFF02216422386807F006F920
:107A7000680006F036FF002404210022386807F071
:107A8000FDF8284606F02DFF02216422386807F031
:107A9000F5F8284606F025FF707840B9B07830B97F
:107AA000F07820B9307910B9707900B9C824641C15
:107AB000E4B2142CE0D34FF4FA6006F012FF102168
:107AC00089F800100022DAF8000007F0D7F801F07A
:107AD000B9FF284606F005FF01F0C0FF642006F05C
:107AE00000FFFBE700F052F8142006F0FAFE4A4CC3
:107AF000042500222946206807F0C0F84FF4967646
:107B0000304606F0EEFE00222946206807F0B6F85F
:107B1000304606F0E6FE00222946206807F0AEF85F
:107B2000304606F0DEFEFFF753FE394807210022FB
:107B300001703848006807F0A1F801F083FF4FF4A6
:107B4000FA74204606F0CDFE01F088FF642006F0AE
:107B5000C8FE642006F0C5FE354A0121204611709A
:107B600006F0BFFE334D344E344F0324287848B915
:107B700031490B31A1F10A0002F0CAFB34703868B8
:107B800006F085FE642006F0ACFEEFE72DE9F04735
:107B90001F480821002201701E48006807F06EF897
:107BA0000A254FF000090124254E264FDFF8988062
:107BB00019E001F047FFC6F8BC41C6F8B841C7F864
:107BC0009891C8F8A091642006F08BFE01F046FF62
:107BD000C7F89841C6F8BC41C6F8B841C8F8A041FA
:107BE000642006F07EFE6D1EADB2E2D201F02AFFE7
:107BF0004FF4FA7006F075FE01F030FF642006F0D5
:107C000070FEC7F89841C6F8B841C6F8BC911DE0AF
:107C1000AE010020700000206C00002068000020F1
:107C2000AB010020AC010020AA010020910100203E
:107C3000AD010020A90100206801002040000020C3
:107C4000008021420000224200002142BDE8F0876E
:107C500008B5002426464FF4FA6006F042FE09F00B
:107C60004CFB00F088FD7E49088009F062FB4FF470
:107C70007A7006F036FE7B4D02E00A2006F031FEF7
:107C800028780028F9D0642006F02BFE0027DFF8C2
:107C9000D891764DDFF8D8A14FF0020BB84699F88D
:107CA000000001280AD085F8018085F800809AF844
:107CB000002000274046012A6DD0CCE01FBB6D4854
:107CC0000078042801D0062819D101202870801ED0
:107CD00000906948012200231146006807F06EFAFF
:107CE000C00710D001F0AEFE4FF4FA7006F0F9FDB7
:107CF00001F0B4FE642006F0F4FD8AF8008085F8F7
:107D000000B085F801B09AF800000127012854D18D
:107D10005A480378F3BB68685949C5E90180088867
:107D2000401C08805749012001F80080401CC0B267
:107D30000528F9D953B9544803210022006806F0F8
:107D40009DFFC82006F0CDFD8AF800803C2006F09B
:107D5000C8FD4D4804210022006806F08FFF022074
:107D600006F0BFFD494901200A5C012A00D0D2205B
:107D7000401CC0B20528F7D964281BD9641CE4B2A2
:107D8000032C18D300244248052189F8001022460C
:107D9000006801E011E05CE006F070FF01F052FEC7
:107DA0004FF4FA7006F09DFD01F058FE642006F0D5
:107DB00098FD00E000248AF800802F480122CDF8C9
:107DC000008000231146006807F0F8F9C00742D090
:107DD0002848007804280ED006280CD085F80180A9
:107DE0002B4885F8008089F800B0594600220068C9
:107DF00006F044FF21E085F80180CEB1244885F8E3
:107E0000008089F800B059460022006806F036FF6D
:107E100001F018FE4FF4FA7006F063FD01F01EFE4B
:107E2000642006F05EFD1B49002681F8008012E008
:107E300018490320287001260E7001F003FE4FF44C
:107E4000FA7006F04EFD01F009FE642006F049FDCF
:107E500001E08AF80000022006F043FD1FE7000061
:107E6000B2010020AD010020AE0100208001002001
:107E700090010020AB01002068000020A901002033
:107E80008E010020A30100206C0000209101002041
:107E90007000002064010020002608B537463546F2
:107EA0004FF6FF7801226946022001F09AFF002870
:107EB00066DD9DF80000402800D101240A2C50D234
:107EC000DFE804F0050608101B212E3B4851E9E7C6
:107ED0000224E7E7A0F13101042942D83038C6B2C4
:107EE0000324DFE7A0F1310101293AD8312802D07B
:107EF00000270424D6E70127FBE73038052830D8CF
:107F000085B20524CEE7A0F13001092929D805EB77
:107F1000850208EA42010844303885B20624C1E7E8
:107F2000A0F1300109291CD805EB850208EA4201BD
:107F30000844303885B20724B4E7A0F1300109299C
:107F40000FD805EB850208EA42010844303885B2B3
:107F50000824A7E73038092803D80B490924885595
:107F6000A0E700249EE72328FBD1074806490C38E8
:107F70008755064820F816500120891F8855F0E7DC
:107F8000012006F0AEFC8DE79D010020EE1A0020D6
:107F900070B54F4C0125C4F89051032004F5C87406
:107FA00006F09FFC4BA1022001F00EFF072006F017
:107FB00098FC002626601E2006F093FC2560032016
:107FC00006F08FFC45A1022001F0FEFE072006F01E
:107FD00088FC26601E2006F084FC2560032006F045
:107FE00080FC40A1022001F0EFFE072006F079FCA2
:107FF00026601E2006F075FC2560032006F071FC4B
:108000003AA1022001F0E0FE072006F06AFC26609B
:108010001E2006F066FC2560032006F062FC35A1F8
:10802000022001F0D1FE072006F05BFC26601E2036
:1080300006F057FC256070BD0EB5304E244D4FF054
:10804000FF3701243A466846316806F043FEDDE911
:1080500000101029F6D10628F4D2DFE800F003045E
:108060000F1A2528EEE7C5F89041032006F039FCE9
:1080700023A1022001F0A8FE22A122E0C5F8904130
:10808000032006F02EFC1EA1022001F09DFE1FA180
:1080900017E0C5F890411AA1022001F095FE1DA13C
:1080A000022001F091FECDE7FFF772FFCAE7C5F8A5
:1080B0009041032006F015FC11A1022001F084FE7E
:1080C00016A1022001F080FE142006F00AFCB9E798
:1080D000008021424031342300000000403234232C
:1080E00000000000403334230000000040343423FB
:1080F0000000000040353423000000006C00002028
:1081000040404000405831230000000040583223D6
:108110000000000040583323000000004058352381
:10812000000000000A2006F0DCFBDFF85090DFF8CA
:108130005080144FDFF850A00124144D0026D8F8C9
:108140000411404671B1C0F8B841C5F8B0613E7045
:108150009AF8000001280ED0C5F89061012006F0C1
:10816000C0FBECE7C5F8B041C9F89841C0F8BC4184
:10817000C0F8B8613C70C5F89041EFE700002242BA
:1081800000802142A9010020B0010020000021420E
:10819000104C114D114E124FDFF8488040F6B8399F
:1081A000114A12A0114601F027FE207868B92878FC
:1081B00003280AD13078012807D0164802F0F7F8D2
:1081C000C0B2012801D1C8F80070484606F089FB0A
:1081D000E6E70000A901002068010020AE010020B0
:1081E0000400FA050CED00E0137104085B25735DD3
:1081F0005B44656275675D5B25735D2D534A5F5413
:1082000041534B2072756E6E696E6720200D0A0D0A
:108210000A0D0A0069010020064C4FF4FA6509F0C6
:108220006CF800F0A8FA208009F083F8284606F0E0
:1082300058FBF4E7B201002070B5C0484026066044
:108240008025056000F073F9BC4C241D266000F009
:108250006EF92560BDE8704000F069B970B5B748A7
:108260004024001D0460B54D8020286000F05FF9B7
:108270002C6070BD2DE9F047DFF8C0920024AF4EAE
:10828000054609F1040980274FF0400828064046BA
:1082900001D5306001E0C9F8000000F048F937600E
:1082A00000F045F9C9F80070072C01D1C6F800802C
:1082B0006806050E00F03BF9641CE4B2082CE5D317
:1082C000BDE8F0872DE9F04700249C4FDFF86C8271
:1082D0002546A8F10808802607F104096006040E67
:1082E0003E6000F024F9D8F80000400601D5641C77
:1082F000E4B2C9F8006000F01AF96D1CEDB2082D67
:10830000ECD32046DCE770B58C4C4020206000F0B8
:108310000EF98025256000F00AF9884808380068C1
:10832000400601D5012400E000248448001D0560BA
:1083300000F0FDF8204670BD2DE9F0417F4E40254C
:10834000361D356000F0F3F8371F80243C6000F0E4
:10835000EEF8346000F0EBF83D60BDE8F08170B5F8
:10836000764D4020286000F0E2F880242C6000F078
:10837000DEF8281D0460BDE8704000F0D8B838B5BC
:1083800004460121042009F0C4FCC021ADF800100E
:1083900003218DF80210142168488DF803106946F6
:1083A000103809F0CEFAFFF759FFFFF745FF2046D6
:1083B000FFF760FFFFF7A7FF0446FFF74FFF2046D8
:1083C00038BD10B5A020FFF7DAFF18B1FFF746FF60
:1083D000002010BD012010BD2DE9F04115460C46CE
:1083E0000746FFF729FFA020FFF744FFFFF78BFFA9
:1083F00068B9E0B2FFF73EFFFFF785FF38B9FFF736
:108400001BFFA120FFF736FFFFF77DFF18B1FFF735
:1084100025FF0020A1E700246E1E0BE0FFF752FFAE
:108420003855B44202D0FFF787FF01E0FFF797FF0E
:10843000641CA4B2AC42F1D3FFF710FF01208CE71B
:108440002DE9F04790460E46814600254FF47A7795
:1084500028E00DB1700716D1FFF700FF0024FFF7E9
:10846000EBFEA020FFF706FFFFF74DFF18B1641CDD
:10847000A4B2BC42F3D3BC420CD0F0B2FFF7FAFE78
:10848000FFF741FF30B919F80500FFF7F3FEFFF7DA
:108490003AFF18B1FFF7E2FE002011E7761C6D1CD1
:1084A000B6B2ADB24545D4D3FFF7D8FE012007E7F9
:1084B00000B5C1B000206A46FF211154401C80B2B3
:1084C000FF28FAD94FF4807200216846FFF7B8FF01
:1084D00041B000BD10B508F010FF0222012118487C
:1084E000FFF77AFF164817490278552A0BD0552214
:1084F0000270022242700A700121FFF7A1FFBDE85D
:10850000104008F016BF40780870F8E710B508F082
:10851000F4FE0B485521022201700A490978417086
:108520000121FFF78DFFBDE8104008F002BF0020D9
:10853000401CC0B20A28FBD370470000100801405D
:10854000B4010020AB01002000BF00BF00BF00BF8E
:1085500000BF00BF00BF00BF00BF00BF00BF00BF23
:1085600000BF00BF00BF00BF00BF00BF00BF00BF13
:1085700000BF00BF00BF00BF00BF00BF00BF00BF03
:1085800000BF00BF00BF00BF00BF00BF00BF00BFF3
:1085900000BF00BF00BF00BF00BF00BF00BF00BFE3
:1085A00000BF00BF00BF00BF00BF00BF00BF00BFD3
:1085B00000BF00BF00BF00BF00BF00BF00BF00BFC3
:1085C00000BF00BF00BF704770B5CA4800240168F3
:1085D00021F070410160016841F080410160C64DA9
:1085E00003E0641CE4B2FFF7AFFFD5F83C0110B123
:1085F000C82CF6D30CE0C82C0AD2002403E0641C7B
:10860000E4B2FFF7A1FFD5F83C0118B1F02C04D378
:10861000012070BDF02CF2D3FAE7002070BD0021DC
:1086200040E000BF00BF00BF00BF00BF00BF00BFF1
:1086300000BF00BF00BF00BF00BF00BF00BF00BF42
:1086400000BF00BF00BF00BF00BF00BF00BF00BF32
:1086500000BF00BF00BF00BF00BF00BF00BF00BF22
:1086600000BF00BF00BF00BF00BF00BF00BF00BF12
:1086700000BF00BF00BF00BF00BF00BF00BF00BF02
:1086800000BF00BF00BF00BF00BF00BF00BF00BFF2
:1086900000BF00BF00BF00BF00BF00BF00BF00BFE2
:1086A00000BF491C8142BCD37047924810B5016895
:1086B00021F070410160016841F0405101608E4C31
:1086C0000020C4F8BC0104F5DE7400F091F801202C
:1086D0002060BDE810400F20A1E738B5012104203B
:1086E00009F017FB4FF40044ADF8004010208DF85E
:1086F0000300804D03208DF802002D1F6946284697
:1087000009F01FF92146284609F085F9FFF7CDFF4A
:10871000FFF75AFF38BD2DE9F0410546754801685D
:1087200021F070410160016841F040510160012475
:10873000714E0027A04615F0010F4FEA5505C6F807
:10874000BC7109D0FFF700FFFFF7FEFEC6F8BC8141
:108750003C20FFF764FF08E03C20FFF760FFC6F80D
:10876000BC81FFF7F1FEFFF7EFFE641CE4B2082CBA
:10877000E1D9BDE8F08170B5FFF797FFFFF724FF5F
:10878000CC20FFF7C8FF4420FFF7C5FFFFF78DFFA0
:10879000FFF71AFFCC20FFF7BEFFBE20FFF7BBFF9D
:1087A00000F06DF8054600F06AF84FF6FF720728F2
:1087B00008D9C043E943C9B202EA002000240844B2
:1087C000401C03E002EA00200124284480B20DF09E
:1087D000E3F90022494B0DF0EDF80DF022FA0A21E1
:1087E00080B2B0FBF1F0002C01D140F4004070BD2C
:1087F00000204FF43A7100BF00BF00BF00BF00BFB0
:1088000000BF00BF00BF00BF00BF00BF00BF00BF70
:1088100000BF00BF00BF00BF00BF00BF00BF00BF60
:1088200000BF00BF00BF00BF00BF00BF00BF00BF50
:1088300000BF00BF00BF00BF00BF00BF00BF00BF40
:1088400000BF00BF00BF00BF00BF00BF00BF00BF30
:1088500000BF00BF00BF00BF00BF00BF00BF00BF20
:1088600000BF00BF00BF00BF00BF00BF00BF00BF10
:1088700000BF00BF00BF401C8842BCD9704770B524
:108880000025012400F00AF8C001641C40EA5500EC
:10889000E4B2C5B2082CF5D9284670BD70B5154CA8
:1088A000206820F070402060206840F04050206038
:1088B000114D0020C5F8BC0105F5DE75FFF744FE3B
:1088C000FFF742FE01202860206820F07040206001
:1088D000206840F0804020600F20FFF7A0FE55F890
:1088E000800C08B1012400E000243C20FFF797FE33
:1088F000204670BD04080140000021420000E43F12
:1089000010B501211C2009F004FA4FF4407008F062
:1089100011FE01F02BF8FFF7E0FE0128FBD000F07C
:10892000BEF901F047F8FFF74CFDBDE8104001F03B
:1089300099BD034901480860704700000400FA052A
:108940000CED00E02DE9F041FE4E054600294FF008
:108950004001304602D009F05EF801E009F05DF810
:108960002021304609F059F800244FF480784FF464
:1089700000773946304609F050F82806414630461F
:1089800002D509F048F801E009F047F839463046C9
:1089900009F041F86806641C050EE4B2082CE8D31F
:1089A0002021304609F037F83046BDE8F04140213B
:1089B00009F031B810B50446B031C8B20021FFF754
:1089C000C1FF102040EA14100021FFF7BBFF04F0A4
:1089D0000F00BDE8104040F001000021B2E710B5E3
:1089E00000218D20FFF7AEFF00211420FFF7AAFF22
:1089F0000021BDE81040AF20A4E710B500218D2074
:108A0000FFF7A0FF00211020FFF79CFF0021BDE829
:108A10001040AE2096E770B5002505F1B000C0B259
:108A20000021FFF78FFF00210220FFF78BFF0021BD
:108A30001020FFF787FF002401210020FFF782FFAD
:108A4000641CE4B2802CF7D36D1CEDB2082DE4D386
:108A500070BD2DE9F041203A00240F468046D5B282
:108A60007F2803D900208F1C8046FFB23946FFF7CC
:108A7000A1FFB54E04EB05100121305CFFF762FF4A
:108A8000641CE4B2082CF5D37F1CF9B24046FFF712
:108A900091FF002404EB051030440121007AFFF718
:108AA00051FF641CE4B2082CF4D3BDE8F081034606
:108AB000012000E05843491EC9B2FBD270472DE99E
:108AC000F0478046002708981D4691468A463C4656
:108AD000460821E0281B401EC1B20A20FFF7E7FF2D
:108AE000B9FBF0F00A21B0FBF1F201FB120027B94B
:108AF000691E8C4201DA30B101273030C2B206FB68
:108B00000480C0B203E006FB0480C0B220225146BC
:108B1000FFF79FFF641CE4B2AC42DBD3BDE8F087F3
:108B20002DE9F04117460E46044600250CE031467B
:108B30002046FFF78EFF0834E4B2782C02D90024D7
:108B4000B61CF6B26D1CEDB27A5D002AEFD1ACE72F
:108B50002DE9F04117460E46044600250CE031464B
:108B6000204600F0C4FE0834E4B2782C02D9002478
:108B7000B61CF6B26D1CEDB27A5D002AEFD194E717
:108B80002DE9F04115460E460746FFF713FF6F48E3
:108B9000002400EB85150121285DFFF7D3FE641C3E
:108BA000E4B2102CF7D3761CF1B23846FFF702FF7F
:108BB00000242819012190F82000FFF7C3FE641C4F
:108BC000E4B2102CF5D370E72DE9F04115460E46BE
:108BD0000746FFF7EFFE5E48002400EB85150121F4
:108BE000285DFFF7AFFE641CE4B2102CF7D3761CAF
:108BF000F1B23846FFF7DEFE00242819012190F873
:108C00002000FFF79FFE641CE4B2102CF5D34CE764
:108C10002DE9F04115460E460746FFF7CBFE4C48BE
:108C2000002400EB85150121285DC043C0B2FFF789
:108C300089FE641CE4B2102CF5D3761CF1B23846E0
:108C4000FFF7B8FE00242819012190F82000C04346
:108C5000C0B2FFF777FE641CE4B2102CF3D324E714
:108C60002DE9F0471F4690460E4682460025DDF866
:108C7000209011E031465046FFF79CFE544607E035
:108C800019F8050001216D1CFFF75CFE641CE4B2BD
:108C90004445F5D3761CF6B2BE42EBD33EE738B579
:108CA0000121082009F035F84FF47874ADF8004040
:108CB00010208DF803000320224D8DF80200694634
:108CC000284608F03EFE2146284608F0A4FE8021F2
:108CD000284608F0A0FE00F03BFE8021284608F060
:108CE0009CFE00F035FE8021284608F094FE00210D
:108CF000AE20FFF727FE00210220FFF723FE002110
:108D00001020FFF71FFE00214020FFF71BFE00216F
:108D10008120FFF717FE0021CF20FFF713FE00216F
:108D2000A120FFF70FFE0021C820FFF70BFE002156
:108D3000A620FFF707FE0021A820FFF703FE002171
:108D40003F2007E0000C01401B7104080B7704086A
:108D50004B790408FFF7F6FD00218120FFF7F2FDB3
:108D60000021FF20FFF7EEFD0021D320FFF7EAFDF1
:108D700000210846FFF7E6FD0021D520FFF7E2FDC0
:108D800000218020FFF7DEFD0021D920FFF7DAFD6A
:108D90000021F120FFF7D6FD0021DA20FFF7D2FDF8
:108DA00000211220FFF7CEFD0021DB20FFF7CAFDD6
:108DB00000214020FFF7C6FD00212020FFF7C2FD63
:108DC00000210220FFF7BEFD00218D20FFF7BAFD34
:108DD00000211420FFF7B6FD0021A420FFF7B2FD0B
:108DE0000021A620FFF7AEFD0021AF20FFF7AAFD6E
:108DF0000021AF20FFF7A6FDFFF70DFE002108467A
:108E0000FFF7D8FD38BD38B5F648046800210122C7
:108E10000846FFF7B5FE022200211220FFF7B0FE40
:108E2000032200212420FFF7ABFE0422002136207C
:108E3000FFF7A6FE052200214820FFF7A1FEEA4A1F
:108E400000215F20FFF76CFEE848009007235022C6
:108E500002213020FFF704FFE5A206210520FFF7DD
:108E60005FFE1020009022460A2306211E20FFF7F5
:108E700026FE38BD70B50D2202210020FFF7A4FEAA
:108E80000E2202211220FFF79FFE0F220221242032
:108E9000FFF79AFE102202213620FFF795FE1122DD
:108EA00002214820FFF790FECF4C641F207828B1A4
:108EB000012805D0002502280BD00FE0CDA200E04C
:108EC000CDA202215A20FFF72BFE2078401C2070F3
:108ED00070BDCAA202215A20FFF722FE257070BD84
:108EE00070B5062202210020FFF76EFE012202214A
:108EF0001220FFF769FE052202212420FFF764FEFD
:108F0000BF48B94D002400786D1F012806D068784D
:108F100008B3012821D0022823D01AE0B9A20221E7
:108F20003820FFF7FDFD687820B1012804D0022821
:108F30000BD00EE0AFA200E0AFA202215220FFF75B
:108F4000EFFD6878401C687070BD0221ABA2522012
:108F50000AE06C7070BDACA200E0AEA20221362027
:108F6000EDE7AFA202213620FFF7DAFDF1E770B599
:108F7000022211460020FFF727FE012202211220C3
:108F8000FFF722FE052202212420FFF71DFE9C4848
:108F9000954D002400786D1F012806D0A87808B3ED
:108FA000012821D0022823D01AE096A202213820DD
:108FB000FFF7B6FDA87820B1012804D002280BD015
:108FC0000EE08CA200E08CA202215220FFF7A8FD47
:108FD000A878401CA87070BD022188A252200AE027
:108FE000AC7070BD88A200E08AA202213620EDE7B5
:108FF0008BA202213620FFF793FDF1E72DE9F8431C
:1090000040B18A480078012806D002280BD00328F6
:1090100010D019E0062207E0002121220846FFF7C0
:10902000D3FD02220CE0022200210846FFF7CCFD0E
:10903000012205E0002121220846FFF7C5FD062296
:1090400000211220FFF7C0FD6D48674C0025007815
:10905000641F01281DD0E57075A200212620FFF7AE
:109060005FFD75481024754E0288754FB2F5004FAC
:10907000009423D3804622F4004202230021602082
:10908000FFF71DFD3570B8F8000000F5004038808E
:1090900023E0E07870B101280ED06AA200212620DA
:1090A000FFF73EFDE078401CC0B2E0700328D8D145
:1090B000E570D6E766A2F1E768A2EFE780460223F3
:1090C00000216020FFF7FBFCB8F8000038801E2864
:1090D00002D30120307000E035701422002170208E
:1090E000FFF772FD6048007802281BD004281BD0CF
:1090F0005EA202210020FFF713FD614800940223C5
:10910000027819466220FFF7DAFC5EA204210020F3
:10911000FFF706FD60484FF47A760288B24205D325
:1091200004230CE05DA2E4E761A2E2E7642A01D334
:10913000032304E00A2A01D3022300E001230421CF
:1091400029205B1C0094FFF7BAFC5EA206210020D8
:10915000FFF7E6FC60484288B24201D3042308E0EE
:10916000642A01D3032304E00A2A01D3022300E086
:109170000123062129205B1C0094FFF7A0FCBDE819
:10918000F883F8B5002155A20846FFF7C9FC524CF8
:109190004FF47A77A288BA4201D3042308E0642A04
:1091A00001D3032304E00A2A01D3022300E00123B0
:1091B0001026002129205B1C0096FFF780FC4CA2A2
:1091C00002210020FFF7ACFCE288BA4201D304235D
:1091D00099E0642A01D3032395E00A2A01D30223EC
:1091E00091E08FE0E8F7FF1FC1010020CB78040871
:1091F00049443A002E2020002E2E20002E2E2E0034
:10920000A9010020555342002E202020202020209C
:10921000000000002E2E2020202020200000000032
:109220002E2E2E2020202020000000008001002073
:109230002020202020200000B2010020B0010020CA
:10924000000000205553422E2E2E2020200000002A
:109250005553422E20202020200000005553422E3E
:109260002E20202020000000AB0100204155544F4B
:109270003D33732052544B3D20202020000000003D
:10928000AF010020503A2020202020202020202044
:1092900020202020000000008E0100205349474E6E
:1092A000414C202052544B3D202020200000000043
:1092B0004155544F3D32732052544B3D20202020C5
:1092C00000000000504943313A2020202020202077
:1092D0002020202000000000EE1A002050494332D8
:1092E0003A202020202020202020202020000000C4
:1092F000504943333A2020202020202020202020C5
:10930000000000000123022129205B1C0096FFF7CA
:10931000D6FBFBA204210020FFF702FC2289BA42FF
:1093200001D3042308E0642A01D3032304E00A2ABA
:1093300001D3022300E00123042129205B1C0096B5
:10934000FFF7BDFBF2A206210020FFF7E9FB6289CF
:10935000BA4201D3042308E0642A01D3032304E0C2
:109360000A2A01D3022300E00123062129205B1CE5
:109370000096FFF7A4FBF8BD70B5EA480078012815
:109380002BD0E9A200210846FFF7CAFB06220221E2
:109390000020FFF719FC012202211220FFF714FC24
:1093A000052202212420FFF70FFCE0A20421002067
:1093B000FFF7B6FBE04D0124285D01284FEA0410B9
:1093C000A0F11000C0B20BD020220621FFF741FB14
:1093D000641CE4B2052CEFD970BDAFF2D812D1E70E
:1093E00004F13001CAB2F0E770B5CE480078012828
:1093F0002BD0CDA200210846FFF792FB0222114696
:109400000020FFF7E1FB012202211220FFF7DCFB25
:10941000052202212420FFF7D7FBC8A20421002047
:10942000FFF77EFBC44D0124285D00284FEA04109D
:10943000A0F11000C0B20BD020220621FFF709FBDB
:10944000641CE4B2052CEFD970BDAFF24822D1E71D
:1094500004F13001CAB2F0E770B5B24800780128D3
:1094600030D0B1A200210846FFF75AFB00220221AA
:109470001046FFF7A9FB012202211220FFF7A4FBEF
:10948000122202212420FFF79FFB13220221362003
:10949000FFF79AFBABA204210020FFF741FBAB4D85
:1094A0000124285D00284FEA0410A0F11000C0B28A
:1094B0000BD020220621FFF7CCFA641CE4B2052C65
:1094C000EFD970BDAFF2C422CCE704F13001CAB2CB
:1094D000F0E710B59E4C4FF000014FF007022078E6
:1094E000002808461BD0FFF793FB0822002112201A
:1094F000FFF78EFB092200212420FFF789FB0A22B7
:1095000000213620FFF784FB152200215C20FFF7A5
:109510005BFB162200216E20FFF756FB1AE0FFF7D7
:1095200053FB082200211220FFF74EFB09220021E5
:109530002420FFF749FB0A2200213620FFF744FBD5
:10954000152200215C20FFF763FB162200216E200C
:10955000FFF75EFB2078022816D07EA202210020B1
:10956000FFF7DEFA2078042814D07DA20421002021
:10957000FFF7D6FA2078062812D00621BDE8104061
:109580007AA20020FFF7CCBA7BA202210020FFF7CD
:10959000DFFAE7E77BA204210020FFF7D9FAE9E729
:1095A0000621BDE810407AA20020FFF7D1BA10B51D
:1095B000012820D0072200211220FFF705FB0822F6
:1095C00000212420FFF700FB032200213620FFF7B3
:1095D000FBFA042200214820FFF7F6FA6F480078D2
:1095E000022819D0042819D060A20221BDE8104039
:1095F0000020FFF7ADBA0B2200211220FFF7E4FA9A
:109600000C2200212420FFF7DFFA07220021362058
:10961000FFF7DAFA0822DDE757A2E6E750A2E4E70F
:109620002DE9F0410646152200211220FFF7CCFA61
:10963000162200212420FFF7C7FA09220021362034
:10964000FFF7C2FA0A2200214820FFF7BDFA032ED5
:109650001BD80124DFF8E0801C2718F8040001283B
:1096600004F13000C2B204EB440007EB8005E8B21D
:1096700040D00421FFF7EDF9E8B220220221FFF7E4
:10968000E8F9641CE4B2052CE7D90024444D012E0E
:1096900031D0022E30D0032E2FD0042E2ED11A22FC
:1096A00002210020FFF790FA1B2202211220FFF76F
:1096B0008BFA1C2202212420FFF786FA1D220221A8
:1096C0003620FFF781FA1E2202214820FFF77CFA9C
:1096D0001F2202215A20FFF777FA202202216C2054
:1096E000FFF772FA2879002879D0012878D002286B
:1096F00077D08AE056E05CE089E0BCE07EE00000E4
:10970000504943343A2020202020202020200000EF
:10971000504943353A20202020202020202020209E
:1097200000000000A90100202020200057524F4EC9
:10973000473A2020000000009101002057524F4E70
:10974000472020004C4F53453A202000970100202D
:10975000AC010020534947414E4C2020200000001E
:109760004155544F20325320202000004155544F82
:1097700020335320202000005349474E414C2020E5
:10978000200000004155544F20325320200000009B
:109790004155544F2033532020000000AB010020DE
:1097A000BC0100200221FFF754F92022E8B2042175
:1097B00065E7022211460020FFF72AFA0122022162
:1097C0001220FFF725FA062204210020FFF7FCF9FA
:1097D000012204211220FFF7F7F9022260E077E06E
:1097E00079E07DE0012870D002280ED108E0062142
:1097F0003620FFF795F92879401C2871BDE8F081E3
:10980000AFF2E452062136206EE02C71F6E7022218
:1098100011460020FFF7D8F9012202211220FFF79C
:10982000D3F9062204210020FFF7CEF901220421FA
:109830001220FFF7C9F9182206210020FFF7C4F90A
:10984000192206211020FFF7BFF943A2062120208C
:10985000FFF766F9172206213820FFF7B5F919221C
:1098600006214820FFF7B0F9BDE8F04106213BA2F0
:109870005820FFF755B9022211460020FFF7A4F93E
:10988000012202211220FFF79FF906220421002065
:10989000FFF7BEF9012204211220FFF7B9F90622D1
:1098A00006210020FFF790F9012206211220FFF780
:1098B0008BF9052206212420FFF786F92879002854
:1098C00090D1AFF2BC6292E7FFE7AFF2B8628EE7E9
:1098D000AFF2CC6201E0AFF2C4620421002088E75D
:1098E000AFF2C46204210020FFF71AF98DE72DE9D9
:1098F000F041203A00240F468046D5B27F2803D994
:1099000000208F1C8046FFB23946FFF753F8154EF2
:1099100004EB05100121305CC043C0B2FFF712F820
:10992000641CE4B2082CF3D37F1CF9B24046FFF765
:1099300041F8002404EB051030440121007AC043B3
:10994000C0B2FEF7FFFF641CE4B2082CF2D355E767
:109950000548401EFDD270473D4F4B003D4E4558D7
:10996000540000001B71040840420F0038B501216B
:10997000182008F0CEF94FF44040ADF80000032560
:109980008DF8025010248DF803406946074807F00F
:10999000D8FF4020ADF800008DF802508DF803404C
:1099A0006946034807F0CDFF38BD0000000C0140B8
:1099B0000010014030B50121CC0289B0204608F0EA
:1099C000A8F90121042008F0A4F9ADF81C401820E2
:1099D0008DF81F0003208DF81E0007A9254807F009
:1099E000B0FFF920ADF814004720ADF810000024B6
:1099F000214DADF81640ADF8124004A9284608F0F4
:109A000045FB7021ADF800100120ADF802007C206C
:109A1000ADF80600ADF808406946284608F01AFC83
:109A20000821284608F0D8FE0121284608F08CFEBF
:109A30000021284608F0DCFD0021284608F0CEFD74
:109A400009B030BD10B50C4C0121204608F0D0FD06
:109A50002046BDE81040012108F0C0BD10B5064CFD
:109A60000021204608F0C4FD2046BDE8104000213A
:109A700008F0B4BD00080140002C01402DE9F04F72
:109A8000002503260427DFF818B485B00C464FF0F4
:109A900001094FF018084FF00C0A01285CD0022889
:109AA0007DD0032855D1FF49FA01A1F1180000F03B
:109AB00089FAFD49FA01A1F5037000F083FA01214A
:109AC000082008F026F90121880408F02BF98DF808
:109AD00003808DF802603802DFF8D083ADF8000013
:109AE0006946404607F02DFF8DF803707802ADF807
:109AF00000006946404607F024FF27208DF800004B
:109B00008DF801608DF802508DF80390684607F0DB
:109B100016FD0094E64CADF80450ADF80850ADF8D1
:109B20000650ADF80C50ADF80AA06946204608F082
:109B3000BDFF0121204609F02CF8012240F22551F9
:109B4000204609F030F804A8049504F02FFFCBF864
:109B50000C0005B0BDE8F08FD6494FF40072A1F1BA
:109B6000180000F02FFAD4494FF40072A1F50370E9
:109B700000F028FA0121042008F0CBF80121880325
:109B800008F0C7F88DF803808DF802604FF400707C
:109B9000DFF82883ADF800006946404600E038E071
:109BA00007F0CFFE8DF803704FF48060ADF8000031
:109BB0006946404607F0C5FE25208DF800008DF867
:109BC00001608DF802508DF80390684607F0B7FCED
:109BD0000094BB4CADF80450ADF80850ADF80650F9
:109BE000ADF80C50ADF80AA06946204608F05EFFBB
:109BF0000121204608F0CDFF012240F225512046E8
:109C000008F0D1FF04A8049504F0D0FECBF80400BE
:109C10009FE7AC494FF40072A1F1180000F0D2F9AF
:109C2000A9494FF40072A1F5037000F0CBF90121AE
:109C3000042008F06EF80121480408F073F88DF84C
:109C40000380DFF878828DF80260ADF80070694615
:109C5000404607F076FE8DF803700820ADF800004E
:109C60006946404607F06DFE26208DF800008DF80D
:109C700001608DF802508DF80390684607F05FFC94
:109C80000094924CADF80450ADF80850ADF8065071
:109C9000ADF80C50ADF80AA06946204608F006FF62
:109CA0000121204608F075FF012240F2255120468F
:109CB00008F079FF04A8049504F078FECBF80800BA
:109CC00047E770B50E46764C15464FF0FF31012838
:109CD00005D002280FD003281CD0084670BD60684C
:109CE00004F067FE73482A463146183800F0A2F99E
:109CF000054660680AE0A06804F05BFE71482A46E9
:109D00003146183800F096F90546A06804F083FE45
:109D1000284670BDE06804F04CFE62482A46314691
:109D2000183800F087F90546E068EFE72DE9F041C3
:109D30000F465B4C164640F227754FF0FF31012865
:109D400006D0022815D0032827D00846BDE8F081A8
:109D5000606804F02EFE5748324639460C3800F051
:109D600044F9064601222946554808F01CFF606860
:109D70000FE0A06804F01DFE5248324639460C3808
:109D800000F033F9064601222946504808F00BFF3F
:109D9000A06804F040FE3046D8E7E06804F009FE11
:109DA0004048324639460C3800F01FF90646012279
:109DB00029463F4808F0F7FEE068EAE713B501A935
:109DC0000122FFF7B3FF1CBD70B505460C460846DF
:109DD0000BF0ECFC401C82B221462846BDE87040E6
:109DE000A4E76EE710B54FF4E1210120FFF746FE2E
:109DF0002B490120087010BD0FB4294800B5007828
:109E0000C1B000280ED043ABFF216846429A0CF047
:109E10004BF968460BF0CAFC401C82B2694601202F
:109E2000FFF784FF41B05DF814FB38B5244C40F2D5
:109E30002551204608F06EFF50B1204608F003FF80
:109E40008DF800001B4801226946183800F0CDF853
:109E500040F227752946204608F05CFF88B1154876
:109E6000012269460C3800F0E5F828B19DF8001091
:109E7000204608F0E4FE04E000222946204608F0CF
:109E800092FE0821204608F03BFF012806D1082158
:109E9000204608F03CFF204608F0D5FE38BD000003
:109EA000C80100204423002044250020000C01406C
:109EB00000480040141B0020141D00200008014031
:109EC000003801402C1F00202C21002000440040BD
:109ED00038B5384C40F22551204608F01BFF48B1F8
:109EE000204608F0B0FE8DF8000001226946324895
:109EF00000F07BF840F227752946204608F00AFF5B
:109F000088B12D48012269460C3000F093F828B141
:109F10009DF80010204608F092FE04E00022294639
:109F2000204608F040FE0821204608F0E9FE0128FE
:109F3000B4D10821204608F0EAFE204608F083FE4E
:109F4000ACE738B51D4C40F22551204608F0E2FE42
:109F500048B1204608F077FE8DF8000001226946DE
:109F6000174800F042F840F227752946204608F0CD
:109F7000D1FE88B11248012269460C3000F05AF82F
:109F800028B19DF80010204608F059FE04E0002298
:109F90002946204608F007FE0821204608F0B0FEBA
:109FA000012806D10821204608F0B1FE204608F01D
:109FB0004AFE73E700440040141F002000480040A0
:109FC0002C2300200023C38003810160511E0A421C
:109FD00009D0002122FA01F3491C89B2012BF9D1E1
:109FE0000122491E8A40828070472DE9F0410446D3
:109FF0000F4680882189E588431A2B449DB29542FB
:10A0000000D91546421E1140401A86B2AE4200D910
:10A010002E4620683246084439460BF097FBAA1BAF
:10A02000B91920680BF092FB20892844208128462A
:10A03000BDE8F0812DE9F0410F4604460189C08852
:10A04000091A8DB2954200D91546A1884A1E1040C2
:10A05000091A8EB2AE4200D92E462168324601441A
:10A0600038460BF073FBAA1BB81921680BF06EFB86
:10A07000E0882844E0802846DAE781880289C088A1
:10A08000891A084480B2704710B5002247F2305454
:10A0900004E02146491EFDD2521C92B28242F8D3FE
:10A0A00010BD0122D9A1002009F0FABE2DE9F04728
:10A0B0000024824625465146D5480AF035FA30B18B
:10A0C00050460AF0C2FB0120FFF7DEFFF3E7D14E56
:10A0D000CF4FD149307928374FF0000930B1884649
:10A0E000CB49CB4828310AF05CFAB8B186F8049025
:10A0F000F3685246C9A1C8485B1C0BF0C1FF13228C
:10A10000C549C94809F0F1FE707100284FD1C64811
:10A1100001690AF067F9BF4828301DE0787B002804
:10A12000E4D0387B202804D012E04855641C6D1C14
:10A1300000E041463819407B2E28F6D108F80590FA
:10A14000B5480BF051FBB060F168884200DBF0606D
:10A1500000242546C4E7641C015D0029FBD130784A
:10A1600001280ED1AB48F0300BF020FBA94B024682
:10A17000103303F1E001AC480AF00AF870710220D4
:10A180003070A44B2246103303F11801A64809F0A1
:10A19000FFFF707118B10220FFF776FFF1E7F0883A
:10A1A000401CF080BDE8F0479F480AF00DB9BDE8BB
:10A1B000F08710B5012295A19C4809F071FE954CDD
:10A1C0000D28607108D0002819D06078401C60709C
:10A1D000BDE81040012057E7002211468BA00AF08D
:10A1E000BBFC60710028F0D1012288A109F058FE63
:10A1F0006071012285A18D4809F052FE607110BD89
:10A200002DE9F041834E844A0020B178143205468E
:10A21000012909D002F5C873195C79B11154401CA9
:10A22000C0B2B928F8D30CE07B4BDC33195C29B100
:10A230001154401CC0B2B928F8D302E01554401C98
:10A24000C0B2754C401EC0B21434F070B4285DD852
:10A2500007F053F8FFF7ADFF07F06BF8F0884FF405
:10A260007A72B0FBF2F36B49303328310B70B0FBDC
:10A27000F2F302FB13076423B7FBF3F730374F7099
:10A28000B0FBF2F702FB1707B7FBF3FC03FB1C7CE8
:10A290000A27BCFBF7FC0CF1300C81F802C0B0FBC4
:10A2A000F2FC02FB1C00B0FBF3F203FB1200B0FB5C
:10A2B000F7F207FB12003030C8702C200871F378D9
:10A2C00005205A1D04E014F8016B0E54401CC0B266
:10A2D0009042F8D3C8180D2242718771C57107F0FA
:10A2E0000CF84C481430FFF7E1FE0220FFF7CCFEDB
:10A2F000FFF7D7FE0120FFF7C7FEFFF7D2FE0120D0
:10A30000FFF7C2FEBDE8F04107F013B8BDE8F081E9
:10A3100030B585B00D460446142168460BF02FFA7F
:10A3200006F0EBFFFFF745FF07F003F806F0E5FF47
:10A33000214637480AF0F8F830B120460AF085FA8D
:10A340000120FFF7A1FEF3E72B46224638A168461D
:10A350000BF096FE13226946334809F0C6FD2D4CDA
:10A36000607198B9002130480AF03CF8294B052269
:10A37000103331492C4809F00BFF607118B10220ED
:10A38000FFF782FEF2E728480AF01EF820480AF09C
:10A39000FFF8FFF786FE0120FFF776FEFFF781FE4C
:10A3A0000120FFF771FE06F0C4FF05B030BD10B507
:10A3B000044606F0A2FFFFF7FCFE06F0BAFF2146B6
:10A3C00013480AF0B1F8A0B1174809F0FDFF104892
:10A3D0000AF0DEF806F091FFFFF763FE0120FFF7B9
:10A3E00053FEFFF75EFE0120FFF74EFE06F0A1FFD1
:10A3F00007E0012211490C4809F077FD0549487131
:10A4000008B1002010BD012010BD0000303A00004E
:10A41000104A0020D80100204427002025732F2552
:10A42000642E747874000000E8390020B029002000
:10A4300025732F2573000000C10100204003002078
:10A44000FE48FF490068B0FBF1F0FE49C0B200EBE6
:10A4500040024870C2EBC0104FF6FF7202EAC00023
:10A460004880704738B5002007F0CBFC002007F08B
:10A47000CCFC07F09DFC00214FF4806007F040FC0D
:10A480004FF4F850ADF8000004248DF803406946FD
:10A49000ED4807F056FAADF800406946EB4807F082
:10A4A00050FAFFF7CDFF38BD70B504468CB00E46AC
:10A4B000E74807F054F9E74D0021284607F029F94D
:10A4C000E548CDE900040020B108CDE90201802172
:10A4D000CDE90401890006918900CDE907108900C2
:10A4E000CDE909106946284607F0E9F80121284618
:10A4F00007F00FF90CB070BD70B504468CB00D4676
:10A50000D34807F02CF9D34E0021304607F001F96B
:10A51000D148CDE9000410200290A8080390002043
:10A520008021CDE90401890006918900CDE9071059
:10A530008900CDE909106946304607F0C0F80121CD
:10A54000304607F0E6F8D5E72DE9FC5F0024C34F5D
:10A5500000944FF4806801944025C7F81080C7E943
:10A5600002540E464FF0080B1021C7E900B1A14676
:10A57000384607F064FC102001F06AF8002851D139
:10A58000B048AA464D460089000438603720C7E924
:10A59000010AC7E90398384607F051FC372001F05B
:10A5A00057F800283ED1411E07F11400C0E9001BF6
:10A5B000302181600221C0E903150121416107F0CA
:10A5C00061FC3320C7F808A0C7E90050C7E9035869
:10A5D000384607F034FC332001F03AF8050021D169
:10A5E000DFF874824FF4001A6F46A8F1800840F239
:10A5F0002A69D8F8340010EA090F0BD1504607F049
:10A600008EFC0028F5D007F05DFC47F82400641CA0
:10A61000012CEED9082007F082FC28B1082007F0B1
:10A6200086FC0420BDE8FC9F022007F078FC20B1E6
:10A63000022007F07CFC0220F4E7202007F06FFCEA
:10A6400020B1202007F073FC0620EBE74FF40074E4
:10A65000204607F064FC20B1204607F068FC072084
:10A66000E0E740F2FF5007F062FC009800BA70602B
:10A67000019800BA30602846D4E72DE9FC47002451
:10A68000814600942046019407F0F5FB800102D535
:10A690000E20BDE8FC876B4D6946288980B2FFF724
:10A6A00053FF0028F5D137206C4E01994FF0060A70
:10A6B0004FF040084FF48067B9F1010F1ED0C90375
:10A6C00034D52989C6F808800904C6E90010C6E90E
:10A6D0000347304607F0B3FB372000F0B9FF0028EE
:10A6E000D7D1C6F80880C6E9004AC6E903475B48E7
:10A6F00007F0A5FB062000F0ABFFCAE7490315D51C
:10A700002989C6F808800904C6E90010C6E903478C
:10A71000524807F094FB372000F09AFF0028B8D188
:10A720000220C6F80880C6E9000ADEE72520B0E767
:10A730002DE9F0410146434800244068032815D024
:10A7400018B1012801D0022828D1B1F5805F0DD0C1
:10A75000424D4FF4006800260227183D41450ED1B6
:10A760000120FFF78AFF040003D017E02720BDE88F
:10A77000F0812F752E606E60C5E9026809E0002047
:10A78000FFF77BFF040009D12F752E606E60AE606D
:10A79000EE6032482E61183807F017FB2046E6E7D6
:10A7A0002E4910B5086007204860402088600020CE
:10A7B000C8604FF480600861084607F040FBBDE8C0
:10A7C0001040072000F044BF2DE9F0431D49DFF899
:10A7D0008C904F6880F856700989A9F1A009A0F8FB
:10A7E0005410D9F800100A0E94090470C2F38304BF
:10A7F000447002F0030282700A0CC2700A0A0271ED
:10A800004171D9F80430190E0901C180C288C3F31F
:10A81000074142EA1112C28001F00F010172C3F335
:10A820000721CA094272C1F380128272C1F3401239
:10A83000C272C1F300120273002511E0EC07002080
:10A8400000127A005403002000100140001401405F
:10A8500000F000104404024080800140004B0020C2
:10A8600045734A464FF001089268140EC2F307463A
:10A87000C2F3072C27B1012F02D0022F39D04EE0AE
:10A880008907090D0161D9B2036943EA81010161B8
:10A89000016941EA94110161C4F3C201017504F038
:10A8A0000701417571098175C6F38201C175B10750
:10A8B000490F0176037E614643EAD11303760469AA
:10A8C000067EB61C08FA06F3DF17641CA4FB036CB3
:10A8D00005FB03C304FB0734077A08FA07F3A6FB5A
:10A8E000037C036504FB03C306FB0533C0E9127355
:10A8F00015E09906890A0161016941EA04210161B3
:10A90000016931430161036961465B1CEC0444EA5F
:10A910005334DB04C0E912344FF400730365C1F310
:10A92000801343768906490E00F81A1FD1B20278C7
:10A9300042EAD11200F8012B01F07F0100F8011B5F
:10A94000D9F80C20110ECB0900F8013BC1F34113DB
:10A9500000F8013BC1F3820300F8013B8907090FAE
:10A9600001700378C2F3074143EA911300F8013BF9
:10A97000C1F340130370457001F001018170C2F30F
:10A980000721CB09C370C1F380130371C1F34013D6
:10A990004371C1F300138371C1F38103C37101F0EB
:10A9A00003010172C2F34601417280F80A80FE4A37
:10A9B00011680B0E03730B0C1B02C381C489C1F316
:10A9C00007231C43C48109060161516804690B0E09
:10A9D00044EA034303610469C1F3074344EA0323E0
:10A9E00003610469C1F307231C4304610175916885
:10A9F0000B0E43750B0C1B0683618469C1F307239F
:10AA000044EA034383618369C9B243EA0121816156
:10AA1000D168836943EA11638361037FC1F307420D
:10AA200043EA121303771207120DC283C38BC1F3DB
:10AA300007221343C383C1F3460180F8201080F836
:10AA400021802846BDE8F08310B5D84A0024516B18
:10AA500011F0450FFBD0480702D50324042003E082
:10AA6000C80705D00124204607F061FA204610BD32
:10AA700040F2FF50F8E72DE9F84F01200024ADF82F
:10AA8000000007F0CBF9A8B3DFF82493D9F804004D
:10AA900004286AD0C44D4FF0C00A90350026022029
:10AAA000C5F808A0C5E900604FF48068C5E90368EF
:10AAB000284607F0C4F9FFF7C7FF04001CD107F0D0
:10AAC000DAF9B94F3860042007F0D5F9786008202A
:10AAD00007F0D1F9B8600C2007F0CDF9F860D9F88B
