:020000040800F2
:1000000068A30020DD010008211B0008231B000855
:10001000251B0008271B0008291B00080000000002
:100020000000000000000000000000004501000882
:100030002B1B000800000000890100082D1B000890
:10004000F7010008F7010008F7010008F7010008B0
:10005000F7010008F7010008F7010008851C0008F7
:10006000AB1C0008F7010008F71C0008F7010008A6
:10007000F7010008F7010008F7010008F701000880
:10008000F7010008F7010008F7010008F701000870
:10009000F7010008F7010008F7010008F701000860
:1000A000F7010008F7010008F7010008F701000850
:1000B000F7010008F7010008F7010008F701000840
:1000C000F7010008F7010008F7010008F701000830
:1000D000F7010008694B0008154C0008F7010008FB
:1000E000F7010008F7010008F7010008F701000810
:1000F000F7010008F7010008F7010008F701000800
:10010000F7010008F70100082B420008F70100087A
:10011000F7010008F7010008F7010008F7010008DF
:10012000F7010008F7010008F7010008F7010008CF
:10013000DFF80CD006F036FF0048004741190008F0
:1001400068A30020224B19680868B0E8F00F80F31C
:100150000988BFF36F8F4FF0000080F311884EF0D5
:100160000D0E70470000000006480068006880F32C
:10017000088862B661B6BFF34F8FBFF36F8F00DFA1
:1001800000BF00BF08ED00E0EFF30980BFF36F8F01
:100190000F4B1A6820E9F00F106008B54FF05000BF
:1001A00080F31188BFF34F8FBFF36F8F05F0F9FE17
:1001B0004FF0000080F31188BDE808401968086816
:1001C000B0E8F00F80F30988BFF36F8F704700BF6E
:1001D0003C0B0020EFF30580704700000648804785
:1001E00006480047FEE7FEE7FEE7FEE7FEE7FEE71C
:1001F000FEE7FEE7FEE7FEE7A10200083101000886
:100200000CB500224C4800920192016841F4803103
:1002100001604FF4A063016801F40031019100997D
:10022000491C0091019911B900999942F3D10168D3
:10023000890333D50121019140490A6842F0100237
:100240000A600A6822F003020A600A6842F00202A9
:100250000A604168416041684160416841F48061E1
:100260004160416821F47C114160416841F4E8112A
:100270004160016841F08071016001688901FCD52D
:10028000416821F003014160416841F00201416091
:100290004168C1F381010229FAD10CBD01920CBD64
:1002A000254810B5016841F0010101604168244A08
:1002B000114041600168234A11400160016821F446
:1002C00080210160416821F4FE0141604FF41F016B
:1002D0008160FFF795FF1C494FF00060086010BD7A
:1002E000154A10B55068194B10F00C01184803D08E
:1002F000042901D0082901D0036012E05168536835
:1003000001F470114FF0020413F4803F04EB9141AB
:1003100002D053689B0301D50E4B00E00B4B5943B1
:10032000016051680A4AC1F30311121D515C026851
:10033000CA40026010BD00000010024000200240D0
:100340000000FFF8FFFFF6FE08ED00E000127A0063
:100350000000002000093D002849084328490860A2
:10036000704730B50F23C27801780125F2B1244AD5
:10037000126801F1E02102F4E062C2F5E062120AC3
:10038000C2F10404D3404278A24084781C40144354
:10039000220181F80024007800F01F018D404009FF
:1003A000800000F1E020C0F8005130BD01F01F00D6
:1003B00085404809800000F1E020C0F8805130BD40
:1003C000104A114001430E48001F016070470C4A5B
:1003D000121D0029116801D0014300E08143116022
:1003E00070474FF0E0210428086903D020F0040092
:1003F0000861704740F00400FAE700000000FA05C9
:100400000CED00E080FFFF1F374900200860091D48
:100410000860091D0860091D08603349334814311C
:100420000860704730B5304A8379016853B3136868
:100430008B431360111D0B680468A3430B600179A3
:1004400011440B68046823430B60274B0833196879
:100450000468A14319601C1D21680568A943216037
:100460004179102905D011440A68006802430A60E6
:1004700030BD1968026811431960216800680143A2
:10048000216030BD0079104402688A43026030BDAB
:100490000021016001710C22427181717047124983
:1004A00010310A6802430A60704701460E4A002074
:1004B000143212680A4200D0012070470A491431F0
:1004C00008607047084A014600201268064B0A403F
:1004D00014331B680B4202D0002A00D00120704761
:1004E000014914310860704700040140FFFF0F000C
:1004F0008F4910B5884206D10121042000F049FA45
:10050000002104203BE08B49884206D101210820CC
:1005100000F03FFA0021082031E08749884206D1E7
:100520000121102000F035FA0021102027E0834936
:10053000884206D10121202000F02BFA0021202042
:100540001DE07F49884206D10121402000F021FAB8
:100550000021402013E07B49884206D10121802000
:1005600000F017FA0021802009E0774988420AD17B
:1005700084150121204600F00CFA00212046BDE838
:10058000104000F006BA10BD10B50121084600F079
:1005900000FA0021BDE81040012000F0FAB9F0B5E2
:1005A000CC78002204F00F03E40601D58C782343B5
:1005B0000C784FF00F0C14F0FF0F4FF0010E1BD012
:1005C00005680E880EFA02F42640A64210D1960065
:1005D0000CFA06F725EA070703FA06F5CE783D433D
:1005E000282E02D0482E02D002E0446100E00461CF
:1005F000521C082AE5D305600A88FF2A1CD94468E2
:10060000002202F108060EFA06F50E882E40AE42D0
:100610000ED196000CFA06F7BC4303FA06F7CE7823
:100620003C43282E00D14561CE78482E00D105618B
:10063000521C082AE5D34460F0BD4FF6FF710180DB
:10064000022181700421C170704702460020926827
:100650000A4200D001207047806880B2704702468D
:100660000020D2680A4200D001207047C06880B2E2
:10067000704701617047416170470AB1016170477D
:1006800041617047C160704741F48032826181618D
:1006900082618169806970472C4B10B51A684FF6EA
:1006A0008074224042EA00100843186010BD2849B7
:1006B000C8617047F0B5254C002801DAE36900E015
:1006C0006368450D2E0185B2C0F30157B540C0F3F4
:1006D0000342032F05D0C6020AD503269640B34332
:1006E00007E023F07062636823F07063636002E0E8
:1006F000AB4343F0706201B12A43002801DAE261A2
:10070000F0BD6260F0BD10B58A0721F003040F4907
:10071000120F21440F238C6893409C438C608B689C
:10072000904003438B6010BD0949C1F8DC0070475D
:1007300000080140000C014000100140001401407D
:1007400000180140001C0140002001400000014051
:1007500000002042A548016841F0010101604168A4
:10076000A34A114041600168A24A1140016001683A
:1007700021F480210160416821F4FE0141604FF4C1
:100780001F018160704799490A6822F480320A602B
:100790000A6822F480220A60B0F5803F07D0B0F5E5
:1007A000802F03D1086840F4A020086070470868D3
:1007B00040F48030F9E70346002059098B4A0129AB
:1007C0000AD002290AD0516A03F01F020123934084
:1007D0000B4200D0012070471168F5E7116AF3E77A
:1007E00018B500204FF4A06400903120FFF7E3FF1C
:1007F0000099491C0091A14201D00028F5D0312078
:10080000FFF7D9FF002800D0012018BD774A1168F2
:1008100021F0F80141EAC000106070477649086095
:100820007047724B5A68084322F47C121043586098
:1008300070477149086670476C4A516821F003019E
:100840000143516070476948406800F00C007047F0
:10085000664A516821F0F001014351607047634AD4
:10086000516821F4E0610143516070475F4A51686B
:1008700021F4605141EAC000506070475B4A002992
:10088000517A01D0014300E08143517270475A49C7
:10089000C1F8D8007047554A516821F440410143DE
:1008A000516070475149002281F8202081F82020B2
:1008B000012802D0042802D1052081F820007047C9
:1008C0004E490860704749490A6A02430A62704704
:1008D0004A4944390860704730B5444A5168484B2A
:1008E00011F00C0103D0042901D0082901D00360C4
:1008F00012E05168536801F470114FF0020413F4D0
:10090000803F04EB914102D053689B0301D53D4BDE
:1009100000E03B4B5943016051680F2303EA11117A
:10092000394B5C5C0168E14041605468072505EA89
:1009300014241C5D21FA04F48460546805EAD4246C
:100940001B5DD940C1605268032303EA92322E4BEB
:100950001B1F9A5CB1FBF2F1016130BD234A0029F3
:10096000516901D0014300E08143516170471F4A42
:100970000029916901D0014300E0814391617047F2
:100980001A4A0029D16901D0014300E08143D161B5
:100990007047164A0029D16801D0014300E0814325
:1009A000D1607047114A0029116901D0014300E06C
:1009B00081431161704711494039086070470E4901
:1009C000C86470470949C87170470848416A41F0D6
:1009D000807141627047054A0146002092680A42D0
:1009E00000D0012070470149887270470010024012
:1009F0000000FFF8FFFFF6FE000042428004424282
:100A000000127A0000093D0018000020F94910B5D5
:100A1000884202D10121C41486E0B0F1804F09D090
:100A2000F54988420DD101210220FFF7BBFF0021CB
:100A3000022064E001210846FFF7B4FF00210120F5
:100A40005DE0EE49884206D101210420FFF7AAFFAC
:100A50000021042053E0EA49884206D10121082000
:100A6000FFF7A0FF0021082049E0E649884206D1AF
:100A700001211020FFF796FF002110203FE0E249FE
:100A8000884206D101212020FFF78CFF0021202081
:100A900035E0DE49884202D10121441444E0DC49BA
:100AA000884202D10121CC043EE0DA49884202D1D9
:100AB00001210C0538E0D849884202D101214C05BA
:100AC00032E0D649884206D101214020FFF76AFF73
:100AD0000021402013E0D249884206D10121802024
:100AE000FFF760FF0021802009E0CE4988420AD14B
:100AF000841501212046FFF755FF00212046BDE85F
:100B00001040FFF74FBFC849884202D101210C04B1
:100B10000AE0C649884202D101214C0404E0C449DC
:100B200088420AD101218C042046FFF732FF20467B
:100B3000BDE810400021FFF72CBF10BD30B5028882
:100B4000AC4CB24DA0420DD0A8420BD0B0F1804FBA
:100B500008D0A94B984205D0A84B984202D0A84B88
:100B6000984203D122F070034A881A43A54B984259
:100B700006D0A54B984203D022F44073CA881A438A
:100B800002808A8882850A880285A0420AD0A8420B
:100B900008D0A54A904205D0A44A904202D0A44A67
:100BA000904201D1097A01860121818230BD30B5A0
:100BB000028C22F001020284028C8388048B22F0D2
:100BC000020224F073050C882C430D8915434A88D2
:100BD0002A43884DA8420BD08C4DA84208D0924D94
:100BE000A84205D0914DA84202D0914DA8420DD106
:100BF00022F008054A8923F440732A4322F00405B1
:100C00008A882A438D891D43CB892B4383800483A3
:100C1000C9888186028430BD70B5028C22F0100232
:100C20000284028C8388048B0D8824F4E6464FF6F8
:100C3000FF7404EA052535430E8922F0200204EAF8
:100C4000061616434A8804EA02123243694EB0423D
:100C500002D06E4EB04215D122F080064A8923F4AC
:100C6000406304EA0212324322F040068A8804EA12
:100C7000021232438E8904EA86061E43CB8904EAB7
:100C80008303334383800583C9880187028470BD51
:100C900070B5028C22F480720284028C8388848B6B
:100CA0000D8824F0730425430E894FF6FF7422F457
:100CB000007204EA062616434A8804EA02223243F6
:100CC0004C4EB04202D0514EB04215D122F40066D3
:100CD0004A8923F4405304EA0222324322F4806614
:100CE0008A8804EA022232438E8904EA06161E43E9
:100CF000CB8904EA0313334383808583C9888187C2
:100D0000028470BD70B5028C22F480520284058C7E
:100D10008288838B0C8823F4E6464FF6FF7303EA40
:100D20000424344325F400560D8903EA0535354380
:100D30004E8803EA06362E432E4DA84202D0334D8C
:100D4000A84205D122F480458A8903EA82122A4307
:100D500082808483C988A0F84010068470BD828B8D
:100D600022F440628283828B4FF6FF7303EA0121F3
:100D70000A4382837047828B22F00C028283828B2B
:100D80000A4382837047028B22F440620283028B03
:100D90004FF6FF7303EA01210A4302837047F0B55F
:100DA000048C24F010040484078B048C4FF6FF7528
:100DB00027F4734705EA03333B4305EA02221A434B
:100DC0000C4B05EA011698420ED0104B98420BD0FE
:100DD000B0F1804F08D0084B984205D0074B98429D
:100DE00002D0074B984225D124F02001314341F035
:100DF000100124E0002C01400004004000080040E5
:100E0000000C00400010004000140040003401407D
:100E1000004C0140005001400054014000180040C7
:100E2000001C004000200040004001400044014000
:100E30000048014024F0A0030B4343F0100102835B
:100E40000184F0BD028B22F00C020283028B0A4364
:100E50000283704770B5048C24F001040484058B70
:100E6000048C4FF6FF7606EA0313134325F0F305CF
:100E7000F84A2B4390420ED0F74A90420BD0B0F183
:100E8000804F08D0F54A904205D0F54A904202D0F2
:100E9000F44A904202D124F0020201E024F00A0256
:100EA0000A4342F001010383018470BD2DE9F84F2C
:100EB0000D4604460888E74FDFF89CC3DFF89C83A3
:100EC000DFF89C934988AA882B894FF0804A48B361
:100ED00004282FD04FF6FF760828934632D0208C76
:100EE0009E4620F480502084A38B208C06EA013299
:100EF000009223F4734306EA0B221A4306EA0E33E8
:100F00001343BC420AD0644508D0544506D044453A
:100F100004D04C4502D0D34A944242D120F4005030
:100F2000009940E02046FFF795FFE9882046BDE89C
:100F3000F84F87E72046FFF732FFE9882046BDE8F3
:100F4000F84F20E7208C20F480702084B4F81CE057
:100F5000208C06EA031306EA01222EF0F30E43EA80
:100F60000B0343EA0E030092BC420AD0644508D04A
:100F7000544506D0444504D04C4502D0B94A944269
:100F800003D120F40070009901E020F420600843B0
:100F900040F48070A3832084E9882046BDE8F84FA0
:100FA000E9E620F40240084340F48050A383208403
:100FB000E9882046BDE8F84FD1E62DE9F0410C461E
:100FC000002649880746012501B90226A288012A80
:100FD00000D10225208823890028384610D0FFF749
:100FE000DEFEE1883846FFF7CEFE23892A463146E9
:100FF0003846FFF72FFFE1883846BDE8F04121E78A
:10100000FFF728FFE1883846FFF71CFF23892A46AF
:1010100031463846FFF7C3FEE1883846BDE8F04167
:10102000B1E610B50A884B88CC881A438B882343D5
:101030001A430B891A434B8989891A430A43A0F83A
:10104000442010BD4FF6FF71818000210180C180D6
:101050004180017270470021018041808180C18000
:10106000018141818181C1817047002101804180DE
:1010700001228280C180018170470021018041806E
:101080008180C1800181418181817047002901886F
:1010900002D041F0010101E021F00101018070471F
:1010A000002930F8441F02D041F4004101E0C1F3AF
:1010B0000E0101807047002A828901D00A4300E0B6
:1010C0008A4382817047818270471143A0F848109B
:1010D0007047002A828901D00A4300E08A43828156
:1010E0007047018921F0070101817047028922F0D0
:1010F00070020A430281704700B50346FFF7F6FF0E
:10110000188940F00700188100BD70B516460D46DD
:10111000602904464FF0010231460AD0FFF79AFEDB
:1011200029462046FFF7E2FF208940F00700208192
:1011300070BDFFF734FEF3E730B504894FF6FF7555
:1011400005EA03231343E4B20B432343038130BD79
:1011500010B50446FFF7F0FF208940F077002081AA
:1011600010BD10B50446FFF7E7FF208940F480402A
:10117000208110BD018582827047028822F07002B2
:101180000A430280704770B50589048B068C25F0F0
:1011900007050D434FF6FC410C4040F201110C4392
:1011A0004FF6FF7101EA031126F022061143314385
:1011B00005810483018470BD028B22F070020A4312
:1011C00002837047028B4FF6FF7322F4E04203EA7A
:1011D0000121114301837047828B22F070020A4380
:1011E00082837047828B4FF6FF7322F4E04203EA5A
:1011F00001211143818370470029018802D041F009
:10120000800101E021F08001018070470029818880
:1012100002D041F0040101E021F004018180704717
:101220000029818802D041F0080101E021F0080185
:10123000818070470029818802D041F0010101E0DE
:1012400021F0010181807047028B22F008020A43DD
:1012500002837047002C014000340140000400402C
:1012600000080040000C0040028B4FF6FF7322F490
:10127000006203EA012111430183EAE7828B22F035
:1012800008020A438283E4E7828B4FF6FF7322F45D
:10129000006203EA012111438183DAE7028B22F025
:1012A00004020A430283D4E7028B4FF6FF7322F451
:1012B000806203EA012111430183CAE7828B22F095
:1012C00004020A438283C4E7828B4FF6FF7322F441
:1012D000806203EA012111438183BAE7028B22F085
:1012E00080020A430283B4E7028B4FF6FF73C2F316
:1012F0000E0203EA012111430183AAE7828B22F047
:1013000080020A438283A4E7828B4FF6FF73C2F305
:101310000E0203EA0121114381839AE7028C22F035
:1013200002020A43028494E7028C22F008020A4374
:1013300002848EE7028C4FF6FF7322F0200203EA4C
:1013400001111143018484E7028C4FF6FF7322F0F0
:10135000800203EA0111114301847AE7028C4FF6FF
:10136000FF7322F4007203EA01211143018470E744
:10137000028C4FF6FF7322F4006203EA012111434D
:10138000018466E7028C4FF6FF7322F4005203EAF1
:101390000131114301845CE710B50123048C8B40BB
:1013A0009C430484038C8A401343038410BD10B50E
:1013B0000423048C8B409C430484038C8A40134395
:1013C000038410BD30B50124058C00F118038C4056
:1013D000A543058489B108290FD0091FC1F34E0028
:1013E0001844016821F4E041016001684FF6FF7381
:1013F00003EA02221143016030BD03EB5100016892
:1014000021F0700101600168F4E70029018802D031
:1014100041F0020101E021F00201018019E70029F9
:10142000018802D041F0040101E021F004010180B3
:101430000FE70029818802D041F0800101E021F00E
:101440008001818005E7028822F00802028002887C
:101450000A430280FDE6828822F070028280828840
:101460000A438280F5E6028922F00702028102899E
:101470000A430281EDE6028922F08002028102899C
:101480000A430281E5E68184E3E68185E1E681861F
:10149000DFE60187DDE68187DBE6A0F84010D8E6CD
:1014A000028822F44072028002880A430280D0E659
:1014B000808ECEE6008FCCE6808FCAE6B0F8400082
:1014C000C7E6808CC5E6008DC3E602460020128A7E
:1014D0000A4200D00120BCE6C9430182B9E60246B7
:1014E0000020138A92890B4202EA010202D0002AEC
:1014F00000D00120ADE6C9430182AAE6C44910B577
:1015000088420AD101218C032046FFF742FA204687
:10151000BDE810400021FFF73CBABE49884202D125
:1015200001214C0410E0BC49884202D101218C0405
:101530000AE0BA49884202D10121CC0404E0B8494A
:1015400088420AD101210C052046FFF72BFA2046DC
:10155000BDE810400021FFF725BA10BD30B50446A4
:10156000008A85B00D464CF6FF710840E9880143BA
:101570002182A0894EF6F3110840A9882A891143D7
:101580006A8902431143A181A08A4FF6FF410840B6
:10159000A9890143A1826846FFF79EF99C488442CD
:1015A00001D1039800E00298A189090400EBC00171
:1015B00001EB0010296801D5490000E08900B0FB6B
:1015C000F1F06422B0FBF2F109010B096FF018058C
:1015D0006B4300EB8300A3891D044FF0320306D553
:1015E00003EBC000B0FBF2F000F0070005E003EBF6
:1015F0000010B0FBF2F000F00F000843208105B0AE
:1016000030BD4FF41651016000218180C1800181FD
:101610000C2242818181704710B5028A4FF2FF038C
:101620001A400B884C8823438C88C9880C43234379
:101630001343038210BD0021018041808180C1805D
:1016400070470029818902D041F4005101E021F462
:1016500000518181704710B5C1F3421301F01F049E
:101660000121A140012B07D0022B07D01430002A02
:10167000026805D00A4304E00C30F8E71030F6E7C2
:101680008A43026010BD002A828A01D00A4300E02A
:101690008A4382827047028A22F00F020282028A03
:1016A0000A4302827047828922F400628281828921
:1016B0000A43828170470029818902D041F00201EA
:1016C00001E021F0020181817047028A22F02002AC
:1016D0000282028A0A43028270470029018A02D0EC
:1016E00041F4804101E021F4804101827047C1F35F
:1016F0000801818070478088C0F3080070478189A5
:1017000041F0010181817047028BD2B20283028BCA
:1017100042EA012101837047028B02F47F42028377
:10172000028B0A43028370470029818A02D041F06C
:10173000200101E021F02001818270470029818A87
:1017400002D041F0100101E021F0100181827047C8
:101750000029818A02D041F0080101E021F008014E
:10176000818270470029818902D041F4004101E063
:10177000C1F30E01818170470029818A02D041F4B2
:10178000006101E021F4006181827047828A22F0C9
:1017900004028282828A0A43828270470029818AF7
:1017A00002D041F0020101E021F002018182704784
:1017B0000246002012880A4200D001207047C94327
:1017C0000180704770B501F01F0501260024C1F3A8
:1017D000421306FA05F2012B0FD0022B0FD0838A99
:1017E0004FEA11210088134206FA01F600EA0600CA
:1017F00001D000B10124204670BD8389F0E7038A3F
:10180000EEE70A0A01219140C943018070470000B8
:10181000003801400044004000480040004C0040B7
:10182000005000407CB505F005FA03F057FA4F4C24
:10183000002201216060052003F066FCA060022008
:101840004B494602CDE900010023324649A14C48EC
:1018500004F019F9012802D14AA005F0EFFB504924
:101860000320CDE900014FF4007500232A464DA165
:101870004F4804F008F9012802D14EA005F0DEFB24
:1018800053490420CDE900010023324651A15448B8
:1018900004F0F9F8012802D152A005F0CFFB584915
:1018A0000520CDE9000100232A4656A1584804F03E
:1018B000EAF8012802D157A005F0C0FB5C490620D8
:1018C000CDE9000100232A465AA15E4804F0DBF866
:1018D000012802D15CA005F0B1FB62490720CDE9E7
:1018E000000100232A4660A1654804F0CCF80128D5
:1018F00002D164A005F0A2FB6B480825CDE9005099
:101900000023324669A16D4804F0BDF8012802D1D8
:101910006BA005F093FB72480023CDE900503246DE
:1019200070A1734804F0AFF8012802D171A005F04E
:1019300085FB206804F0D2F8BDE87C4005F094B93E
:101940001CB500F0FDF809490120CDE90001002394
:1019500080226EA1714804F096F8012802D04FF061
:10196000FF301CBD04F029FCFEE700002800002029
:101970003C0000204F4C45445F5441534B00000055
:10198000F92100082424B4B4BDA84F4C45445F5449
:1019900041534BC8CECEF1B3C9B9A60D0A00000021
:1019A000380000204B45595F5441534B0000000064
:1019B000092100082424B4B4BDA84B45595F544103
:1019C000534BC8CECEF1B3C9B9A60D0A0000000032
:1019D0003400002043414D5F5441534B0000000050
:1019E000511D00082424B4B4BDA843414D5F5441A7
:1019F000534BC8CECEF1B3C9B9A60D0A0000000002
:101A0000400000205247425F5441534B0000000009
:101A1000652300082424B4B4BDA85247425F544152
:101A2000534BC8CECEF1B3C9B9A60D0A00000000D1
:101A30004400002052554E494E49545F5441534B87
:101A400000000000E12700082424B4B4BDA85255CA
:101A50004E5F5441534BC8CECEF1B3C9B9A60D0A5F
:101A6000000000004C00002043616D5F73746174DE
:101A700075735F7570646174655F5441534B00000A
:101A8000412B00082424B4B4BDA843616D5F737476
:101A9000617475735F7570646174655F5441534B15
:101AA00020B3C9B9A60D0A00480000205452494786
:101AB0004745525F5441534B00000000FD28000889
:101AC0002424B4B4BDA8545249474745525F5441F9
:101AD000534BC8CECEF1B3C9B9A60D0A0000000021
:101AE0008800002054454D505F5441534B00000086
:101AF000A92B00082424B4B4BDA854454D505F540C
:101B000041534BB3C9B9A60D0A0000004150505FC4
:101B10005441534B43524541544500002518000899
:101B20007047FEE7FEE7FEE7FEE7704710B504F0FA
:101B3000A1FC012803D0BDE8104005F0A6B810BDF7
:101B40002DE9F84F01211C20FEF711FF314D4FF018
:101B50000008C5F8A081DFF8C0900126C9F88461AB
:101B6000C5F8B06105F5D07502F080FA4FF4006A4F
:101B7000ADF800A00224DFF8A4B08DF802401027D1
:101B80008DF8037069465846FEF709FDADF8004030
:101B90008DF802408DF8037069465846FEF7FFFC49
:101BA0006002ADF800008DF802402820DFF870B028
:101BB0008DF8030069465846FEF7F1FCADF800A029
:101BC0008DF8024004208DF8030069465846FEF760
:101BD000E6FCE002ADF800008DF802408DF80370DD
:101BE00069465846FEF7DBFCE001ADF800008DF8D1
:101BF00002408DF8037069465846FEF7D0FCC5F8E0
:101C00000080C9F884612E6102F030FA00F0DCFF38
:101C1000BDE8F88F00802142000021420008014009
:101C2000000C01407FB501210420FEF7A0FE022434
:101C3000ADF80C4004208DF80F0003208DF80E0045
:101C400003A94048FEF7ABFC00258DF8045008209E
:101C50008DF8050001212846FEF755FD009401246A
:101C60008DF806406846FEF7DDFB07208DF808007A
:101C70008DF809008DF80A508DF80B4002A8FEF788
:101C800070FB7FBD10B50220FEF71CFC00280BD0B6
:101C90002D49012088702D488188491C8180BDE82C
:101CA00010400220FEF71CBC10BD10B50220FEF74C
:101CB00009FC00280BD02449012008702348018822
:101CC000491C0180BDE810400220FEF709BC10BD90
:101CD00010B50220FEF7F6FB00280BD01A490120B0
:101CE00048701A484188491C4180BDE810400220D4
:101CF000FEF7F6BB10BD10B50220FEF7E3FB00288F
:101D00000BD011490120C8701048C188491CC180FE
:101D1000BDE810400220FEF7E3BB10BD10B5022065
:101D2000FEF7D0FB00280BD00749012008710748B7
:101D30000189491C0181BDE810400220FEF7D0BB9B
:101D400010BD00000008014080000020A00B002012
:101D500008B5E74C02E00A2004F05BF82078002880
:101D6000F9D0642004F055F8DFF888830025C8F81E
:101D7000B051642004F04DF8DF4F0120395C01B10F
:101D8000D220401CC0B20528F8D9DC49C82802D3AB
:101D90000420086000E00D60D94E8946002303222C
:101DA0000968306804F0EBFB02F054F94FF4FA7064
:101DB00004F02FF802F05AF9642004F02AF8DFF852
:101DC00044B300244FF0030AD9F80000F0BB01200F
:101DD000395C01B1D220401CC0B20528F8D9C8280E
:101DE00019D3C8F8B0514FF4967004F012F80421DA
:101DF000C9F8001000230322306804F0C0FB02F091
:101E000029F94FF4FA7004F004F802F02FF9642075
:101E100003F0FFFF00240122009500231146DBF8A8
:101E2000000003F001F8C00715D0C9F800A0514622
:101E300000230322306804F0A2FB02F00BF94FF4F8
:101E4000FA7003F0E6FF02F011F900E003E064200D
:101E500003F0DFFF0024D9F80000042843D1641CFC
:101E6000E4B2012C1ED0B4FBFAF10AFB1140C8B158
:101E700002F0FCF8082C05D3C8F8B051642003F038
:101E8000C8FF00244FF4967003F0C3FF0120395CB3
:101E900001B1D220401CC0B20528F8D9642804D270
:101EA00029460DE002F0D6F8E4E701220095002370
:101EB0001146DBF8000002F0B7FFC00713D051460F
:101EC000C9F8001000230322306804F058FB02F028
:101ED000C1F84FF4FA7003F09CFF02F0C7F86420D9
:101EE00003F097FF0024D9F80000052870D1641C86
:101EF000E4B2012C4CD0B4FBFAF10AFB1140E8B378
:101F000002F0B4F8082C05D3C8F8B051642003F0EF
:101F100080FF00244FF4967003F07BFF0120395CB2
:101F2000012900D0D220401CC0B20528F7D964286E
:101F300031D240F6B83003F06CFF40F6B83003F011
:101F400068FF40F6B83003F064FF4446C8F8B0516B
:101F5000642003F05EFFC4F8B05140F6B83003F0DF
:101F600058FF0121C9F8001000230322306804F053
:101F700006FB02F06FF84FF4FA7000E008E003F09F
:101F800048FF02F073F8642003F043FF00241FE0D1
:101F900002F060F8B6E70122009500231146DBF855
:101FA000000002F041FFC00712D00221C9F8001062
:101FB00000230322306804F0E2FA02F04BF84FF4F9
:101FC000FA7003F026FF02F051F8642003F021FFBD
:101FD000D9F80000022836D1C8F8B051642003F0C7
:101FE00018FF00244FF4967003F013FF0120395CB2
:101FF000012900D1D220401CC0B20528F7D964289D
:1020000000D2DC24641CE4B2322CEBD3C82C01D304
:10201000294605E0C8F8B051642003F0FAFE042117
:10202000C9F8001000230322306804F0A8FA02F077
:1020300011F84FF4FA7003F0ECFE02F017F8642088
:1020400003F0E7FE0024D9F8000003284CD1C8F8BB
:10205000B051642003F0DDFE00244FF4967003F0CD
:10206000D8FE0120395C01B9D220401CC0B205283D
:10207000F8D9642800D2DC24641CE4B2322CECD3FE
:10208000C82C19D340F6B83003F0C3FE40F6B83080
:1020900003F0BFFE40F6B83003F0BBFE4446C8F87C
:1020A000B051642003F0B5FEC4F8B05140F6B8302A
:1020B00003F0AFFE012104E04FF4967003F0A9FE97
:1020C0000521C9F8001000230322306804F057FAF4
:1020D00001F0C0FF4FF4FA7003F09BFE01F0C6FF61
:1020E000642003F096FE0024012003F092FE6BE6CC
:1020F0006D000020000021425F00002070000020E1
:102100003C0000202C00002008B504F0A0F8374F58
:10211000374D384E009038780028D5F82C0101D082
:1021200030B35DE000285BD10521684603F013FE63
:10213000D5F82C01B0BB0F21684603F00CFED5F892
:102140002C0180B90121306802F0D5FD0BE00A2195
:10215000684603F000FED5F82C010028F7D03C219A
:10216000684603F0F8FDD5F82C010028F3D037E0DD
:102170000521684603F0EFFDD5F82C0190B90F2139
:10218000684603F0E8FDD5F82C0158B900240AE0B0
:102190000A21684603F0DFFD641CE4B2642C02D31C
:1021A000D22411E01CE0D5F82C010028F0D00BE07F
:1021B0000A21684603F0CFFDD5F82C010028F7D09E
:1021C0003C21684603F0C7FDD5F82C010028F3D068
:1021D000C82C01D3022100E00121306802F08BFD00
:1021E0000A21684603F0B7FD95E70000660000206D
:1021F000008021422C00002008B500273C460097B3
:1022000000F015FF0A2003F004FE544E544D4FF029
:10221000FF3800236A464146184604F070F9012849
:1022200006D0C82003F0F5FD2868082809D00AE088
:1022300000F0FDFE009828600A2003F0EAFD00246B
:10224000F2E701F017F9286808B101282AD1A4F1B2
:102250000B01092911D83178012902D001F0CDFAFA
:1022600016E0012807D00021012001F0FBF9C82069
:1022700003F0CFFD10E00121F6E70A2C0CD83178ED
:10228000012913D001281FD00021002001F0EAF914
:10229000641CE4B2282C05D300F0C9FE022003F030
:1022A000B8FD002428680D2810D012E001243770F2
:1022B000012807D00021012001F0D4F9C82003F043
:1022C000A8FDEFE70121F6E70121DEE7012001F09B
:1022D000CAFC28680E2802D1022001F0C4FC28683C
:1022E0000F2802D1032001F0BEFC2868102802D17B
:1022F000042001F0B8FC2868072801D101F0F1F8AA
:102300002868022801D101F021F92868032801D1A9
:1023100001F062F92868042801D101F053FB286814
:10232000052801D101F086FB2868062801D101F0BB
:10233000B9FB2868092801D101F0F1FB28680B28B6
:1023400002D1002001F057FC28680C2802D101209E
:1023500001F051FC0A2003F05CFD5AE75000002018
:10236000540000200025DFF88CB1634EDFF88CA10B
:102370002C460127A9466248006810B1012803D005
:1023800004E0CBF8B07101E0CBF8B0915D49097879
:10239000012950D101280AD05946CBF8B071DBF899
:1023A000282192B39AF80030012B6AD06FE0CC4616
:1023B0005A46CBF8B091DBF8280188B10020524B87
:1023C000012113F80180491C4044C9B2C0B205295B
:1023D000F7D99AF80030012B18D0012D16D01BE048
:1023E0009AF80010002409B1012D05D1C6F89471A6
:1023F000C2F88071C2F88471C6F89471C2F8807115
:10240000C2F884C1C2F8A07137E022E0C6F8947126
:10241000C2F88071C2F88471641C0025A4B2C0F1B6
:1024200032018AF800C0A14206D1C6F89471C2F800
:102430008471C2F880C159E0C0F16401081AA04259
:1024400054DCC6F89471C2F88071C2F8847100241B
:102450004CE09AF800200AB1012D05D1C6F894711C
:10246000C1F88071C1F884710024C6F89471C1F874
:102470008071C1F88491C1F8A0718AF800700025BC
:1024800034E0C6F89471C1F88071C1F884710628EF
:1024900006D0042804D0052802D0012D16D01BE058
:1024A000641C0125A4B2322C09D0642C1CD3C6F8BC
:1024B0009471C1F88071C1F88471002414E0C1F8EE
:1024C0008071C1F88471C6F894910DE0C6F89471DA
:1024D000C1F88071C1F8847100252C46C6F894714A
:1024E000C1F88471C1F880918AF800900A2003F045
:1024F00090FC40E70080214200002242650000205D
:10250000700000206D0000207A0000202DE9F84FB7
:10251000002700F0E5FCDFF8B4B3ED480C21CBF860
:10252000001000230322006804F029F801F092FD56
:102530004FF4FA7003F06DFC01F098FDC82003F031
:1025400068FC4FF47A74204603F063FC204603F0E5
:1025500060FC0025DFF87C9300952B4601220321C7
:10256000D9F8000002F060FCDB4CDC4EDFF8708331
:10257000C0074FF0020A0ED027783FB1012F08D0D4
:1025800006203070012088F8000008E086F800A0DE
:10259000F8E70420F5E798F8000001285CD1CC4862
:1025A0000921CBF8001000230322006803F0E7FFA5
:1025B00001F050FD4FF4FA7003F02BFC01F056FDD2
:1025C000642043E00095002301220321D9F8000094
:1025D00002F02AFCC10715D0307830B1022808D0AB
:1025E00004280AD0277035702FE0257086F800A0E7
:1025F0002BE001202070042002E084F800A00620D7
:10260000307022E0800720D5307860B3B0480B21CD
:10261000CBF8001000230322006803F0B0FF01F0A4
:1026200019FD4FF4FA7003F0F4FB01F01FFD642074
:1026300003F0EFFB00F071FCC82003F0EAFB40F66A
:10264000B83003F0E6FB88F800500A2003F0E1FB05
:1026500098F800000128B5D0207800287DD0BDE88A
:10266000F84F01F05FBEDFF868A20D21CBF8001033
:10267000D84600230322DAF8000003F080FF01F0BF
:10268000E9FC4FF4FA74204603F0C3FB01F0EEFCC2
:10269000642003F0BEFB934EC6F8B051642003F0F3
:1026A000B8FBA346904C0027C6F8B051584603F03B
:1026B000B0FB607801280CD1A078012809D1E0781E
:1026C000012806D12079012803D16079012800D1A1
:1026D000C8277F1CFFB2142FE6D30E21C8F80010C4
:1026E00000230322DAF8000003F049FF01F0B2FCF6
:1026F000584603F08EFB01F0B9FC642003F089FB1F
:1027000000270095002301220321D9F8000002F0E0
:102710008BFBC1070FD0C6F8B051642003F079FBE2
:10272000C6F8B05101F096FC642003F072FB01F092
:102730009DFC642002E0800704D40A2003F069FBBA
:10274000002FDED00F21C8F80010474600230322D7
:10275000DAF8000003F013FF00E03DE001F07AFC3E
:10276000D946584603F055FB01F080FC642003F085
:1027700050FBA846C6F8B0514FF47A7003F049FBFD
:102780000025C6F8B081484603F043FB607840B9A5
:10279000A07830B9E07820B9207910B9607900B913
:1027A000C8256D1CEDB2142DEBD34FF4FA6003F085
:1027B00030FB1021396000230322DAF8000003F017
:1027C000DEFE01F047FC484603F023FB01F04EFC1F
:1027D000642003F01EFBFBE7BDE8F84F01F079BC75
:1027E00010B500F029F8FFF791FE384807210023C3
:1027F000016037480322006803F0C1FE01F02AFCA3
:102800004FF4FA74204603F004FB01F02FFC64201F
:1028100003F0FFFA642003F0FCFA344A0121204659
:10282000117003F0F6FA3248006803F057F9BDE87A
:1028300010400A2003F0EDBA2DE9F04723480821A3
:102840000023016022480322006803F098FE0A2654
:102850004FF000090124274D274FDFF888801EE044
:1028600001F0F8FBC5F88041C5F88441C7F89491A0
:10287000C8F88491C5F8B091642005F5C07503F0DF
:10288000C8FA01F0F3FBC7F894412C606C60C8F8FB
:1028900084412C636420A5F5C07503F0BAFA761E56
:1028A000B6B2DDD201F0D6FB4FF4FA7003F0B1FA04
:1028B00001F0DCFB642003F0ACFAC7F89441C5F8E2
:1028C0008441C5F88091BDE8F087000070000020C9
:1028D0003C0000202C000020670000206C0000203D
:1028E00066000020000021425F0000206D000020F3
:1028F000440000200080214200002242002708B549
:102900003D463C464FF47A7003F083FA04F092F9A6
:1029100001F03AFE7D49088004F0A6F97C4E02E001
:102920000A2003F076FA30780028F9D0642003F00A
:1029300070FA784EDFF8E091DFF8E0A142F20F7B09
:102940004FF000087648007808B3012810D08CB307
:102950003088012C00F1010080B2308057D05845FA
:1029600001D3A6F800B0D9F80001012828D036E03C
:1029700074B13088012C00F1010080B230801AD08F
:10298000584501D3A6F800B0D9F80001C0B126E03F
:10299000D9F8000180B303E03088401C308031E07A
:1029A00030880125401C80B2308058452AD3A6F8D3
:1029B00000B014E01CE0D9F8001101292DD029E065
:1029C000308840F2E471884206D85649088056495A
:1029D0000120087055490870A6F800800024DAF834
:1029E0000000012851481CD0017801297ED088E0E0
:1029F000D9F800010128D3D1012DCDD1A6F800804E
:102A00000025C9E780B20A28E9D10124E7E7D9F80F
:102A1000001111B1A6F80080E1E70528DFD30224F8
:102A2000DDE70078012848D101F0B9FB4048018872
:102A3000491C018001F00EFB3B4801210170C9F8DF
:102A40008481C9F8B081642003F0E3F9782003F0B1
:102A5000E0F9322003F0DDF90120C9F8840101F02A
:102A600005FB324981F8008001F010FB314901205B
:102A70000A5C012A00D0D220401CC0B20528F7D938
:102A8000642819D97F1CFFB2032F16D32A480521C9
:102A90000027CAF800103B460322006803F06FFDD0
:102AA00001F0D8FA4FF4FA7003F0B3F901F0DEFA4E
:102AB000642003F0AEF900E0002720480122CDF8A1
:102AC000008000231146006802F0AEF9C00718D05C
:102AD00019480221CAF8001000230322006803F0FD
:102AE0004EFD01F0B7FA4FF4FA7000E007E003F092
:102AF00090F901F0BBFA642003F08BF901E080F853
:102B00000080012003F085F91CE70000860000200A
:102B10006D000020680000200000214270000020AD
:102B2000670000206A000020500000205E000020A6
:102B30005C0000205F0000203C0000202C000020F2
:102B4000174F0125174C0026642003F062F902217B
:102B50003846FDF77AFD08B1657000E06670022125
:102B60003846FDF772FD08B1A57000E0A67002219D
:102B70003846FDF76AFD08B1E57000E0E670022115
:102B80003846FDF762FD08B1257100E0267102218B
:102B90003846FDF75AFD08B16571D5E76671D3E790
:102BA000000801405F000020064C40F2DC5504F0B4
:102BB00041F801F0E9FC208004F056F8284603F0C3
:102BC00028F9F4E78600002010B501211C20FDF74C
:102BD000CEFE1848816941F00101816116484168C3
:102BE00021F0E0614160416841F0007141604FF4C3
:102BF0004070FDF7B1FB01F0C3F901F07AFC012848
:102C0000FBD04FF4E131012001F084FD4FF4165167
:102C1000022001F07FFD00F04EFB01F05AFA01F0B6
:102C2000D1F9BDE8104000F0D2B80549034808606A
:102C30007047000000100240000001400400FA0547
:102C40000CED00E070B5C0484026066080250560A8
:102C500000F074F9BC4C241D266000F06FF925606B
:102C6000BDE8704000F06AB970B5B7484024001D57
:102C70000460B54D8020286000F060F92C6070BDC4
:102C80002DE9F047DFF8C0920024AF4E054609F168
:102C9000040980274FF040082806404601D53060DF
:102CA00001E0C9F8000000F049F9376000F046F98A
:102CB000C9F80070072C01D1C6F800806806050E1F
:102CC00000F03CF9641CE4B2082CE5D3BDE8F087C1
:102CD0002DE9F04700249C4FDFF86C822546A8F1CF
:102CE0000808802607F104096006040E3E6000F023
:102CF00025F9D8F80000400601D5641CE4B2C9F8F3
:102D0000006000F01BF96D1CEDB2082DECD32046DD
:102D1000DCE770B58C4C4020206000F00FF9802576
:102D2000256000F00BF9884808380068400601D596
:102D3000012400E000248448001D056000F0FEF836
:102D4000204670BD2DE9F0417F4E4025361D35608F
:102D500000F0F4F8371F80243C6000F0EFF8346096
:102D600000F0ECF83D60BDE8F08170B5764D402094
:102D7000286000F0E3F880242C6000F0DFF8281DC4
:102D80000460BDE8704000F0D9B838B504460121B0
:102D90000420FDF7ECFDC021ADF8001003218DF8F3
:102DA0000210142168488DF8031069461038FDF7A9
:102DB000F6FBFFF759FFFFF745FF2046FFF760FFDF
:102DC000FFF7A7FF0446FFF74FFF204638BD10B5B9
:102DD000A020FFF7DAFF18B1FFF746FF002010BD73
:102DE000012010BD2DE9F04115460C460746FFF7BE
:102DF00029FFA020FFF744FFFFF78BFF68B9E0B27F
:102E0000FFF73EFFFFF785FF38B9FFF71BFFA12053
:102E1000FFF736FFFFF77DFF18B1FFF725FF002012
:102E2000A1E700246E1E0BE0FFF752FF3855B442B5
:102E300002D0FFF787FF01E0FFF797FF641CA4B201
:102E4000AC42F1D3FFF710FF01208CE72DE9F047EA
:102E500090460E46814600254FF47A7728E00DB162
:102E6000700716D1FFF700FF0024FFF7EBFEA0204C
:102E7000FFF706FFFFF74DFF18B1641CA4B2BC4278
:102E8000F3D3BC420CD0F0B2FFF7FAFEFFF741FFDC
:102E900030B919F80500FFF7F3FEFFF73AFF18B154
:102EA000FFF7E2FE002011E7761C6D1CB6B2ADB252
:102EB0004545D4D3FFF7D8FE012007E700B5C1B0E0
:102EC00000206A46FF211154401C80B2FF28FAD925
:102ED0004FF4807200216846FFF7B8FF41B000BD93
:102EE00010B503F0A7FE032201211848FFF77AFF6F
:102EF000164817490278552A0CD055220270002234
:102F000042700A7003220121FFF7A0FFBDE81040C4
:102F100003F0AABE40780870F8E710B503F08AFE07
:102F20000A4855210322017009490978417001219D
:102F3000FFF78CFFBDE8104003F096BE0020401C58
:102F4000C0B20A28FBD37047100801408C00002053
:102F5000670000202DE9F05FFF4F05464FF4806BBE
:102F600000295946384602D0FDF783FB01E0FDF702
:102F700082FBDFF8E8A34FF4004949465046FDF7CD
:102F80007AFBF74E00244FF4805804213046FDF7B9
:102F900072FB28064146384602D5FDF76AFB01E080
:102FA000FDF769FB04213046FDF763FB6806641CEE
:102FB000050EE4B2082CE8D349465046FDF759FB0C
:102FC00059463846BDE8F05FFDF753BB10B50446DF
:102FD000B031C8B20021FFF7BDFF102040EA141045
:102FE0000021FFF7B7FF04F00F00BDE8104040F0EC
:102FF00001000021AEE710B500218D20FFF7AAFFE8
:1030000000211420FFF7A6FF0021BDE81040AF20EB
:10301000A0E710B500218D20FFF79CFF00211020B4
:10302000FFF798FF0021BDE81040AE2092E770B591
:10303000002505F1B000C0B20021FFF78BFF002191
:103040000220FFF787FF00211020FFF783FF0024F5
:1030500001210020FFF77EFF641CE4B2802CF7D32F
:103060006D1CEDB2082DE4D370BD2DE9F041203A7E
:1030700000240F468046D5B27F2803D900208F1C3C
:103080008046FFB23946FFF7A1FFB64E04EB0510AC
:103090000121305CFFF75EFF641CE4B2082CF5D31D
:1030A0007F1CF9B24046FFF791FF002404EB0510A6
:1030B00030440121007AFFF74DFF641CE4B2082C74
:1030C000F4D3BDE8F0810346012000E05843491ED7
:1030D000C9B2FBD270472DE9F04780460027089817
:1030E0001D4691468A463C46460821E0281B401E64
:1030F000C1B20A20FFF7E7FFB9FBF0F00A21B0FBED
:10310000F1F201FB120027B9691E8C4201DA30B1DD
:1031100001273030C2B206FB0480C0B203E006FBD8
:103120000480C0B220225146FFF79FFF641CE4B226
:10313000AC42DBD3BDE8F0872DE9F04117460E46DF
:10314000044600250CE031462046FFF78EFF083488
:10315000E4B2782C02D90024B61CF6B26D1CEDB294
:103160007A5D002AEFD1ACE72DE9F04117460E4613
:10317000044600250CE03146204600F0C1FE08342C
:10318000E4B2782C02D90024B61CF6B26D1CEDB264
:103190007A5D002AEFD194E72DE9F04115460E46FD
:1031A0000746FFF713FF7048002400EB8515012147
:1031B000285DFFF7CFFE641CE4B2102CF7D3761C19
:1031C000F1B23846FFF702FF00242819012190F8D8
:1031D0002000FFF7BFFE641CE4B2102CF5D370E7AB
:1031E0002DE9F04115460E460746FFF7EFFE5F4812
:1031F000002400EB85150121285DFFF7ABFE641C60
:10320000E4B2102CF7D3761CF1B23846FFF7DEFE9D
:1032100000242819012190F82000FFF79BFE641C70
:10322000E4B2102CF5D34CE72DE9F04115460E46DB
:103230000746FFF7CBFE4D48002400EB8515012122
:10324000285DC043C0B2FFF785FE641CE4B2102CB9
:10325000F5D3761CF1B23846FFF7B8FE00242819E2
:10326000012190F82000C043C0B2FFF773FE641C38
:10327000E4B2102CF3D324E72DE9F0471F46904623
:103280000E4682460025DDF8209011E0314650467A
:10329000FFF79CFE544607E019F8050001216D1C5C
:1032A000FFF758FE641CE4B24445F5D3761CF6B231
:1032B000BE42EBD33EE72DE9F84301213420FDF770
:1032C00056FB4FF40047ADF800701024DFF88C90E7
:1032D0008DF8034003258DF8025069464846FDF7F6
:1032E0005EF94FF4E056ADF80060DFF86C808DF8C1
:1032F00003408DF8025069464046FDF750F904201E
:10330000ADF800008DF80340154C8DF80250694669
:103310002046FDF744F939464846FDF7AAF93146FB
:103320004046FDF7A6F904212046FDF7A2F9E41472
:1033300021464046FDF79DF900F013FE2146404628
:10334000FDF799F900F00DFE21464046FDF791F991
:103350000021AE200CE000000010014000080140F8
:10336000001401403472000899000020D9020020A6
:10337000FFF7F0FD00210220FFF7ECFD00211020F7
:10338000FFF7E8FD00214020FFF7E4FD0021812048
:10339000FFF7E0FD0021CF20FFF7DCFD0021A12099
:1033A000FFF7D8FD0021C820FFF7D4FD0021A6209B
:1033B000FFF7D0FD0021A820FFF7CCFD00213F2022
:1033C000FFF7C8FD00218120FFF7C4FD0021FF2089
:1033D000FFF7C0FD0021D320FFF7BCFD0021084608
:1033E000FFF7B8FD0021D520FFF7B4FD00218020B4
:1033F000FFF7B0FD0021D920FFF7ACFD0021F1203F
:10340000FFF7A8FD0021DA20FFF7A4FD002112201C
:10341000FFF7A0FD0021DB20FFF79CFD00214020ED
:10342000FFF798FD00212020FFF794FD00210220E6
:10343000FFF790FD00218D20FFF78CFD0021142067
:10344000FFF788FD0021A420FFF784FD0021A620BE
:10345000FFF780FD0021AF20FFF77CFD0021AF20AA
:10346000FFF778FDFFF7E3FD00210846FFF7AEFD0B
:10347000BDE8F88338B5F748046800210122084602
:10348000FFF78AFE022200211220FFF785FE0322A9
:1034900000212420FFF780FE042200213620FFF7C0
:1034A0007BFE052200214820FFF776FEEAA20021DC
:1034B0005F20FFF741FEEA480090072350220221D7
:1034C0003020FFF7D9FEE7A206210520FFF734FEE2
:1034D0001020009022460A2306211E20FFF7FBFD44
:1034E00038BD70B50D2202210020FFF779FE0E22B3
:1034F00002211220FFF774FE0F2202212420FFF781
:103500006FFE102202213620FFF76AFE11220221EF
:103510004820FFF765FED44C207828B1012805D05B
:10352000002502280BD00FE0D0A200E0D0A202219B
:103530005A20FFF701FE2078401C207070BDCDA2FC
:1035400002215A20FFF7F8FD257070BD70B50622E4
:1035500002210020FFF744FE012202211220FFF782
:103560003FFE052202212420FFF73AFEC248002434
:10357000BD4D0078012806D0687808B3012821D015
:10358000022823D01AE0BDA202213820FFF7D4FD83
:10359000687820B1012804D002280BD00EE0B3A235
:1035A00000E0B3A202215220FFF7C6FD6878401C5C
:1035B000687070BD0221AFA252200AE06C7070BD2D
:1035C000AFA200E0B1A202213620EDE7B2A20221B3
:1035D0003620FFF7B1FDF1E770B502221146002059
:1035E000FFF7FEFD012202211220FFF7F9FD05225F
:1035F00002212420FFF7F4FD9F4800249A4D007813
:10360000012806D0A87808B3012821D0022823D0A9
:103610001AE09AA202213820FFF78EFDA87820B187
:10362000012804D002280BD00EE090A200E090A266
:1036300002215220FFF780FDA878401CA87070BDC1
:1036400002218CA252200AE0AC7070BD8CA200E076
:103650008EA202213620EDE78FA202213620FFF74D
:103660006BFDF1E72DE9F843804679B30222002192
:103670000846FFF7B5FD012200211220FFF7B0FD3B
:103680007D48794C00250078012822D0E57085A27C
:1036900000212620FFF750FD844F854E10243A88E4
:1036A000B2F5004F2AD383A200215820FFF744FD32
:1036B00000943888022320F4004200216020FFF7A4
:1036C0000AFDD6F82801012825D026E0FFE70622CA
:1036D000CDE7E07870B101280ED077A20021262036
:1036E000FFF72AFDE078401CC0B2E0700328D3D178
:1036F000E570D1E773A2F1E775A2EFE7022300219D
:1037000060200094FFF7E7FC38881E2803D30120CF
:10371000C6F8A00101E0C6F8A051142200217020D3
:10372000FFF75EFD6D4849F640474FF47A76007822
:1037300080B16BA202210020FFF7FEFCB8F1010F5F
:103740002CD06A480288BA4200D33A46B2420DD31E
:10375000042312E066A202210020FFF7EDFCB8F17D
:10376000010F01D06548EDE76548EBE7642A17D300
:10377000032302E0022300E00123022129205B1C35
:103780000094FFF7A8FC5FA204210020FFF7D4FCFF
:103790005F480288B24206D304230DE05D48D1E7BA
:1037A0000A2AE9D3E6E7642A01D3032304E00A2ABC
:1037B00001D3022300E00123042129205B1C009493
:1037C000FFF789FC54A206210020FFF7B5FC5548FD
:1037D0004288B24201D3042308E0642A01D30323C0
:1037E00004E00A2A01D3022300E001230621292054
:1037F0005B1C0094FFF76FFC3AE6F8B500214AA283
:103800000846FFF799FC474C4FF47A77A288BA42F2
:1038100001D3042308E0642A01D3032304E00A2A25
:1038200001D3022300E001231026002129205B1C84
:103830000096FFF750FC41A202210020FFF77CFC1C
:10384000E288BA4201D3042383E0642A7CD30323B1
:103850007FE079E0E8F7FF1F56322E3000000000CD
:103860005902002049443A00940000202E202000F4
:103870002E2E20002E2E2E006500002055534200D3
:103880002E20202020202020000000002E2E20208E
:1038900020202020000000002E2E2E20202020207E
:1038A00000000000202020202020000086000020B2
:1038B000008021422D0000005553422E2E2E202044
:1038C000200000005553422E202020202000000020
:1038D0005553422E2E20202020000000670000209B
:1038E00054544C3A20202020202000006800002062
:1038F00050574D3A20202020202000005800002062
:103900005A000020503A20202020202020000000D3
:103910005C0000206A000020504943313A202020FA
:1039200020202000A00B0020504943323A202020C4
:103930002020202020202020000000005049433378
:103940003A202020202020000A2A01D3022300E070
:103950000123022129205B1C0096FFF7BCFBF7A284
:1039600004210020FFF7E8FB2289BA4201D3042397
:1039700008E0642A01D3032304E00A2A01D30223C6
:1039800000E00123042129205B1C0096FFF7A3FB24
:10399000EDA206210020FFF7CFFB6289BA4201D3D6
:1039A000042308E0642A01D3032304E00A2A01D394
:1039B000022300E00123062129205B1C0096FFF76B
:1039C0008AFBF8BD70B5E448007801282BD0DDA251
:1039D00000210846FFF7B0FB062202210020FFF776
:1039E000FFFB012202211220FFF7FAFB0522022130
:1039F0002420FFF7F5FBD9A204210020FFF79CFB50
:103A0000D94D0124285D01284FEA0410A0F11000CF
:103A1000C0B20BD020220621FFF727FB641CE4B2C2
:103A2000052CEFD970BDAFF2AC12D1E704F1300133
:103A3000CAB2F0E770B5C848007801282BD0C1A2FF
:103A400000210846FFF778FB022211460020FFF70D
:103A5000C7FB012202211220FFF7C2FB052202212F
:103A60002420FFF7BDFBC1A204210020FFF764FB67
:103A7000BD4D0124285D00284FEA0410A0F110007C
:103A8000C0B20BD020220621FFF7EFFA641CE4B28B
:103A9000052CEFD970BDAFF21C22D1E704F1300143
:103AA000CAB2F0E770B5AC480078012830D0A5A2C2
:103AB00000210846FFF740FB002202211046FFF7D5
:103AC0008FFB012202211220FFF78AFB1222022122
:103AD0002420FFF785FB132202213620FFF780FB0D
:103AE000A4A204210020FFF727FBA44D0124285D98
:103AF00000284FEA0410A0F11000C0B20BD0202221
:103B00000621FFF7B2FA641CE4B2052CEFD970BDB0
:103B1000AFF29822CCE704F13001CAB2F0E710B559
:103B2000974C4FF000014FF007022078002808461C
:103B30001BD0FFF779FB082200211220FFF774FB4E
:103B4000092200212420FFF76FFB0A2200213620E2
:103B5000FFF76AFB152200215C20FFF741FB1622CC
:103B600000216E20FFF73CFB1AE0FFF739FB08222B
:103B700000211220FFF734FB092200212420FFF747
:103B80002FFB0A2200213620FFF72AFB15220021F5
:103B90005C20FFF749FB162200216E20FFF744FB53
:103BA000207878A202284FF002014FF0000015D0D3
:103BB000FFF7C2FA2078042813D074A20421002051
:103BC000FFF7BAFA207873A206284FF006014FF0EB
:103BD00000000CD0BDE81040FFF7AEBAFFF7C4FA02
:103BE000E8E76EA204210020FFF7BEFAEAE7BDE88D
:103BF0001040FFF7B9BA10B501281FD007220021E5
:103C00001220FFF7EDFA082200212420FFF7E8FA3E
:103C1000032200213620FFF7E3FA04220021482086
:103C2000FFF7DEFA5F480078C8B1012819D059A221
:103C30000221BDE810400020FFF796BA0B220021B8
:103C40001220FFF7CDFA0C2200212420FFF7C8FA3A
:103C5000072200213620FFF7C3FA0822DEE749A237
:103C6000E6E74AA2E4E72DE9F041064615220021E5
:103C70001220FFF7B5FA162200212420FFF7B0FA30
:103C8000092200213620FFF7ABFA0A220021482042
:103C9000FFF7A6FA032E1BD80124DFF8CC801C27DF
:103CA00018F80400012804F13000C2B204EB44000B
:103CB00007EB8005E8B27CD00421FFF7D6F9E8B223
:103CC00020220221FFF7D1F9641CE4B2052CE7D9C8
:103CD0000024354D012E73D0022E68D0032E67D0FC
:103CE000042E7DD11A2202210020FFF779FA1B222F
:103CF00002211220FFF774FA1C2202212420FFF770
:103D00006FFA1D2202213620FFF76AFA1E220221D5
:103D10004820FFF765FA1F2202215A20FFF760FAB8
:103D2000202202216C20FFF75BFA2879002872D04C
:103D3000012871D0022870D070E03AE05049433435
:103D40003A20202020202000504943353A202020CE
:103D500020202020000000006500002057524F4E18
:103D6000473A2020000000005F00002057524F4ECD
:103D7000472020004C4F53453A202000740000207B
:103D80006C00002050574D202000000054544C2D52
:103D90004820200054544C2D4C20200054544C2DCD
:103DA00048200000670000209400002008E037E071
:103DB0006AE00221FFF759F92022E8B2042181E7E5
:103DC000022211460020FFF72FFA012202211220C1
:103DD000FFF72AFA062204210020FFF701FA00E08B
:103DE00012E0012204211220FFF7FAF9022260E01A
:103DF000012873D0022811D108E006213620FFF7F0
:103E00009BF92879401C2871BDE8F081AFF2785207
:103E10000621362071E064E066E06AE02C71F3E789
:103E2000022211460020FFF7DBF9012202211220B5
:103E3000FFF7D6F9062204210020FFF7D1F901226D
:103E400004211220FFF7CCF9182206210020FFF7E9
:103E5000C7F9192206211020FFF7C2F943A2062153
:103E60002020FFF769F9172206213820FFF7B8F95B
:103E7000192206214820FFF7B3F9BDE8F0410621D9
:103E80003BA25820FFF758B9022211460020FFF745
:103E9000A7F9012202211220FFF7A2F9062204212C
:103EA0000020FFF7C1F9012204211220FFF7BCF91D
:103EB000062206210020FFF793F901220621122095
:103EC000FFF78EF9052206212420FFF789F92879CA
:103ED00000288DD1AFF258628FE7FFE7AFF254624E
:103EE0008BE7AFF2646201E0AFF260620421002070
:103EF00085E7AFF25C6204210020FFF71DF98DE732
:103F00002DE9F041203A00240F468046D5B27F28A3
:103F100003D900208F1C8046FFB23946FFF756F8C0
:103F2000154E04EB05100121305CC043C0B2FFF711
:103F300011F8641CE4B2082CF3D37F1CF9B240469C
:103F4000FFF744F8002404EB051030440121007A07
:103F5000C043C0B2FEF7FEFF641CE4B2082CF2D3EB
:103F600052E70648401EFDD2704700003D4F4B000F
:103F70003D4E455854000000347200088096980069
:103F800038B501211820FCF7F2FC0324ADF80040FD
:103F90008DF8024010258DF8035069460748FCF75C
:103FA000FEFA2020ADF800008DF802408DF8035095
:103FB00069460348FCF7F3FA38BD0000000C0140E5
:103FC0000010014030B50121CC0289B02046FCF739
:103FD000CEFC01210420FCF7CAFCADF81C401820DF
:103FE0008DF81F0003208DF81E0007A92548FCF757
:103FF000D6FAF920ADF814004720ADF810000024DF
:10400000214DADF81640ADF8124004A92846FCF742
:1040100095FD7021ADF800100120ADF802007C2064
:10402000ADF80600ADF8084069462846FCF76AFE80
:1040300008212846FDF728F901212846FDF7DCF87C
:1040400000212846FDF72CF800212846FDF71EF830
:1040500009B030BD10B50C4C01212046FDF720F809
:104060002046BDE810400121FDF710B810B5064C00
:1040700000212046FDF714F82046BDE8104000213D
:10408000FDF704B800080140002C014010B5AD4C0C
:10409000012204212046FDF70EF8012202212046CC
:1040A000FDF709F8012211462046FDF704F8012129
:1040B0002046FDF711FA02212046FDF70DFA0421F2
:1040C0002046FDF709FA2046BDE810400121FCF723
:1040D000DDBF70B588B001210820FCF751FC01213B
:1040E0000420FCF744FC0125ADF81C5028208DF875
:1040F0001F0007A99448FCF752FA32208DF81800E7
:1041000000248DF819408DF81A408DF81B5006A830
:10411000FCF727F940F69F70ADF804004720ADF892
:104120000000884EADF80640ADF802408DF808401A
:1041300069463046FCF702FDADF80C40ADF8105072
:10414000ADF80E40ADF81240ADF8144003A930466A
:10415000FCF733FF00213046FCF798FF00220421D2
:104160003046FCF7A8FF002202213046FCF7A3FFEF
:10417000002201213046FCF79EFF01213046FDF769
:10418000ABF902213046FDF7A7F904213046FDF7CF
:10419000A3F96E480470FFF779FF08B070BD10B541
:1041A000684C00212046FCF771FF002204212046C4
:1041B000FCF781FF002202212046FCF77CFF002251
:1041C00001212046FCF777FF01212046FDF784F905
:1041D00002212046FDF780F92046BDE81040042169
:1041E000FDF77AB910B5574C00212046FCF74EFF79
:1041F000002204212046FCF75EFF00220221204617
:10420000FCF759FF002201212046FCF754FF012151
:104210002046FDF761F902212046FDF75DF92046B1
:10422000BDE810400421FDF757B92DE9F0475020B3
:10423000EFF3118680F31188BFF34F8FBFF36F8FB9
:10424000404F02213846FDF74AF9DFF8008100248B
:104250003F4D4FF0010A012808D102213846FDF7F1
:104260004AF998F8000050B16C70AC7004213846DF
:10427000FDF735F9DFF8DC9001280BD038E0A8789D
:104280000028F3D13846FDF713F9A8802C7085F883
:1042900002A0EBE704213846FDF72DF998F800005D
:1042A00020BBA878012823D13846FDF703F9E88020
:1042B000A988884201D3401A02E0C1F57A61084416
:1042C000254980B2A9F80000096801290FD1A0F59D
:1042D000C861B1F5167F09D86978491CC9B26970FF
:1042E000032904D31D49088088F800A06C70AC70C5
:1042F00001213846FDF7F3F801280FD10121384696
:10430000FDF7F9F82878401CC0B228700A2805D3B8
:104310000A202870A9F80040AC706C7086F31188F0
:10432000BDE8F08708B501210420FCF720FB01203F
:10433000ADF8000028208DF8030069460248FCF71C
:104340002EF908BD000C0040000801405E0000206E
:104350001A0B002058000020700000205A00002096
:1043600000BF00BF00BF00BF00BF00BF00BF00BF55
:1043700000BF00BF00BF00BF00BF00BF00BF00BF45
:1043800000BF00BF00BF00BF00BF00BF00BF00BF35
:1043900000BF00BF00BF00BF00BF00BF00BF00BF25
:1043A00000BF00BF00BF00BF00BF00BF00BF00BF15
:1043B00000BF00BF00BF00BF00BF00BF00BF00BF05
:1043C00000BF00BF00BF00BF00BF00BF00BF00BFF5
:1043D00000BF00BF00BF00BF00BF00BF00BF7047ED
:1043E00070B5C9480024016821F47021016001689A
:1043F00041F480210160C54D03E0641CE4B2FFF785
:10440000AFFFD5F8100110B1C82CF6D30CE0C82CC2
:104410000AD2002403E0641CE4B2FFF7A1FFD5F840
:10442000100118B1F02C04D3012070BDF02CF2D390
:10443000FAE7002070BD002140E000BF00BF00BFD0
:1044400000BF00BF00BF00BF00BF00BF00BF00BF74
:1044500000BF00BF00BF00BF00BF00BF00BF00BF64
:1044600000BF00BF00BF00BF00BF00BF00BF00BF54
:1044700000BF00BF00BF00BF00BF00BF00BF00BF44
:1044800000BF00BF00BF00BF00BF00BF00BF00BF34
:1044900000BF00BF00BF00BF00BF00BF00BF00BF24
:1044A00000BF00BF00BF00BF00BF00BF00BF00BF14
:1044B00000BF00BF00BF00BF00BF491C8142BCD38A
:1044C0007047914810B5016821F4702101600168BE
:1044D00041F4403101608D4C0020C4F8900104F596
:1044E000C87400F08EF801202060BDE810400F2055
:1044F000A1E738B501210820FCF739FA1020ADF802
:1045000000008DF8030003207F4C8DF802006946FF
:104510002046FCF744F810212046FCF7AAF8FFF7E4
:10452000D0FFFFF75DFF38BD2DE9F0410546764825
:10453000016821F470210160016841F4403101609B
:104540000124724E0027A04615F0010F4FEA5505D1
:10455000C6F8907109D0FFF703FFFFF701FFC6F817
:1045600090813C20FFF767FF08E03C20FFF763FFE6
:10457000C6F89081FFF7F4FEFFF7F2FE641CE4B288
:10458000082CE1D9BDE8F08170B5FFF79AFFFFF77D
:1045900027FFCC20FFF7C8FF4420FFF7C5FFFFF738
:1045A00090FFFFF71DFFCC20FFF7BEFFBE20FFF7F7
:1045B000BBFF00F06DF8054600F06AF84FF6FF7299
:1045C000072808D9C043E943C9B202EA0020002401
:1045D0000844401C03E002EA00200124284480B281
:1045E00002F036FC00224A4B02F0C0FB02F03DFC18
:1045F0000A2180B2B0FBF1F0002C01D140F4004060
:1046000070BD00204FF43A7100BF00BF00BF00BF73
:1046100000BF00BF00BF00BF00BF00BF00BF00BFA2
:1046200000BF00BF00BF00BF00BF00BF00BF00BF92
:1046300000BF00BF00BF00BF00BF00BF00BF00BF82
:1046400000BF00BF00BF00BF00BF00BF00BF00BF72
:1046500000BF00BF00BF00BF00BF00BF00BF00BF62
:1046600000BF00BF00BF00BF00BF00BF00BF00BF52
:1046700000BF00BF00BF00BF00BF00BF00BF00BF42
:1046800000BF00BF00BF00BF401C8842BCD97047BC
:1046900070B50025012400F00AF8C001641C40EA4E
:1046A0005500E4B2C5B2082CF5D9284670BD70B5E6
:1046B000154C206820F470202060206840F44030C1
:1046C0002060124D0020C5F8900105F5C875FFF770
:1046D00047FEFFF745FE01202860206820F4702087
:1046E0002060206840F4802020600F20FFF7A3FEA8
:1046F00055F8800C08B1012400E000243C20FFF7AD
:104700009AFE204670BD0000000C0140008021424E
:104710000000E43F2DE9F04F00250426032787B071
:104720000C464FF001084FF018094FF00C0A40F208
:10473000255B06287ED2DFE800F07D034780B8F1D4
:10474000012144F20400FCF712F94FF40070ADF8B7
:1047500010008DF81390DFF834948DF8127004A9CE
:104760004846FBF71CFF4FF48060ADF810008DF851
:1047700013608DF8127004A94846FBF710FFADF8DE
:104780000450ADF808500094ADF80650ADF80C5048
:10479000ADF80AA06946FE4C2046FCF7DFFE252056
:1047A0008DF8140007218DF815108DF816508DF82E
:1047B000178005A8FBF7D5FD012259462046FCF7D6
:1047C0004AFF01212046FCE001210420FCF7CFF83C
:1047D00001214804FCF7D4F8ADF810608DF813906F
:1047E0008DF81270E94F04A93846FBF7D8FE08206F
:1047F000ADF810008DF8136004A93846FBF7CFFE22
:1048000026208DF8140007208DF815008DF816501D
:104810008DF8178005A8FBF7A4FDADF80450ADF89E
:1048200008500094ADF80650ADF80C50ADF80AA051
:10483000694600E0C7E0D74DA5E001210820FCF75C
:1048400096F801218804FCF79BF84FF48060ADF8DE
:1048500010008DF813908DF81270CF4F04A93846D0
:10486000FBF79DFEF814ADF810008DF8136004A955
:104870003846FBF794FE27208DF814008DF815506C
:104880008DF816508DF8178005A8FBF76AFDADF876
:104890000450ADF80850ADF80650ADF80C50009437
:1048A000ADF80AA06946BD4D6DE001211020FCF76E
:1048B0005EF80121C804FCF763F84FF48060ADF89E
:1048C00010008DF813908DF81270B54F04A938467A
:1048D000FBF765FEF814ADF810008DF8136004A91D
:1048E0003846FBF75CFE34208DF814008DF8155027
:1048F0008DF816508DF8178005A8FBF732FDADF83E
:104900000450ADF80850ADF80650ADF80C500094C6
:10491000ADF80AA06946A34D35E0FFE7012108057F
:10492000FCF72EF801213020FCF721F84FF48050DD
:10493000ADF810008DF813908DF8127004A9984806
:10494000FBF72DFEADF810608DF8136004A99648B2
:10495000FBF725FE35208DF814008DF815508DF8E5
:1049600016508DF8178005A8FBF7FBFCADF8045036
:10497000ADF80650ADF80850ADF80C508B4D0094D2
:10498000ADF80AA069462846FCF7E8FD00225C461F
:1049900059462846FCF75FFE20212846FCF70FFF0A
:1049A000012240F226612846FCF755FE40212846A8
:1049B000FCF705FF012221462846FCF74CFE0121A9
:1049C0002846FCF73EFE07B0BDE8F08F38B50D462F
:1049D000012803D0764C02280AD10DE06C4C204609
:1049E000FCF785FE40212046FCF7E2FE0028F9D0C6
:1049F00038BD012001F00DFA20780128F9D08DF89A
:104A00000050C4F80CD00021E1800120207040212A
:104A10006048FCF7D4FEE0685E4A121D10F8011BE6
:104A20001180E06038BD70B50C46012803D0604DA0
:104A3000022810D113E0564E21783046FCF757FE7D
:104A400040213046FCF7B4FE0028F9D06D1CADB211
:104A5000605D0028F0D170BD012001F0DAF92878FE
:104A60000128F9D00020534A05E01154401C80B2BF
:104A7000641C8028EFD021780029F6D18028EAD262
:104A80001154E880EA600028E5D0401EE88001204B
:104A9000287040213F48FCF792FEE8683D4A121D0D
:104AA00010F8011B1180E86070BD2DE9F041164639
:104AB0000C46012803D03E4D022812D116E00025F5
:104AC000334F0CE021783846FCF711FE4021384680
:104AD000FCF76EFE0028F9D06D1CADB2641CB54227
:104AE000F0D3BDE8F081012001F093F92878012886
:104AF000F9D030490020803104E014F8012B0A5429
:104B0000401C80B2B042F8D3EE80E960002EE8D0BD
:104B1000761EEE800120287040211E48FCF74FFED3
:104B2000E8681C4A121D10F8011B1180E860D8E7E4
:104B300070B5174D0446C1B22846FCF7D8FD402198
:104B40002846FCF735FE0028F9D0204670BD10B588
:104B50000F4C20212046FCF72BFE0028F9D02046E0
:104B6000BDE81040FCF7C7BD70B55020EFF31184CD
:104B700080F31188BFF34F8FBFF36F8F044D40F266
:104B8000255631462846FCF71DFE15E00008014079
:104B90000038014000440040000C01400048004043
:104BA00000100140004C0040001401400050004043
:104BB000240B0020740C002098B12846FCF79BFDC4
:104BC000434A0146A2F1100358881154401C00F0DA
:104BD00007029888904200D05A8031462846FCF758
:104BE00010FE31462846FCF7EDFD18B13146284647
:104BF000FCF707FE08212846FCF7DAFD012806D15C
:104C000008212846FCF7DBFD2846FCF774FD84F3F9
:104C1000118870BD2DE9F0415020EFF3118480F32D
:104C20001188BFF34F8FBFF36F8F2A4E40F2255785
:104C300039463046FCF7C6FD254D103DA0B1304643
:104C4000FCF759FD0146244A28891154C821401C0B
:104C5000B0FBF1F201FB12006989814200D028818A
:104C600039463046FCF7CDFD39463046FCF7AAFD03
:104C700018B139463046FCF7C4FD08213046FCF730
:104C800097FD012806D108213046FCF798FD3046F3
:104C9000FCF731FD40F2266739463046FCF792FDBD
:104CA00001280AD1E88858B1E9680A4B1B1D11F8A0
:104CB000012B1A80401EE960E88084F3118810E718
:104CC0000020287039463046FCF79BFDF5E70000D0
:104CD000340B002000440040AC0B002010B518201D
:104CE00001F052FE040004D000202060201D00F0DE
:104CF00087F9204610BD2DE9F041002588460400C3
:104D000005D140F21D22B0A1B8A002F097F95FEAE8
:104D1000186005D040F21E22ABA1B4A002F08EF9BB
:104D2000261D04F10C0701F011F82168F06841EA32
:104D30000801216017E0D0E9001601F07F4253011D
:104D4000236821F07F4102D40B4203D10AE031EA0B
:104D5000030307D1D20100D50D43216841F0007152
:104D600001F006FB3046B842E5D12068A843206038
:104D700000F05EFF2068BDE8F0812DE9F0410446B7
:104D80001F4615468846100E04D0D7228EA197A044
:104D900002F054F925B9D8228BA194A002F04EF963
:104DA00001F068FB28B927B1DB2287A18FA002F0B0
:104DB00045F900F0CBFF204641462668FFF79BFFF0
:104DC00046EA080635EA060008D067B145F0A0615A
:104DD0003A46201D01F071FA002605E02068A8433C
:104DE0000027206000E0266800F022FFD7B138B924
:104DF00082494FF080500860BFF34F8FBFF36F8F31
:104E000001F043FB064680010AD401F013FF266837
:104E100035EA060002D126EA0500206001F024FFF1
:104E200026F07F463046A6E72DE9F0479A46089FD0
:104E300091460D4604004FF0000605D140F24D1298
:104E400061A16AA002F0FAF8280E05D04FF4A7720B
:104E50005DA166A002F0F2F82DB940F24F125AA1FE
:104E600062A002F0EBF801F005FB30B92FB14FF46E
:104E7000A97255A15DA002F0E1F800F067FFD4F837
:104E8000008052462946404600F094F840B1002781
:104E90004646B9F1000F15D02068A843206011E004
:104EA000AFB1B9F1000F01D04FF08076BAF1000F29
:104EB00001D046F0806645EA06013A46201D01F021
:104EC000FCF9002600F0B4FE1FB310B109E046461D
:104ED000F8E74A494FF080500860BFF34F8FBFF3A7
:104EE0006F8F01F0D2FA0646800110D401F0A2FEC5
:104EF000266852462946304600F05CF828B1B9F1E0
:104F0000000F02D02068A843206001F0ADFE26F01B
:104F10007F463046BDE8F08770B50E46040005D1E7
:104F200040F2DF1228A131A002F088F8300E05D03F
:104F30004FF4F07224A12DA002F080F801F07AFE67
:104F4000256825EA0600206001F08EFE284670BD27
:104F50005022EFF3118182F31188BFF34F8FBFF31B
:104F60006F8F006881F3118870472DE9F041064684
:104F7000041D00F0EBFE04F1080540F27D274FF020
:104F800000780BE0E068A84204D13A460EA117A0D1
:104F900002F054F84146E06801F0EAF92068002880
:104FA000F0D1304601F05BFDBDE8F04100F040BEBD
:104FB000A1E6B1E70346002012B1994302D0704741
:104FC0000B42FCD0012070472E2E5C2E2E5C4672C8
:104FD000656552544F535C7372635C6576656E749D
:104FE0005F67726F7570732E630000004572726F99
:104FF000723A25732C25640D0A00000004ED00E0D0
:1050000000F108014FF0FF32C0E90112C1600161F7
:1050100000210160704700210161704742684A60C9
:1050200093688B6093685960916008610168491CBE
:105030000160704730B50C68621C02D000F10802B4
:1050400002E0026904E01A4653681D68A542FAD9D5
:1050500053684B6099608A60516008610168491C1F
:10506000016030BDD0E9013201699A60D0E90123C5
:105070005A604A68824201D182684A600022026115
:105080000868401E0860704770B50D46040005D1E1
:105090004FF48E72F3A1FAA001F0D0FF01F0CAFD27
:1050A000D4E90F20216802FB001161600021A16397
:1050B0002168A1600A46D4E90F01401E00FB0121CE
:1050C000E16021464FF0FF3001F8440F487004F1D1
:1050D00010004DB1FFF794FF04F12400FFF790FF9B
:1050E00001F0C2FD012070BD21690029F8D001F056
:1050F0000BF90028F4D0E6494FF080500860BFF368
:105100004F8FBFF36F8FEBE770B50E46050005D1EB
:1051100040F28912D3A1DAA001F090FFA6B105FBFD
:1051200006F04C3001F030FC04000CD004F14C00CF
:1051300066B12060C4E90F5620460121FFF7A4FFA5
:1051400000212046A16470BD0020EAE72460F1E759
:105150002DE9F041856B164604460027026CFAB132
:105160007EB1E06801F0F0FDE168206C091AE160B1
:105170002268914202D26168081AE060022E0DD0C6
:105180000EE0A06801F0E0FD216CA0680844A0607A
:105190006168884204D32068A06001E005B16D1EFB
:1051A0006D1CA5633846BDE8F0812DE9F3410F463B
:1051B00000980026846C2CB940F6CF12A9A1B0A0AB
:1051C00001F03CFFA06BE16B884205D34FF41D62F8
:1051D000A4A1ABA001F032FFA06BE16B88420CD21E
:1051E00094F945503A4669462046FFF7B1FF064616
:1051F000681C05D06D1C84F845503046BDE8FC8124
:10520000606A0028F9D004F1240001F07DF800283C
:10521000F3D00126F1E72DE9F041044601F00AFD43
:1052200094F9455004F1240610E0A06C20B100214F
:105230002046FFF7BAFF04E0606A48B1304601F04B
:1052400063F808B101F012F96D1E6DB2002DECDCAF
:105250004FF0FF3684F8456001F006FD01F0EAFCEE
:1052600094F9445004F1100709E0206948B1384628
:1052700001F04AF808B101F0F9F86D1E6DB2002D89
:10528000F3DC84F84460BDE8F04101F0EDBC2DE9A9
:10529000FF4F83B099468B4604004FF0000605D1BE
:1052A00040F2DA226FA176A001F0C8FEBBF1000F38
:1052B00007D1206C28B140F2DB226AA170A001F076
:1052C000BDFEB9F1020F08D1E06B012805D04FF403
:1052D000377264A16AA001F0B1FE01F0CBF838B9D1
:1052E000059828B140F2DF225EA165A001F0A6FE7C
:1052F0004FF0000A4FF08057DFF8948101F09AFCDC
:10530000A06BE16B884206D3B9F1020F03D0059878
:1053100000B316B325E04A4659462046FFF718FF6A
:10532000A16C21B149462046FFF73FFF05E0616AC5
:1053300019B104F1240000F0E7FF28B1C8F80070AB
:10534000BFF34F8FBFF36F8F01F08EFC012007B0CA
:10535000BDE8F08F01F088FC21E0684601F042F8DA
:10536000012601F081FC00F0F1FC01F063FC94F9EE
:105370004400401C01D184F844A094F94500401C2D
:1053800001D184F845A001F06FFC05A9684601F041
:105390003AF830B12046FFF73EFF00F049FC00200C
:1053A000D5E701F047FCA06BE16B884201D10125F4
:1053B00000E0002501F058FC95B104F110000599BA
:1053C00000F064FF2046FFF726FF00F031FC0028C4
:1053D00094D1C8F80070BFF34F8FBFF36F8F8DE784
:1053E0002046FFF718FF00F023FC87E72DE9F04780
:1053F000984615468946040005D14FF4687219A1F4
:105400001FA001F01BFEB9F1000F07D1206C28B1DD
:1054100040F2A13213A11AA001F010FEB8F1020F60
:1054200008D1E06B012805D040F2A2320DA114A0F2
:1054300001F004FE01F03DFC5020EFF3118780F3F2
:105440001188BFF34F8FBFF36F8FA06BE16B884262
:1054500020D3B8F1020F1DD0002087F31188BDE8DA
:10546000F08700002E2E5C2E2E5C4672656552542D
:105470004F535C7372635C71756575652E630000D4
:105480004572726F723A25732C25640D0A00000074
:1054900004ED00E094F94560424649462046FFF796
:1054A00057FE701C04D0761C84F845600120D4E7B8
:1054B000A06C012620B141462046FFF776FE06E0AB
:1054C000606A0028F2D004F1240000F01DFF0028DB
:1054D000ECD0002DEAD02E60E8E72DE9F0410D4632
:1054E000040007D140F23D42AFF28801AFF27000F4
:1054F00001F0A4FD206C38B140F24142AFF29C01B2
:10550000AFF2840001F09AFD206848B9606838B1B4
:1055100040F24642AFF2B401AFF29C0001F08EFDC2
:1055200001F0C7FB5020EFF3118680F31188BFF321
:105530004F8FBFF36F8FA16BE06B88421FD994F937
:105540004500491CA163411C04D0401C84F845005F
:10555000012015E0A06C012720B100212046FFF7B3
:1055600024FE06E0606A0028F2D004F1240000F076
:10557000CBFE0028ECD0002DEAD02F60E8E7002019
:1055800086F311880FE630B4026C0B46002A0BD06C
:10559000C1681144C1604468A14201D30168C1607F
:1055A00030BC184601F0D0BB30BC70472DE9FF4F2E
:1055B00083B09B468A4604004FF0000607D140F2B4
:1055C000DD42AFF26011AFF2481001F037FDBAF1E1
:1055D000000F09D1206C38B140F2DE42AFF27C11ED
:1055E000AFF2641001F02AFD00F044FF48B90598BD
:1055F00038B140F2E142AFF29411AFF27C1001F009
:105600001DFD4FF000094FF08057DFF8B48301F023
:1056100011FBA56B0DB351462046E668FFF7B3FFBB
:10562000BBF1000F11D0E660606A50B104F12400B4
:1056300000F06AFE28B1C8F80070BFF34F8FBFF3C7
:105640006F8F01F011FB012081E66D1EA5632069BB
:105650000028F6D004F11000EAE7059808B11EB161
:1056600006E001F001FB27E0684600F0BBFE0126E2
:1056700001F0FAFA00F06AFB01F0DCFA94F9440058
:10568000401C01D184F8449094F94500401C01D19C
:1056900084F8459001F0E8FA05A9684600F0B3FEE9
:1056A000002820460AD0FFF7B6FD00F0C1FA2046D8
:1056B00000F079F90028AAD0002048E600F073F93C
:1056C00090B104F12400059900F0E0FD2046FFF7B9
:1056D000A2FD00F0ADFA002899D1C8F80070BFF320
:1056E0004F8FBFF36F8F92E72046FFF794FD00F0D6
:1056F0009FFA8CE72DE9F04790468946040007D1D0
:1057000040F2A152AFF2A421AFF28C2001F096FC3E
:10571000B9F1000F09D1206C38B140F2A252AFF2BA
:10572000BC21AFF2A42001F089FC01F0C2FA5020A4
:10573000EFF3118780F31188BFF34F8FBFF36F8FA3
:10574000A66BF6B194F9445049462046FFF71BFF7B
:10575000761EA663681C04D06D1C84F8445001209A
:1057600010E020690028FAD004F1100000F0CCFD10
:105770000028F4D0B8F1000FF1D00121C8F80010D2
:10578000EDE7002087F3118869E62DE9F0410E4628
:10579000040007D140F2FD52AFF23831AFF22030B1
:1057A00001F04CFC4EB9206C48B140F2FE52AFF211
:1057B0004C31AFF2343001F041FC206C38B940F28A
:1057C000FF52AFF26031AFF2483001F037FC01F028
:1057D00070FA5020EFF3118580F31188BFF34F8FDB
:1057E000BFF36F8FA06B30B131462046E768FFF7FB
:1057F000CAFE0120E76085F31188D4E410B50400E7
:1058000007D14FF4C662AFF2A431AFF28C3001F091
:1058100015FC01F00FFAA46B01F026FA204610BD2A
:1058200010B5040007D140F24262AFF2C831AFF2C6
:10583000B03001F003FC01F0FDF9D4E90E10441A78
:1058400001F012FA204610BD10B5040007D140F255
:105850005262AFF2F031AFF2D83001F0EFFBA06B43
:1058600010BD584A002102EBC1035B68834206D198
:10587000002042F8310002EBC10148607047491C2A
:105880000A29F0D3704710B5040007D140F25E62D8
:10589000AFF23041AFF2184001F0D0FB2046FFF7E5
:1058A000E0FF2046BDE8104001F0D9B810B5040073
:1058B00007D140F29472AFF25441AFF23C4001F094
:1058C000BDFBA06B08B1002010BD012010BD10B5BC
:1058D000040007D140F2BB72AFF27841AFF26040F2
:1058E00001F0ACFBA06BE16B884201D1012010BD3F
:1058F000002010BD10B5334B002253F832401CB1CC
:10590000521C0A2AF9D310BD43F8321003EBC2012E
:10591000486010BD10B500242A4A214602EBC1039D
:105920005B68834202D152F8314002E0491C0A29E7
:10593000F4D3204610BD00220421FFF7E5BB70B56B
:105940000D46044601F076F9A06C08B9A06B08B1C9
:10595000002401E0A564012401F086F9204670BD11
:1059600010B50446806C884201D1A06B08B10020BC
:1059700010BD01F05FF90020A06401F075F901206D
:1059800010BD08B500230A4669460093FFF70EFED6
:10599000009808BD08B500210A4600916946FFF746
:1059A000A9FE009808BD10B5044601F043F9A06BAC
:1059B00020B1002401F058F9204610BD0124F9E778
:1059C00004ED00E0740D00202DE9F041054601F0E2
:1059D00031F9FE4EB068401CB0603068FC4F10B129
:1059E000706930B32BE03560B068012827D10024FE
:1059F00004EB840007EB8000FFF702FB641C102C13
:105A0000F6D3F448FFF7FCFAF2481430FFF7F8FA3F
:105A1000F0482830FFF7F4FAEE483C30FFF7F0FA90
:105A2000EC485030FFF7ECFAEA4870631430B0638A
:105A300005E03068E96AC06A884200D83560706A5B
:105A40000121401C7062E86A326981401143316172
:105A500000EB800007EB8000291DFFF7DFFA01F063
:105A600003F9706900280CD03068E96AC06A88427E
:105A700007D2D9494FF080500860BFF34F8FBFF372
:105A80006F8FBDE8F0812DE9FF5F8346DDE90E876A
:105A9000994616468A46900000F076FF05001AD017
:105AA0004C2000F071FF040012D025630021CDE9E5
:105AB0000241CDE900874B4632465146584600F038
:105AC000A1FE2046FFF780FF012004B0BDE8F09F53
:105AD000284600F0C4FF4FF0FF30F6E770B50446EB
