:020000040803EF
:10500000E0F10020DD510308AD5B0308AF5B03084E
:10501000B15B0308B35B0308B55B03080000000045
:1050200000000000000000000000000045510308DF
:10503000B75B03080000000089510308B95B03084F
:10504000F7510308F7510308F7510308F751030814
:10505000F7510308F7510308F75103087B7403085D
:10506000F75103089F730308F7510308F75103082A
:10507000F7510308F7510308F7510308F7510308E4
:10508000F7510308F7510308F7510308F7510308D4
:10509000F7510308F7510308F7510308F7510308C4
:1050A000F7510308F7510308F7510308F7510308B4
:1050B000F7510308F7510308F7510308F7510308A4
:1050C000F7510308F7510308F7510308F751030894
:1050D000F751030873A0030819A103088BA1030863
:1050E000F7510308F7510308F7510308F751030874
:1050F000F7510308F7510308F7510308F751030864
:10510000F751030877B80308F7510308F75103086C
:10511000F7510308F7510308F7510308F751030843
:10512000F7510308F7510308F7510308F751030833
:10513000DFF80CD011F026F800480047D1580308DA
:10514000E0F10020224B19680868B0E8F00F80F306
:105150000988BFF36F8F4FF0000080F311884EF085
:105160000D0E70470000000006480068006880F3DC
:10517000088862B661B6BFF34F8FBFF36F8F00DF51
:1051800000BF00BF08ED00E0EFF30980BFF36F8FB1
:105190000F4B1A6820E9F00F106008B54FF050006F
:1051A00080F31188BFF34F8FBFF36F8F0BF0D2F9ED
:1051B0004FF0000080F31188BDE8084019680868C6
:1051C000B0E8F00F80F30988BFF36F8F704700BF1E
:1051D00074070020EFF30580704700000648804701
:1051E00006480047FEE7FEE7FEE7FEE7FEE7FEE7CC
:1051F000FEE7FEE7FEE7FEE7BD16040831510308AF
:105200002DE9F0410446212110F0D9FB04F12100E1
:105210001121054610F0D3FB04F13200212106468E
:1052200010F0CDFB04F153004121074610F0C7FBFD
:10523000EDA1204610F0EFFBEEA1284610F0EBFBAD
:10524000EEA1304610F0E7FBF4A1384610F0E3FB86
:10525000F7A1204610F0D1FB78B1F9A1284610F053
:10526000CCFB50B1F9A1304610F0C7FB28B1FBA12F
:10527000384610F0C2FB002806D1BDE8F041FD4AD7
:10528000FD48114604F0DCBEBDE8F0810A4610B5C9
:105290000146032004F06EFE002010BD0A460146C0
:1052A000032004F032BE8CB00026F44DF44C099675
:1052B000ADF8286061274FF075094FF0740A4FF080
:1052C000300BF0480078022816D02F7085F8019036
:1052D000042885F802A085F803B04FF0200028715B
:1052E00018D0332068717320A871E748EE71E74A3F
:1052F0000078022810D010E05320287049206870F0
:105300004720A8704E20E870412028714C20687119
:10531000AE71EAE73220E5E7D21CDC481838008895
:10532000B0F5004F04D32D218DF8241080B202E097
:105330002B218DF82410E388B4F80AC0B4F8088053
:10534000A188CDE90513CDE9078CD14B6188B3F86D
:1053500000C0D04B1B780090CDE90153CDE903C1CB
:10536000C64809ABCC490A3010F0AAFFC3490A313C
:1053700001F2F22006F013FEC0480A3010F036FBAE
:10538000BE49401C82B20A310AAB01F2F22006F09B
:10539000C1FDBA480A3010F029FBB849401C82B25E
:1053A0000A310AAB01F2F22007F07DFA4FF47A706D
:1053B00009F0B7FB85E74FF480642146B748FFF753
:1053C0006DFF002805DDB54982B201F5F26006F0F7
:1053D000FCFB012009F0A5FBEFE710B504F026FE69
:1053E0004FF47A31032004F06DFC4FF41651022083
:1053F00004F068FC01F096FF01F0F8FF9F48943834
:10540000FFF7FEFE9D49943901F5647006F0A4FB98
:10541000AFF28711A24806F0DAFBA14806F065FD5D
:10542000A0499F4806F0F5FD9F4802789F48016813
:105430009B4806F0E9FD9E49994806F0EEFD9D491E
:10544000974806F0EEFD964806F05FFE9A499448AC
:1054500006F06EFE9949924807F021F99849904864
:1054600007F0ECF997498E4807F00DFA87480121BB
:10547000163802220170427003228270C170BDE8AA
:10548000104006F094BBF0B5027986790025438878
:10549000447931444FF4C8774FF0640C012A1CD092
:1054A000032A1AD0052A18D0072A16D0082A14D0A1
:1054B0000A2A12D00C2A10D0042A26D0062A24D078
:1054C000092A22D00B2A20D093FBF7F607FB1636C9
:1054D0001F250EB39E071AD020E01F26032A02D0F4
:1054E000082A10D01BE093FBF7F507FB153535B103
:1054F0009D0706D193FBFCF50CFB15350DB11D2561
:105500000DE01C250BE01F2509E01E26FBE793FBA1
:10551000FCF60CFB16360EB11D2600E01C261829E1
:1055200009DB1839641CB44205DDA41B521C0C2A8B
:1055300001DD0C3A5B1C002909DA1831641E012CCC
:1055400005DA521E2C46012A01DA0C225B1E544D4C
:10555000F23D6B802A716C71A971C179E971017A90
:105560002972D0F80B00C5F80B00F0BD4FF0010A0E
:10557000DFF854B192B00025D146544800680128A4
:1055800021D1BAF1010F1ED109F07CFA4FF47A71E2
:105590004843B0FBF1F13D4E4148183EB16001F087
:1055A0007EFC4B4C00221346606EA16E10F072FC24
:1055B00005D0A16E606EC6E904014FF0000A4FF4F9
:1055C000FA7009F0AEFA022009F0ABFA012401F0FA
:1055D00049FF0028D1D009F055FA4FF47A714843B9
:1055E000B0FBF1F1294875E053484152452D313067
:1055F0003153000036353138370000006633373913
:105600003233613562326639343437376465666403
:10561000383137383365663130303500313835351B
:1056200034303136373636403132362E636F6D00C6
:10563000796F75725F6170705F6E616D65000000FB
:10564000796F75725F6170705F696400796F7572F0
:105650005F6170705F6B657900000000796F757233
:105660005F646576656C6F7065725F6163636F75AB
:105670006E7400000E6C0408FC430708A00C0020A8
:10568000D81A002093010020760100201800002085
:10569000820100209D010020504407080C080020D2
:1056A0009C0F0020CD5B0308D46F040898000020F5
:1056B000F15B0308415C03080C7004085470040893
:1056C0006072040834730408C20100204C010020F9
:1056D000801900201838604A8160604E82F800907E
:1056E0004FF4FA678046022009F01BFAD8F8080048
:1056F0003168884224D2081AB84220D25848D8F8D3
:10570000081001F0CCFB08215648FFF7BCFE564CB0
:105710002078B8B90020554A01461154401CC0B247
:105720001428FAD34E48F23841790091037942881F
:105730004FA14E4810F0C4FD84F8009002E0002410
:10574000002D79D09BF8000000250228284654D06F
:105750004B4A00211154401CC0B2C828FAD3484813
:105760000790484800780090F0B3474C666EA16EF1
:10577000D8E904230F463046483410F035FA024683
:1057800037488E46F238D0F80BC090F80880C379BD
:105790008179CDE90E13CDE9108C417903794088E8
:1057A000DDF800C0CDF828C00D91CDE90B03CDE99F
:1057B000082EB4F90400B4F90210B4F900200296DE
:1057C000CDE90510CDE90372A1696069CDE9000159
:1057D000E26823692D49079810F072FD9BF80010CC
:1057E000022913D0022100E013E08BF800101C48BE
:1057F0000799CB3810F00FF917E0254A0021115412
:10580000401CC0B2C828FAD32148A9E78BF8009001
:10581000EDE713490798CB3910F0FDF89BF800101D
:10582000022906D002218BF8001004F00DFEA4E638
:1058300002E08BF80090F8E7002C7FF454AF9CE670
:1058400014480168491C01607047134A0B46114611
:1058500012A004F0F5BB000042010020540100201A
:105860009C0F0020B01A0020C0010020D4010020AD
:105870002534642E253032642E2530326400000039
:10588000D02800209D01002080190020AC4407088A
:1058900008280020780100201D6C04085B25735D3A
:1058A0005B44656275675D5B25735D2DE4BBBBE59D
:1058B0008AA1EFBC9A257320E58F91E78EB0E6A010
:1058C00088E6BAA2E587BA5C720A0D0A0D0A0000E2
:1058D00001F012FD01F0F0FDFFF77FFD00215148BE
:1058E00009F0DCF85049086051495048086009F057
:1058F000BBF8FEE710B50BF020FE09F0CBFC4A4CDC
:105900000021A0634748103809F0D2FAE063454807
:105910000021083809F0CCFA2064424800211430F4
:1059200009F0BCF8606010B142A004F089FB3D486A
:105930000021283009F0B2F8A06010B145A004F0B1
:105940007FFB384800213C3009F0A8F8E06010B136
:1059500048A004F075FB33480021503009F09EF850
:10596000206110B14BA004F06BFB2E480021643085
:1059700009F094F8606110B14EA004F061FB294871
:105980000021783009F08AF8A06110B151A004F02C
:1059900057FB244800218C3009F080F8E06110B1F9
:1059A00053A004F04DFB1F480021A03009F076F809
:1059B000206210B157A004F043FB1A480021B43014
:1059C00009F06CF8606210B15AA004F039FB154878
:1059D0000021C83009F062F8A06210B15DA004F0A7
:1059E0002FFB0021634809F059F8606361480021EA
:1059F000283809F053F8E06210B15FA004F020FBF2
:105A00005C480021143809F049F8206310B161A006
:105A100004F016FB206809F05AF8BDE810400BF0BE
:105A2000A8BD00004C6C04082C00002000500308A6
:105A300008ED00E02424E5889BE5BBBA4F4C4544C3
:105A40005F5441534BE4BBBBE58AA1E68890E58AED
:105A50009F0D0A002424E5889BE5BBBA4B45595F9E
:105A60005441534BE4BBBBE58AA1E68890E58A9F8D
:105A70000D0A00002424E5889BE5BBBA43414D5F35
:105A80005441534BE4BBBBE58AA1E68890E58A9F6D
:105A90000D0A00002424E5889BE5BBBA5247425F0B
:105AA0005441534BE4BBBBE58AA1E68890E58A9F4D
:105AB0000D0A00002424E5889BE5BBBA52554E5FD1
:105AC0005441534BE4BBBBE58AA1E68890E58A9F2D
:105AD0000D0A0000242443616D5F73746174757353
:105AE0005F7570646174655F5441534B0D0A00002B
:105AF0002424E5889BE5BBBA545249474745525F89
:105B00005441534BE4BBBBE58AA1E68890E58A9FEC
:105B10000D0A00002424E5889BE5BBBA46414E5F90
:105B20005441534BE4BBBBE58AA1E68890E58A9FCC
:105B30000D0A00002424E5889BE5BBBA54454D506E
:105B40005F5441534BE4BBBBE58AA1E68890E58AEC
:105B50009F0D0A002424E5889BE5BBBA534A5F5495
:105B600041534BE4BBBBE58AA1E68890E58A9F0DD3
:105B70000A000000506D040850726F636573735023
:105B800073646B5265635461736B20697320727523
:105B90006E0D0A005073646B546573745461736BBB
:105BA0002069732072756E0D0A0000007047FEE7D1
:105BB000FEE7FEE7FEE7704710B50BF00DF8012891
:105BC00003D0BDE810400BF0E5BC10BD10B50C468D
:105BD0000A46014695480FF0D9FE94490020944AA0
:105BE00008550B46BDE81040114692A004F028BAB3
:105BF0009B480C290DD2DFE801F006090C0E1117A5
:105C00000C0C1D201A14D0F8010001E0D0F811008E
:105C1000106000207047D0F80500F9E7D0F80900BF
:105C2000F6E7D0F82100F3E7D0F80D00F0E7D0F860
:105C30001D00EDE7D0F81500EAE7D0F81900E7E716
:105C400070B5874E15460024B06A04EB840202EB5F
:105C5000C40200EB820252788A4203D0641CE4B290
:105C60000C2CF2D30C2935D2DFE801F03543065174
:105C70005D7115249DB387672868012801D028B17C
:105C8000BEE06B4A77A01E32114621E0684A7FA031
:105C90001E3211461CE02868012801D028B1AFE06F
:105CA000634A84A01E32114612E0614A8BA01E3264
:105CB00011460DE02868012801D028B1A0E05C4A17
:105CC00090A01E32114603E0594A98A01E32114698
:105CD00004F0B6F992E0564A9EA01E32114604F036
:105CE000AFF92868012801D00028C9D1C6F8010001
:105CF00084E04F4A9FA01E32114604F0A1F92868A3
:105D0000012801D000287BD1C6F8110076E0484A6E
:105D1000A0A01E32114604F093F9286865286FD2BE
:105D2000C6F805006AE0424AA2A01E32114604F0FD
:105D300087F92868C6F8090060E03D4AA5A01E3230
:105D4000114604F07DF92868C6F8210056E0384A6B
:105D5000A8A01E32114604F073F904EB8401B26A64
:105D600001EBC40102EB81012868097A884247DA15
:105D7000002845DBC6F80D0040E02D4AA5A01E32E4
:105D8000114604F05DF904EB8401B26A01EBC40131
:105D900002EB81012868097A884231DA00282FDB7A
:105DA000C6F81D002AE0224AA2A01E32114604F0C5
:105DB00047F904EB8401B26A01EBC40102EB8101F3
:105DC0002868097A88421BDA002819DBC6F8150012
:105DD00014E0174A9FA01E32114604F031F904EB7B
:105DE0008401B26A01EBC40102EB81012868097ADF
:105DF000884205DA002803DBC6F81900002070BDD0
:105E0000042070BD70B5164B0D4615491B7814461D
:105E1000037020222C3128460FF0DCFD104920228F
:105E20004C3120460FF0D6FD002070BD80150020BB
:105E3000D56F04085B25735D5B44656275675D5BC8
:105E400025735D2D526563656976652066726F6D99
:105E5000204170703A2025730D0A0D0A00000000E1
:105E6000700000205B25735D5B44656275675D5B58
:105E700025735D2D427574746F6E31205072657399
:105E80007320446F776E0D0A0D0A00005B25735D69
:105E90005B44656275675D5B25735D2D4275747447
:105EA0006F6E312052656C656173652055700D0A07
:105EB0000D0A00005B25735D5B44656275675D5B81
:105EC00025735D2D427574746F6E32205072657348
:105ED0007320446F776E0D0A0D0A00005B25735D19
:105EE0005B44656275675D5B25735D2D42757474F7
:105EF0006F6E322052656C656173652055700D0AB6
:105F00000D0A00005B25735D5B44656275675D5B30
:105F100025735D2D427574746F6E332050726573F6
:105F20007320446F776E0D0A0D0A00005B25735DC8
:105F30005B44656275675D5B25735D2D42757474A6
:105F40006F6E332052656C656173652055700D0A64
:105F50000D0A00005B25735D5B44656275675D5BE0
:105F600025735D2D53776974636831204F70740D0C
:105F70000A0D0A005B25735D5B44656275675D5BB6
:105F800025735D2D53776974636832204F70740DEB
:105F90000A0D0A005B25735D5B44656275675D5B96
:105FA00025735D2D5363616C6531204F70740D0A4C
:105FB0000D0A00005B25735D5B44656275675D5B80
:105FC00025735D2D496E70757431204F70740D0A04
:105FD0000D0A00005B25735D5B44656275675D5B60
:105FE00025735D2D496E70757432204F70740D0AE3
:105FF0000D0A00005B25735D5B44656275675D5B40
:1060000025735D2D4C69737431204F70740D0A0D2A
:106010000A0000005B25735D5B44656275675D5B2C
:1060200025735D2D4C69737432204F70740D0A0D09
:106030000A0000005B25735D5B44656275675D5B0C
:1060400025735D2D4C69737433204F70740D0A0DE8
:106050000A0000005B25735D5B44656275675D5BEC
:1060600025735D2D4C69737434204F70740D0A0DC7
:106070000A00000070477047002008700120487037
:10608000704770477047704770477047704770B5EA
:1060900086B0044608F0F6FC4FF47A714843B0FB32
:1060A000F1F600201C4A8DF8040011461BA003F0F5
:1060B000C7FFD4F807000090174AA379114623A020
:1060C00003F0BEFF01F068F9050006D0014601AA01
:1060D000304600F0C6FE40B903E00F4A29A0114641
:1060E00006E09DF80400012806D00B4A33A01146B3
:1060F00003F0A6FF06B070BD206861682289ADF884
:106100001020A27A8DF812202B46049A00F0B8FED7
:10611000F0E77047704700003C7004085B25735D32
:106120005B44656275675D5B25735D2D52656365D4
:106130006976652055746354696D657374616D701B
:10614000204D73670D0A0D0A000000005B25735D8A
:106150005B44656275675D5B25735D2D5365636F99
:106160006E642069732025642C204D6963726F73FF
:1061700065636F6E642069732025642E0D0A0D0A15
:10618000000000005B25735D5B44656275675D5BC5
:1061900025735D2D505053205369676E616C2068E4
:1061A000617665206E6F74206265656E2054726939
:1061B0006767657265642E0D0A0D0A005B25735DC5
:1061C0005B44656275675D5B25735D2D55544320A7
:1061D00054696D657374616D70205061636B6167A4
:1061E0006520697320496E656666656374697665C6
:1061F0002E0D0A0D0A00000070B5F04A0C46054647
:106200001146EFA003F01CFF2878F84A012803D1BB
:10621000917909B9117911B1117A014300D1107046
:106220000020207070BD00200870F0480078487091
:10623000704770B5E14A0E46044615321146ECA08F
:1062400003F0FEFE2078E94C0025012801D0E0B1E2
:106250001FE0207AE8B908F015FC4FF47A71484342
:10626000B0FBF1F0606260780121E94A062804D0B1
:10627000012805D0042805D00BE06171217102E0EE
:10628000617100E0A171117003E025716571A57164
:10629000E571357070BD2DE9F047D44EDC4F002418
:1062A00030790D464FF47A784FF4FA79012806D008
:1062B0007079012836D0B079012840D052E008F03A
:1062C000E1FB4FF47A714843B0FBF8F0716A4FF488
:1062D0007A72411AB08A5043B1FBF0F200FB1210FF
:1062E000484503D801207071387001E074713C702A
:1062F000F078FF2836D008F0C5FB4FF47A71484398
:10630000B0FBF8F0716AB28A411AF078401E50432F
:1063100000EB4002C2EBC01209EBC200814221D95E
:1063200034711FE008F0AEFB4FF47A714843B0FBC4
:10633000F8F0716A401A484514D9747111E008F0F8
:10634000A1FB4FF47A714843B0FBF8F0716A411A2F
:10635000B07800EB4002C2EBC010B1EB800F01D966
:10636000B4713C702C703179687861F341007179B7
:1063700061F30000B17961F38200F17961F3C30048
:106380006870BDE8F08770B58C4A0D460446283227
:106390001146A0A003F054FE0020287093482178F5
:1063A000417061788170A178C170B4F80310818266
:1063B00070BD002008708D4842784A7082788A70DB
:1063C000C278CA70808A8880704770B57B4A0E4652
:1063D00004464232114699A003F032FE2078834CE5
:1063E0000025012803D1207908B9A07910B12572C0
:1063F000357070BD0120207208F044FB4FF47A71B3
:106400004843B0FBF1F0A062F2E770B5774D00268B
:106410000C46287A4870012802D06680267070BD2C
:1064200008F030FB4FF47A714843B0FBF1F0AA6AF0
:10643000801AB0FBF1F06080F0E770B56B4D0C4650
:106440000026697A607861F3000020F00C0040F0CB
:1064500002006070A97A012911D108F013FB4FF4F2
:106460007A714843B0FBF1F0E96B401AB0F5FA7F5E
:1064700003D2607840F0100003E0AE72607820F044
:10648000100000F01F006070E86A44F8030F286BEA
:106490006060A86BE060686BA06004F8036C70BD7E
:1064A00010B5464A0C46563211466DA003F0C8FDA1
:1064B00008F0E8FA4FF47A714843B0FBF1F14B4829
:1064C000C163012181720020207010BD70B53B4A6C
:1064D0000C4605466A3211466AA003F0B1FD434AF4
:1064E0002878D0720020207070BD4048C07A487073
:1064F00000200870704770B5304A0D46044681325E
:1065000011466AA003F09CFD2078384900F00F0284
:1065100000090A7348730020287070BD334A487818
:10652000137B527B63F3030062F307104870002073
:106530000870704770B5214A0C46054698321146DE
:1065400064A003F07DFD294A287890730020207014
:1065500070BD2648807B487000200870704770B579
:10656000164A0D460446AC32114663A003F068FD9E
:106570001E4821680164616841640020287070BD74
:106580001A48026CC1F80120406CC1F805000020D7
:106590000870704770B5094A0D460446C03211466E
:1065A0005EA003F04DFD20781049C0F3400200F0DA
:1065B0000100CA7308740020287070BDE4700408DC
:1065C0005B25735D5B44656275675D5B25735D2D5F
:1065D0005365742043616D65726120576F726B2043
:1065E0004D6F64650D0A0D0A00000000DC000020FC
:1065F0005B25735D5B44656275675D5B25735D2D2F
:1066000053686F6F7450686F746F0D0A0D0A000045
:10661000840100205B25735D5B44656275675D5B8B
:1066200025735D2D5365742053686F6F7450686FC8
:10663000746F204D6F64650D0A0D0A005B25735D54
:106640005B44656275675D5B25735D2D53657420E2
:106650005265636F7264696E670D0A0D0A0000006F
:106660005B25735D5B44656275675D5B25735D2DBE
:10667000466F726D617420536420636172640D0A09
:106680000D0A00005B25735D5B44656275675D5BA9
:1066900025735D2D536574204D65746572696E6751
:1066A000204D6F64650D0A0D0A0000005B25735DC7
:1066B0005B44656275675D5B25735D2D5365742072
:1066C00053706F74204D65746572696E670D0A0DA5
:1066D0000A0000005B25735D5B44656275675D5B66
:1066E00025735D2D53657420466F637573204D6F60
:1066F00064650D0A0D0A00005B25735D5B446562ED
:1067000075675D5B25735D2D53657420466F6375FA
:1067100073205A6F6E650D0A0D0A00005B25735DCC
:106720005B44656275675D5B25735D2D5365742001
:10673000466F63757320417373697374616E74205F
:1067400053657474696E670D0A0D0A005D4A4878D6
:10675000D37B127C63F3410062F300004870002099
:10676000087070475748C08AA1F8010000200870DF
:10677000704770B5544A0C460546114653A003F0C5
:106780005FFC504A288810830020207015E74D4890
:10679000008BA1F801000020087070475648C1F82E
:1067A000010000200870704770B5474A0C46054646
:1067B0001932114651A003F043FC424A2868906404
:1067C00000202070F9E63F48806CC1F801000020ED
:1067D000087070473B48428B21F8012F828B4A801A
:1067E000C08B8880002001F8010C704770B5364AD4
:1067F0000C460546353211464BA003F021FC314AC8
:106800002888108400202070D7E62E4B10B5587CC5
:1068100098B118469C7C1A8CC07C012C13D0C0F116
:10682000470000EB800010445A8B904200DD104678
:106830009A8B904200DA10461884188CA1F8010057
:106840000020087010BD00EB80001044A0F263101F
:10685000EAE770B51B4C0D46208CA18B401A0FF057
:10686000AAFA00223C4B0FF037FA00223B4B0FF004
:106870001AF90FF027FBE064C5F80100002028702A
:106880009BE670B5104A0D4604465632114634A0B8
:1068900003F0D6FB0B4A0120507460789074207886
:1068A000D0740020287088E610B5074A0C4678326C
:1068B000114636A003F0C4FB024A00205074207039
:1068C00010BD0000DC000020C57104085B25735D6D
:1068D0005B44656275675D5B25735D2D5365742050
:1068E000466F6375732052696E672056616C7565DB
:1068F0000D0A0D0A00000000000040415B25735D99
:106900005B44656275675D5B25735D2D536574201F
:106910004469676974616C205A6F6F6D20466163CA
:10692000746F720D0A0D0A005B25735D5B4465622E
:1069300075675D5B25735D2D5365744F7074696376
:10694000616C5A6F6F6D466F63616C4C656E6774F6
:10695000680D0A0D0A000000000024400000F03F0E
:106960005B25735D5B44656275675D5B25735D2DBB
:10697000537461727420436F6E74696E756F7573B2
:10698000205A6F6F6D0D0A0D0A0000005B25735DC4
:106990005B44656275675D5B25735D2D53746F7035
:1069A00020436F6E74696E756F7573205A6F6F6DCB
:1069B0000D0A0D0A000000002DE9F047854D0C4638
:1069C00028784870887820F0010088708146B5F9F1
:1069D0000A000FF0F0F9DFF80082DFF800A242466B
:1069E00053460FF007F90FF01DFAA988084407B2C3
:1069F000AF80B5F90C000FF0DEF9424653460FF0B8
:106A0000F9F80FF00FFAE988084406B2EE80B5F9FC
:106A10000E000FF0D0F9424653460FF0EBF80FF09E
:106A200001FA29894FF0000A084400B22881A5F82C
:106A30000AA0A5F80CA04FF49672A5F80EA09742F4
:106A400000DD17466649AF808F4200DA0F464FF4EB
:106A5000E173AF809E4200DD1E46DFF888C1EE8004
:106A6000664500DA66464FF4617CEE80604500DDE5
:106A700060462881884200DA084628814FF00108E4
:106A8000974201D08F4201D185F803809E4202D007
:106A900016F5E17F01D185F80280604501D088427A
:106AA00001D185F80180EA78494662F3C301AA78EA
:106AB00062F382016A7862F34101A170A4F8037065
:106AC000A4F80560A4F8070084F800A0BDE8F087EA
:106AD00070B5454A0C460546114644A003F0B0FA8D
:106AE0003C4A287810700020207070BD10B53E4AD6
:106AF0000C461832114646A003F0A2FA354A00208F
:106B00009080D0801081207010BD70B5364A0D463F
:106B100004462D32114646A003F092FA2D482188F2
:106B2000418161888181A188C1810020287070BD68
:106B30002DE9F0412C4A0F4604464432114645A047
:106B400003F07EFA4E4E206831460EF07AFF0FF0C9
:106B500050F9204D3146A88060680EF072FF0FF0AA
:106B600048F9E880A06831460EF06BFF0FF041F95C
:106B7000288100203870BDE8F08170B51A4A0D46B2
:106B800004465B3211463FA003F05AFA11482188AF
:106B9000018261884182A18881820020287070BDB5
:106BA00010B5114A0C467732114642A003F048FA5C
:106BB0000020207010BD10B50B4A0C4692321146D1
:106BC00048A003F03DFA0020207064216170A0709D
:106BD00010BD00002C0100209A9999999999B93F0C
:106BE0007CFCFFFF3EFEFFFF807204085B25735DA7
:106BF0005B44656275675D5B25735D2D536574202D
:106C000047696D62616C204D6F64650D0A0D0A0065
:106C10005B25735D5B44656275675D5B25735D2D08
:106C200052657475726E20486561640D0A0D0A0024
:106C30005B25735D5B44656275675D5B25735D2DE8
:106C4000436F6E74726F6C2053706565640D0A0D2E
:106C50000A0000005B25735D5B44656275675D5BE0
:106C600025735D2D436F6E74726F6C2047696D6282
:106C7000616C20416E676C650D0A0D0A0000000012
:106C8000000020415B25735D5B44656275675D5B59
:106C900025735D2D436F6E74726F6C2047696D6252
:106CA000616C204A6F696E7420416E676C650D0AD5
:106CB0000D0A00005B25735D5B44656275675D5B73
:106CC00025735D2D47696D62616C20537461727428
:106CD0002043616C6962726174696F6E0D0A0D0AFE
:106CE000000000005B25735D5B44656275675D5B5A
:106CF00025735D2D47696D62616C20476574204383
:106D0000616C6962726174696F6E2050726F677234
:106D10006573730D0A0D0A0010B5C0B00C46FF294B
:106D20000DD80A46014668460EF030FE0020054A9E
:106D30000DF804006B46114603A003F081F940B042
:106D400010BD0000387304085B25735D5B44656209
:106D500075675D5B25735D2D52656365697665209A
:106D600066726F6D204F53444B3A2025730D0A0D08
:106D70000A000000FFB599B02C21DDE9227402A8B9
:106D80000EF01DFE2C210DA80EF019FE002018900B
:106D9000002C57D01C98C84A3D1A4FF47A7005FB56
:106DA00000F61C98CDE900053B461146C3A003F050
:106DB00047F9DDF86B00CD4A811991FBF2F002FB37
:106DC0001010002800DA101AC4F80700081A90FB07
:106DD000F2F5BDF86400A0F26C7007909DF86600B3
:106DE00006909DF8670005909DF8680004909DF856
:106DF000690003909DF86A0002904FF0FF300A90FE
:106E000002A80EF06FFD411C20D04319AA4AB8A079
:106E10001146189303F014F90DA918A80EF01CFDE3
:106E2000C0B1129800F26C7020801198A070109878
:106E3000E0700F9820710E9860710D98A07100207D
:106E40001DB0F0BD9C4AB4A0114606E09A4ABCA011
:106E5000114602E0984AC4A0114603F0F1F8FF2061
:106E6000EEE73AB1884207D9401AB0F5FA7F03D26B
:106E7000012002E0052070470020107000207047BC
:106E80001FB51C460B226946C1480EF07FFDC04865
:106E9000C049C4600120087004B0002010BD2DE975
:106EA000F041DCB000240E468046254658945994A3
:106EB00028214EA85A940EF082FD4FF4907106A836
:106EC0000EF07DFDB348007878B358A8CDE9006096
:106ED000AF480FC8FFF74EFF01208DF838018DF83D
:106EE0003951BDF86001ADF83A019DF862018DF8A5
:106EF0003C019DF863018DF83D019DF864018DF81A
:106F00003E019DF865018DF83F01A34E9DF8660195
:106F10008DF84001F700DDF86701B0420BD9DDF8CC
:106F20006751A5F57435903D12E0FFE7624A9BA0DA
:106F3000203211466CE09DF8401121B99DF83F21A7
:106F4000521E8DF83F21491E8DF840119C4945186D
:106F50009DF83E2102929DF83F0103AB9DF8401140
:106F600083E823009DF83D119DF83C01524ACDE98C
:106F700000012032BDF83A311146924803F060F822
:106F8000BD4220D8834A121D52F82410481C42F8F2
:106F9000240004EB44024EA800EB420030F8092F15
:106FA00061F30C0202804178434A64F34711417057
:106FB000C0F80250009520329DF84031114682A061
:106FC00003F03EF8641C012CA5DB7148BDF83A11B2
:106FD000103006AA41809DF83C1101719DF83D11C9
:106FE00041719DF83E1181719DF83F11C1719DF86D
:106FF00040110172C0F80B504EA9404605F0A0FCAC
:1070000010B99DF8180048B12B4A7EA020321146D5
:1070100003F016F8FF205CB0BDE8F081264A88A096
:107020002032114603F00CF8234A95A02032114675
:1070300003F006F8DFF87C829F4E002506AF05EBD3
:10704000C500C0EB8510C4191B4A14F8101F88F83E
:107050000010D4F82110D4F81D00CDE90401D4F8B3
:107060001910D4F81500CDE90201D4F80D00D4F8B8
:1070700011102032CDE90001114690A0641C02F0ED
:10708000DFFFE06821697065B1656169A069F1653C
:107090003066E169206A7166B0662088A6F848000B
:1070A0006088A6F84A00A0886D1CA6F84C00012D47
:1070B000C5DB0120AFE70000577304085B25735D53
:1070C0005B44656275675D5B25735D2D7368696AF6
:1070D00069616E202025646D73202025646D732006
:1070E0002025646D730D0A0D0A00000040420F0058
:1070F0005B25735D5B44656275675D5B25735D2D24
:107100006765696C6F63616C74696D6520202564C7
:107110006D730D0A0D0A00005B25735D5B446562AB
:1071200075675D5B25735D2D5053444B5F53544130
:10713000545F455252310D0A0D0A0D0A000000003D
:107140005B25735D5B44656275675D5B25735D2DD3
:107150005053444B5F535441545F455252320D0AD1
:107160000D0A0D0A000000005B25735D5B4465623B
:1071700075675D5B25735D2D5053444B5F535441E0
:10718000545F455252330D0A0D0A0D0A00000000EB
:10719000A01A00204401002090D003005B25735DFD
:1071A0005B44656275675D5B25735D2D5053444B91
:1071B0005F65697374200D0A0D0A0D0A0000000056
:1071C000B0710B00944607085B25735D5B446562F4
:1071D00075675D5B25735D2D526571205365636F27
:1071E0006E642069732025642C204D6963726F736F
:1071F00065636F6E642069732025642E0D0A0D0A85
:10720000000000005B25735D5B5761726E5D5B255E
:10721000735D2D5265717565737420506F73697459
:10722000696F6E206F662054617267657420506FBD
:10723000696E7473204661696C2E0D0A0D0A000098
:107240005B25735D5B44656275675D5B25735D2DD2
:107250005265717565737420506F736974696F6ED0
:10726000206F662054617267657420506F696E7478
:107270007320537563636573732E0D0A0D0A000046
:107280005B25735D5B44656275675D5B25735D2D92
:1072900044657461696C20506F736974696F6E2006
:1072A000496E666F726D6174696F6E3A0D0A0D0AF0
:1072B000000000009D010020801900205B25735D07
:1072C0005B44656275675D5B25735D2D4C6F6E6712
:1072D00069747564653A202566094C617469747532
:1072E00064653A202566094865696768743A20250F
:1072F000660D0A0D0A00000070470000384801685A
:1073000021F00801016036490820143108607047F7
:1073100033490820143108603148016841F0080100
:10732000016070477FB5012109200AF012FE082490
:10733000ADF80C4028208DF80F0003208DF80E00CA
:1073400003A928480AF01DFC032101200AF0CDFC06
:1073500000258DF8045000948DF8054001248DF827
:10736000064068460AF050FB09208DF808000B2003
:107370008DF809008DF80A508DF80B4002A80AF02C
:10738000FEF97FBD18480168012901D0002070472F
:10739000002101600120704713484068704770B5B4
:1073A00008200AF081FB002818D00F4C0120206033
:1073B00007F068FB4FF47A7148430D46B0FBF5F0D7
:1073C000606007F05FFB4FF47A714843B0FBF5F063
:1073D000A060BDE8704008200AF074BB70BD0000DA
:1073E00000040140000C01404C01002030B585B084
:1073F000012104200AF0ADFD0225ADF80C50042057
:107400008DF80F0003208DF80E0003A926480AF01E
:10741000B8FB00248DF8044008208DF805000121F8
:1074200020460AF062FC009501258DF8065068465A
:107430000AF0EAFA07208DF808008DF809008DF8A7
:107440000A408DF80B5002A80AF099F9012104A80E
:10745000049407F031FC15490860002107F042FC54
:1074600005B030BD114810B50021006807F03AFCA6
:1074700008B1002010BD012010BD10B502200AF097
:1074800013FB00280FD00A49012088700948818821
:10749000491C81800548006807F056FCBDE8104093
:1074A00002200AF00FBB10BD000801405801002067
:1074B0008B010020D81A00202DE9F84F01211C2053
:1074C0000AF047FD304C0026C4F890614FF00108E7
:1074D000C4F8A081C4F8AC61C4F8B0614FF4006096
:1074E000ADF800000225DFF8A4A08DF802501027A7
:1074F0008DF803706946504604F5C8740AF041FBE4
:10750000ADF800508DF802504FF004098DF803904B
:1075100069461F480AF035FB8020ADF800008DF861
:1075200002508DF8039069461A480AF02AFBE801D8
:10753000ADF800008DF802508DF803706946504692
:107540000AF01FFBADF800708DF802508DF8037043
:10755000694650460AF015FBE802ADF800008DF8C8
:1075600002508DF80370694650460AF00AFB266007
:10757000C4F81080E6612662012107480AF08CFBFE
:1075800001F0EAFABDE8F88F00002142000801404E
:10759000000C0140001001400002300008B5E64C2C
:1075A00002E00A2007F0BDFA20780028F9D0642014
:1075B00007F0B7FAE14E0025C6F8B051642007F095
:1075C000B0FADF49012088460A5C02B1D220401C93
:1075D000C0B20528F7D9DB49C82802D304200870B7
:1075E00000E00D70D84F894600220978386807F00E
:1075F00065FCC6F8AC514FF4FA7007F092FAC6F881
:10760000AC51642007F08DFADFF840B300244FF04E
:10761000030A99F80000E8BB4FF4967007F081FA6E
:10762000012041460A5C02B1D220401CC0B20528AC
:10763000F8D9C82818D3C6F8B0514FF4967007F09F
:1076400070FA042189F800100022386807F036FC2F
:10765000C6F8AC514FF4FA7007F063FAC6F8AC51B3
:10766000642007F05EFA00240122009500231146F1
:10767000DBF8000007F0C2FEC0071AD0C6F8B05110
:107680004FF4967007F04DFA89F800A05146002299
:10769000386800E00DE007F011FCC6F8AC514FF47B
:1076A000FA7007F03EFAC6F8AC51642007F039FAD8
:1076B000002499F80000042844D1641CE4B2012C91
:1076C00001D0B4FBFAF1C6F8AC51082C05D3C6F8CA
:1076D000B051642007F025FA0024642007F021FA55
:1076E000012041460A5C02B1D220401CC0B20528EC
:1076F000F8D9642804D289F800500022294612E003
:107700000122009500231146DBF8000007F076FE09
:10771000C00717D0C6F8B051642007F002FA5146EE
:1077200089F800A00022386807F0C8FBC6F8AC5101
:107730004FF4FA7007F0F5F9C6F8AC51642007F081
:10774000F0F9002499F80000052866D1641CE4B221
:10775000012C01D0B4FBFAF1C6F8AC51082C05D3CA
:10776000C6F8B051642007F0DCF900244FF496709D
:1077700007F0D7F9012041460A5C012A00D0D22047
:10778000401CC0B20528F7D9642828D240F6B83486
:10779000204607F0C6F9204607F0C3F9204607F057
:1077A000C0F9C6F8B051642007F0BBF9C6F8B05173
:1077B000204607F0B6F9012189F800100022386848
:1077C00007F07CFBC6F8AC514FF4FA7007F0A9F94A
:1077D000C6F8AC51642007F0A4F900241DE0012292
:1077E000009500231146DBF8000007F007FEC007F4
:1077F00013D0C6F8B051022189F800100022386871
:1078000007F05CFBC6F8AC514FF4FA7007F089F949
:10781000C6F8AC51642007F084F999F800000228FA
:1078200038D1C6F8B051642007F07BF900246420F9
:1078300007F077F9012041460A5C012A00D1D220E5
:10784000401CC0B20528F7D9642800D2DC24641C8F
:10785000E4B2322CEBD3C82C04D389F800500022B8
:10786000294608E0C6F8B051642007F05AF904210F
:1078700089F800100022386807F020FBC6F8AC51E8
:107880004FF4FA7007F04DF9C6F8AC51642007F0D8
:1078900048F9002499F80000032849D1C6F8B051EE
:1078A000642007F03EF900244FF4967007F039F990
:1078B000012041460A5C02B9D220401CC0B2052812
:1078C000F8D9642800D2DC24641CE4B2322CEBD357
:1078D000C82C16D340F6B834204607F022F92046CB
:1078E00007F01FF9204607F01CF9C6F8B0516420D4
:1078F00007F017F9C6F8B051204607F012F9012138
:1079000004E04FF4967007F00CF9052189F8001097
:107910000022386807F0D2FAC6F8AC514FF4FA707A
:1079200007F0FFF8C6F8AC51642007F0FAF800241D
:10793000012007F0F6F86CE69501002000002142D6
:1079400085010020960100206C00002064000020CA
:1079500008B507F097F8334F334D344E00900A21A5
:10796000684607F00DFC38780028D5F81C0111D0C6
:107970000028F4D1052007F0D4F8D5F81C01002820
:10798000EDD10F2007F0CDF8D5F81C010028E6D185
:1079900000242BE00028E2D1052007F0C2F8D5F83A
:1079A0001C010028DBD10F2007F0BBF8D5F81C0123
:1079B00070B90121306807F07AFC09E00A2007F06D
:1079C000B0F8D5F81C010028F8D03C2007F0A9F841
:1079D000D5F81C010028C2D1F3E70A2007F0A1F86E
:1079E000641CE4B2642C01D3D2240EE0D5F81C014F
:1079F0000028F2D009E00A2007F093F8D5F81C011E
:107A00000028F8D03C2007F08CF8D5F81C0100289D
:107A1000F4D0C82C01D3022100E00121306807F026
:107A200046FC9CE7920100200000224264000020F6
:107A30000EB5002401F01BF90A2007F072F8414E40
:107A4000414D00226846316807F064FADDE900071D
:107A5000102806D0C82007F064F82878082808D035
:107A600009E001F004F92F700A2007F05AF8002409
:107A7000F3E701F0F4FA287808B1012816D1A4F14F
:107A80000B01092902D801F0A2FC06E00A2C07D854
:107A9000012800D0002001F0DDFB641CE4B205E009
:107AA00001F0E5F8022007F03CF8002428780D28C2
:107AB00002D1012001F0E3FE28780E2802D1022035
:107AC00001F0DDFE28780F2802D1032001F0D7FE57
:107AD0002878102802D1042001F0D1FE2878072848
:107AE00001D101F0F3FA2878022801D101F024FB3A
:107AF0002878032801D101F066FB2878042801D1F9
:107B000001F069FD2878052801D101F09CFD287855
:107B1000062801D101F0CFFD2878092801D101F014
:107B200007FE28780B2802D1002001F06FFE28788C
:107B30000C2802D1012001F069FE0A2006F0F1FFB5
:107B40007FE700006C000020800100200025DFF8A6
:107B5000EC90DFF8ECB03B4FDFF8EC802C46AA4607
:107B600001263A480078012817D1394800780128C1
:107B7000504616D037498BF80000ABF802000024BD
:107B8000C1F8A061344925460978012905D0C8F813
:107B90009861C7F8B861C7F8BC010A2006F0C1FFB8
:107BA000DFE72C49C1F8A0012B496D1CADB2097863
:107BB000012909D0322D0DD0642D06D399F800107B
:107BC000C8F89861C7F8BC6100259BF800105A46B8
:107BD00091B126E099F80010012908D0032906D0B8
:107BE000C8F89861C7F8B861C7F8BC01EDE7C7F8F5
:107BF000B861C8F89801F7E799F80010022910D188
:107C00005188641C491C89B24FF4FA735180A4B2A4
:107C10009942C2D9114953800978042904D0062910
:107C200008D0ABF8020003E0C82CB6D30C480670AD
:107C30000024B2E7B4F5967FF8D2AEE775010020D4
:107C40005C010020008021420000224295010020BA
:107C500096010020000021429101002093010020A4
:107C6000840100202DE9F84F002600F05FFDEE4C66
:107C7000DFF8B8830C2121700022D8F8000007F04B
:107C80001DF9EB4FB3465D46C7F8ACB14FF4FA703F
:107C900007F5D67706F045FF3D60C82006F041FFA6
:107CA0004FF47A77384606F03CFF384606F039FF45
:107CB000E0480095002301220321006807F09EFBA5
:107CC000DD4DDFF87893DE4FC00705D02E7889F8B8
:107CD00000600120387002E0387801285DD1D34877
:107CE00009212170A2460022006807F0E7F85C46EF
:107CF000DFF83CB3CBF8AC414FF4FA7006F011FF5B
:107D0000CBF8AC41642043E0DFF8288300940023E3
:107D100001220321D8F8000007F070FBC10713D03F
:107D200099F8000038B1022807D0042807D02E7037
:107D300089F800402BE0022002E0042000E0062049
:107D400089F80000287022E0800720D599F800000B
:107D500028B3B6480B218AF800100022006807F00B
:107D6000ADF8D846CBF8AC414FF4FA7006F0D9FE26
:107D7000C8F8AC41642006F0D4FE00F0F3FCC82043
:107D800006F0CFFE40F6B83006F0CBFE3C700A207D
:107D900006F0C7FE38780128B6D0BDE8F88FDFF8C6
:107DA0008C920D218AF800100022D9F8000007F00B
:107DB00085F85D46CBF8AC414FF4FA7B584606F0A7
:107DC000B0FEC5F8AC41642006F0ABFEC5F8B0418A
:107DD0004FF47A7006F0A5FE9A4E0027C5F8B04120
:107DE0004FF47A7006F09DFE707801280CD1B078BF
:107DF000012809D1F078012806D13079012803D172
:107E00007079012800D1C8277F1CFFB2142FE5D359
:107E100040F6B837384606F084FE384606F081FE54
:107E2000C5F8B041642006F07CFEC5F8B041384684
:107E300006F077FE0E218AF800100022D9F8000023
:107E400007F03CF8C5F8AC41584606F06AFEC5F8A4
:107E5000AC41642006F065FE002700940023012257
:107E60000321D8F8000007F0C9FAC1070FD0C5F800
:107E7000B041642006F055FEC5F8B041C5F8AC41EC
:107E8000642006F04EFEC5F8AC41642002E0800795
:107E900004D40A2006F045FE002FDED00F218AF818
:107EA0000010D0460022D9F8000007F007F8C5F806
:107EB000AC41584606F035FEC5F8AC41642006F0EA
:107EC00030FEC5F8B0414FF47A7A504606F029FEEC
:107ED0000027C5F8B041504606F023FE707840B93F
:107EE000B07830B9F07820B9307910B9707900B92C
:107EF000C8277F1CFFB2142FEBD34FF4FA6006F0B3
:107F000010FE102188F800100022D9F8000006F0B9
:107F1000D5FFC5F8AC41584606F003FEC5F8AC41A4
:107F2000642006F0FEFDFBE700F039F8142006F0AF
:107F3000F8FDFFF797FE3C480721002201703B48FF
:107F4000006806F0BBFF3A4D0024C5F8AC414FF481
:107F5000FA76304605F5D67506F0E3FD2C60642010
:107F600006F0DFFD642006F0DCFD374901200870D3
:107F7000304606F0D6FD354D354E364F0324287871
:107F800048B933490B31A1F10A0002F0E5FA347027
:107F9000386806F09CFD642006F0C3FDEFE72DE98C
:107FA000F04721480821002201702048006806F0AF
:107FB00085FF0A2500260124DFF87480264FDFF8AC
:107FC0009C9019E0C8F8AC61C7F8BC41C7F8B8414B
:107FD000C9F89861C8F8A061642006F0A2FDC8F84D
:107FE000AC61C9F89841C7F8BC41C7F8B841C8F8B6
:107FF000A041642006F095FD6D1EADB2E2D245466B
:10800000C8F8AC614FF4FA7006F08BFDC5F8AC61AE
:10801000642006F086FDC9F89841C7F8B841C7F852
:10802000BC61BDE8F0870000960100206C000020D4
:1080300000002142640000209301002094010020F0
:10804000920100208501002095010020910100206F
:1080500060010020400000200080214200002242F8
:1080600008B5002425464FF4FA6006F05AFD09F0E1
:1080700064FA00F0ACFC8B49088009F07AFA4FF4FE
:108080007A7006F04EFD884E02E00A2006F049FDA7
:1080900030780028F9D0642006F043FD0026DFF890
:1080A0000CA2DFF80CB2DFF80C92B046824A83A033
:1080B000114601F0C5FF9AF8000001280AD08B494B
:1080C00089F8018089F800800A7800264046012A54
:1080D0007DD0E3E056B98648007804280CD0062805
:1080E0000AD0022089F8000089F801007F480126A3
:1080F0000078012823D082E0012089F80000801E4A
:1081000000907C48012200231146006807F076F9B0
:10811000C007EBD046465F46CBF8AC814FF4FA700F
:1081200006F0FFFCC7F8AC61642006F0FAFC6F486B
:108130000221067089F8001089F80110D6E76E4810
:10814000007800285BD16D4947460888401C0880AC
:10815000CBF8B081642006F0E4FCCBF8B071C82005
:1081600006F0DFFC614807703C2006F0DAFC644F43
:108170000020395C012900D0D220401CC0B2042864
:10818000F7D9642809D9CBF8B081642006F0C9FC7E
:10819000CBF8B081C82006F0C4FC002007F80080AE
:1081A000401CC0B20428F9D9564901200A5C012AB2
:1081B00000D0D220401CC0B20528F7D964281AD9B3
:1081C000641CE4B2032C17D30024052100E064E012
:1081D0004D488AF800102246006806F06FFECBF882
:1081E000AC814FF4FA7006F09CFCCBF8AC816420B3
:1081F00006F097FC00E000243C4880F800803D48F1
:108200000122CDF80080474600231146006807F0A0
:10821000F5F8C00742D03648007804280ED006286A
:108220000CD089F80170384889F8007002218AF86A
:1082300000100022006806F041FE22E089F801707B
:10824000CDB1314889F8007002218AF8001000226F
:10825000006806F033FE5D46CBF8AC714FF4FA705F
:1082600006F05FFCC5F8AC71642006F05AFC2748A4
:108270000025077012E00321244889F80010012529
:108280000570CBF8AC714FF4FA7006F04AFCCBF8ED
:10829000AC71642006F045FC00E00870022006F096
:1082A00040FC03E77E01002095010020960100209C
:1082B00000002142750100208C7304085B25735D6A
:1082C0005B44656275675D5B25735D2D545249475C
:1082D0004745525F5441534B2072756E6E696E670D
:1082E00020200D0A0D0A0D0A000000008401002064
:1082F00093010020640000209101002082010020F1
:108300008B010020850100206C0000205C01002012
:108310000A2006F006FCDFF85C90DFF85C80174F5F
:10832000DFF85CA00124174D0026174A17A011465C
:1083300001F086FED8F80411404671B1C0F8B8418A
:10834000C5F8B0613E709AF8000001280ED0C5F85B
:108350009061012006F0E5FBE7E7C5F8B041C9F8F8
:108360009841C0F8BC41C0F8B8613C70C5F8904174
:10837000EFE700000000224200802142910100202E
:108380007C01002000002142997304085B25735D85
:108390005B44656275675D5B25735D2D46414E5F8D
:1083A0005441534B2072756E6E696E6720200D0A22
:1083B0000D0A0D0A000000000D4C0E4D0E4E0F4F21
:1083C000DFF83C8040F6B839207868B9287803286F
:1083D0000AD13078012807D00A4802F00CF9C0B25F
:1083E000012801D1C8F80070484606F09AFBEBE777
:1083F0009101002060010020960100200400FA0590
:108400000CED00E061010020064C40F2DC5509F063
:1084100094F800F0DCFA208009F0ABF8284606F06A
:1084200080FBF4E77E010020174F0125174C002642
:10843000642006F076FB0221384609F0F8FB08B10B
:10844000657000E066700221384609F0F0FB08B163
:10845000A57000E0A6700221384609F0E8FB08B1DB
:10846000E57000E0E6700221384609F0E0FB08B153
:10847000257100E026710221384609F0D8FB08B1C9
:108480006571D5E76671D3E70008014085010020DA
:1084900070B5C048402606608025056000F073F97D
:1084A000BC4C241D266000F06EF92560BDE87040CC
:1084B00000F069B970B5B7484024001D0460B54D9F
:1084C0008020286000F05FF92C6070BD2DE9F04736
:1084D000DFF8C0920024AF4E054609F10409802759
:1084E0004FF040082806404601D5306001E0C9F849
:1084F000000000F048F9376000F045F9C9F8007055
:10850000072C01D1C6F800806806050E00F03BF983
:10851000641CE4B2082CE5D3BDE8F0872DE9F047F0
:1085200000249C4FDFF86C822546A8F108088026BD
:1085300007F104096006040E3E6000F024F9D8F843
:108540000000400601D5641CE4B2C9F8006000F0E8
:108550001AF96D1CEDB2082DECD32046DCE770B59E
:108560008C4C4020206000F00EF98025256000F042
:108570000AF9884808380068400601D5012400E05F
:1085800000248448001D056000F0FDF8204670BD01
:108590002DE9F0417F4E4025361D356000F0F3F89F
:1085A000371F80243C6000F0EEF8346000F0EBF8F8
:1085B0003D60BDE8F08170B5764D4020286000F048
:1085C000E2F880242C6000F0DEF8281D0460BDE88D
:1085D000704000F0D8B838B504460121042009F0F5
:1085E000B8FCC021ADF8001003218DF80210142151
:1085F00068488DF803106946103809F0C2FAFFF791
:1086000059FFFFF745FF2046FFF760FFFFF7A7FF81
:108610000446FFF74FFF204638BD10B5A020FFF7F6
:10862000DAFF18B1FFF746FF002010BD012010BD92
:108630002DE9F04115460C460746FFF729FFA0201B
:10864000FFF744FFFFF78BFF68B9E0B2FFF73EFF8B
:10865000FFF785FF38B9FFF71BFFA120FFF736FFB3
:10866000FFF77DFF18B1FFF725FF0020A1E70024E9
:108670006E1E0BE0FFF752FF3855B44202D0FFF7F1
:1086800087FF01E0FFF797FF641CA4B2AC42F1D36F
:10869000FFF710FF01208CE72DE9F04790460E46CA
:1086A000814600254FF47A7728E00DB1700716D186
:1086B000FFF700FF0024FFF7EBFEA020FFF706FF07
:1086C000FFF74DFF18B1641CA4B2BC42F3D3BC4207
:1086D0000CD0F0B2FFF7FAFEFFF741FF30B919F8FE
:1086E0000500FFF7F3FEFFF73AFF18B1FFF7E2FED0
:1086F000002011E7761C6D1CB6B2ADB24545D4D34F
:10870000FFF7D8FE012007E700B5C1B000206A4698
:10871000FF211154401C80B2FF28FAD94FF4807217
:1087200000216846FFF7B8FF41B000BD10B508F062
:1087300004FF022201211848FFF77AFF1648174963
:108740000278552A0BD055220270022242700A701C
:108750000121FFF7A1FFBDE8104008F00ABF4078F3
:108760000870F8E710B508F0E8FE0B485521022222
:1087700001700A49097841700121FFF78DFFBDE8BA
:10878000104008F0F6BE0020401CC0B20A28FBD3FF
:1087900070470000100801409E0100209301002056
:1087A00000BF00BF00BF00BF00BF00BF00BF00BFD1
:1087B00000BF00BF00BF00BF00BF00BF00BF00BFC1
:1087C00000BF00BF00BF00BF00BF00BF00BF00BFB1
:1087D00000BF00BF00BF00BF00BF00BF00BF00BFA1
:1087E00000BF00BF00BF00BF00BF00BF00BF00BF91
:1087F00000BF00BF00BF00BF00BF00BF00BF00BF81
:1088000000BF00BF00BF00BF00BF00BF00BF00BF70
:1088100000BF00BF00BF00BF00BF00BF00BF704768
:1088200070B5CA480024016821F0704101600168F8
:1088300041F080410160C64D03E0641CE4B2FFF7E3
:10884000AFFFD5F83C0110B1C82CF6D30CE0C82C12
:108850000AD2002403E0641CE4B2FFF7A1FFD5F8BC
:108860003C0118B1F02C04D3012070BDF02CF2D3E0
:10887000FAE7002070BD002140E000BF00BF00BF4C
:1088800000BF00BF00BF00BF00BF00BF00BF00BFF0
:1088900000BF00BF00BF00BF00BF00BF00BF00BFE0
:1088A00000BF00BF00BF00BF00BF00BF00BF00BFD0
:1088B00000BF00BF00BF00BF00BF00BF00BF00BFC0
:1088C00000BF00BF00BF00BF00BF00BF00BF00BFB0
:1088D00000BF00BF00BF00BF00BF00BF00BF00BFA0
:1088E00000BF00BF00BF00BF00BF00BF00BF00BF90
:1088F00000BF00BF00BF00BF00BF491C8142BCD306
:108900007047924810B5016821F07041016001681C
:1089100041F0405101608E4C0020C4F8BC0104F5C8
:10892000DE7400F091F801202060BDE810400F20B7
:10893000A1E738B50121042009F00BFB4FF40044F6
:10894000ADF8004010208DF80300804D03208DF815
:1089500002002D1F6946284609F013F921462846D2
:1089600009F079F9FFF7CDFFFFF75AFF38BD2DE980
:10897000F04105467548016821F0704101600168C9
:1089800041F0405101600124714E0027A04615F0CE
:10899000010F4FEA5505C6F8BC7109D0FFF700FF7B
:1089A000FFF7FEFEC6F8BC813C20FFF764FF08E03D
:1089B0003C20FFF760FFC6F8BC81FFF7F1FEFFF730
:1089C000EFFE641CE4B2082CE1D9BDE8F08170B57B
:1089D000FFF797FFFFF724FFCC20FFF7C8FF4420E5
:1089E000FFF7C5FFFFF78DFFFFF71AFFCC20FFF75A
:1089F000BEFFBE20FFF7BBFF00F06DF8054600F09C
:108A00006AF84FF6FF72072808D9C043E943C9B294
:108A100002EA002000240844401C03E002EA00208F
:108A20000124284480B20DF0D7F90022494B0DF003
:108A3000E1F80DF016FA0A2180B2B0FBF1F0002C3B
:108A400001D140F4004070BD00204FF43A7100BFE6
:108A500000BF00BF00BF00BF00BF00BF00BF00BF1E
:108A600000BF00BF00BF00BF00BF00BF00BF00BF0E
:108A700000BF00BF00BF00BF00BF00BF00BF00BFFE
:108A800000BF00BF00BF00BF00BF00BF00BF00BFEE
:108A900000BF00BF00BF00BF00BF00BF00BF00BFDE
:108AA00000BF00BF00BF00BF00BF00BF00BF00BFCE
:108AB00000BF00BF00BF00BF00BF00BF00BF00BFBE
:108AC00000BF00BF00BF00BF00BF00BF00BF401C11
:108AD0008842BCD9704770B50025012400F00AF81F
:108AE000C001641C40EA5500E4B2C5B2082CF5D9B7
:108AF000284670BD70B5154C206820F0704020608D
:108B0000206840F040502060114D0020C5F8BC01A5
:108B100005F5DE75FFF744FEFFF742FE01202860F1
:108B2000206820F070402060206840F08040206085
:108B30000F20FFF7A0FE55F8800C08B1012400E0DB
:108B400000243C20FFF797FE204670BD040801403A
:108B5000000021420000E43F10B501211C2009F073
:108B6000F8F94FF4407008F005FE01F023F8FFF724
:108B7000E0FE0128FBD000F0BEF901F03FF8FFF75E
:108B80004CFDBDE8104001F091BD0349014808606B
:108B9000704700000400FA050CED00E02DE9F041FB
:108BA000FE4E054600294FF04001304602D009F044
:108BB00052F801E009F051F82021304609F04DF853
:108BC00000244FF480784FF400773946304609F09E
:108BD00044F828064146304602D509F03CF801E049
:108BE00009F03BF83946304609F035F86806641C50
:108BF000050EE4B2082CE8D32021304609F02BF80A
:108C00003046BDE8F041402109F025B810B50446D2
:108C1000B031C8B20021FFF7C1FF102040EA1410A4
:108C20000021FFF7BBFF04F00F00BDE8104040F04B
:108C300001000021B2E710B500218D20FFF7AEFF43
:108C400000211420FFF7AAFF0021BDE81040AF204B
:108C5000A4E710B500218D20FFF7A0FF0021102010
:108C6000FFF79CFF0021BDE81040AE2096E770B5ED
:108C7000002505F1B000C0B20021FFF78FFF0021F1
:108C80000220FFF78BFF00211020FFF787FF002451
:108C900001210020FFF782FF641CE4B2802CF7D38F
:108CA0006D1CEDB2082DE4D370BD2DE9F041203AE2
:108CB00000240F468046D5B27F2803D900208F1CA0
:108CC0008046FFB23946FFF7A1FFB54E04EB051011
:108CD0000121305CFFF762FF641CE4B2082CF5D37D
:108CE0007F1CF9B24046FFF791FF002404EB05100A
:108CF00030440121007AFFF751FF641CE4B2082CD4
:108D0000F4D3BDE8F0810346012000E05843491E3A
:108D1000C9B2FBD270472DE9F0478046002708987A
:108D20001D4691468A463C46460821E0281B401EC7
:108D3000C1B20A20FFF7E7FFB9FBF0F00A21B0FB50
:108D4000F1F201FB120027B9691E8C4201DA30B141
:108D500001273030C2B206FB0480C0B203E006FB3C
:108D60000480C0B220225146FFF79FFF641CE4B28A
:108D7000AC42DBD3BDE8F0872DE9F04117460E4643
:108D8000044600250CE031462046FFF78EFF0834EC
:108D9000E4B2782C02D90024B61CF6B26D1CEDB2F8
:108DA0007A5D002AEFD1ACE72DE9F04117460E4677
:108DB000044600250CE03146204600F0BCFE083495
:108DC000E4B2782C02D90024B61CF6B26D1CEDB2C8
:108DD0007A5D002AEFD194E72DE9F04115460E4661
:108DE0000746FFF713FF6F48002400EB85150121AC
:108DF000285DFFF7D3FE641CE4B2102CF7D3761C79
:108E0000F1B23846FFF702FF00242819012190F83B
:108E10002000FFF7C3FE641CE4B2102CF5D370E70A
:108E20002DE9F04115460E460746FFF7EFFE5E4876
:108E3000002400EB85150121285DFFF7AFFE641CBF
:108E4000E4B2102CF7D3761CF1B23846FFF7DEFE01
:108E500000242819012190F82000FFF79FFE641CD0
:108E6000E4B2102CF5D34CE72DE9F04115460E463F
:108E70000746FFF7CBFE4C48002400EB8515012187
:108E8000285DC043C0B2FFF789FE641CE4B2102C19
:108E9000F5D3761CF1B23846FFF7B8FE0024281946
:108EA000012190F82000C043C0B2FFF777FE641C98
:108EB000E4B2102CF3D324E72DE9F0471F46904687
:108EC0000E4682460025DDF8209011E031465046DE
:108ED000FFF79CFE544607E019F8050001216D1CC0
:108EE000FFF75CFE641CE4B24445F5D3761CF6B291
:108EF000BE42EBD33EE738B50121082009F029F83E
:108F00004FF47874ADF8004010208DF80300032072
:108F1000224D8DF802006946284608F032FE2146AF
:108F2000284608F098FE8021284608F094FE00F0BC
:108F300033FE8021284608F090FE00F02DFE8021AF
:108F4000284608F088FE0021AE20FFF727FE00210A
:108F50000220FFF723FE00211020FFF71FFE002153
:108F60004020FFF71BFE00218120FFF717FE0021A4
:108F7000CF20FFF713FE0021A120FFF70FFE0021F5
:108F8000C820FFF70BFE0021A620FFF707FE0021F7
:108F9000A820FFF703FE00213F2007E0000C01405E
:108FA000A273040892790408D27B0408FFF7F6FD47
:108FB00000218120FFF7F2FD0021FF20FFF7EEFDE9
:108FC0000021D320FFF7EAFD00210846FFF7E6FD68
:108FD0000021D520FFF7E2FD00218020FFF7DEFD14
:108FE0000021D920FFF7DAFD0021F120FFF7D6FD9F
:108FF0000021DA20FFF7D2FD00211220FFF7CEFD7D
:109000000021DB20FFF7CAFD00214020FFF7C6FD4D
:1090100000212020FFF7C2FD00210220FFF7BEFD46
:1090200000218D20FFF7BAFD00211420FFF7B6FDC7
:109030000021A420FFF7B2FD0021A620FFF7AEFD1E
:109040000021AF20FFF7AAFD0021AF20FFF7A6FD0A
:10905000FFF70DFE00210846FFF7D8FD38BD38B5F3
:10906000FC480468002101220846FFF7B5FE0222F1
:1090700000211220FFF7B0FE032200212420FFF779
:10908000ABFE042200213620FFF7A6FE05220021B8
:109090004820FFF7A1FEF04A00215F20FFF76CFE99
:1090A000EE4800900723502202213020FFF704FFF2
:1090B000EBA206210520FFF75FFE1020009022465C
:1090C0000A2306211E20FFF726FE38BD70B50D22AB
:1090D00002210020FFF7A4FE0E2202211220FFF73A
:1090E0009FFE0F2202212420FFF79AFE1022022168
:1090F0003620FFF795FE112202214820FFF790FE4F
:10910000D54C641F207828B1012805D000250228FD
:109110000BD00FE0D3A200E0D3A202215A20FFF728
:109120002BFE2078401C207070BDD0A202215A2056
:10913000FFF722FE257070BD70B5062202210020C7
:10914000FFF76EFE012202211220FFF769FE0522C1
:1091500002212420FFF764FEC548BF4D002400789B
:109160006D1F012806D0687808B3012821D0022895
:1091700023D01AE0BFA202213820FFF7FDFD687856
:1091800020B1012804D002280BD00EE0B5A200E0E7
:10919000B5A202215220FFF7EFFD6878401C6870ED
:1091A00070BD0221B1A252200AE06C7070BDB2A263
:1091B00000E0B4A202213620EDE7B5A2022136205C
:1091C000FFF7DAFDF1E770B5022211460020FFF744
:1091D00027FE012202211220FFF722FE0522022192
:1091E0002420FFF71DFEA2489B4D002400786D1F30
:1091F000012806D0A87808B3012821D0022823D05E
:109200001AE09CA202213820FFF7B6FDA87820B111
:10921000012804D002280BD00EE092A200E092A216
:1092200002215220FFF7A8FDA878401CA87070BD4D
:1092300002218EA252200AE0AC7070BD8EA200E026
:1092400090A202213620EDE791A202213620FFF7FD
:1092500093FDF1E7F8B540B190480078012806D0B9
:1092600002280BD0032810D019E0062207E00021C5
:1092700021220846FFF7D4FD02220CE00222002141
:109280000846FFF7CDFD012205E000212122084616
:10929000FFF7C6FD062200211220FFF7C1FD74482A
:1092A0006D4C00250078641F01281BD0E5707CA25E
:1092B00000212620FFF760FD7B4E7C4F1024328872
:1092C000B2F5004F23D37AA200215820FFF754FDB6
:1092D00000943088022320F4004200216020FFF730
:1092E0001AFD20E0E07870B101280ED071A20021B3
:1092F0002620FFF741FDE078401CC0B2E070032853
:10930000DAD1E570D8E76EA2F1E770A2EFE70223A9
:10931000002160200094FFF7FEFC30881E2802D355
:109320000120387000E03D70142200217020FFF70A
:1093300077FD6948007802281BD004281BD067A25B
:1093400002210020FFF718FD6948009402230278EB
:1093500019466220FFF7DFFC66A204210020FFF718
:109360000BFD69484FF47A760288B24205D3042394
:109370000CE066A2E4E76AA2E2E7642A01D30323D1
:1093800004E00A2A01D3022300E00123042129205A
:109390005B1C0094FFF7BFFC66A206210020FFF7CC
:1093A000EBFC69484288B24201D3042308E0642AF6
:1093B00001D3032304E00A2A01D3022300E001239E
:1093C000062129205B1C0094FFF7A5FCF8BDF8B529
:1093D00000215EA20846FFF7CFFC5B4C4FF47A7782
:1093E000A288BA4201D3042308E0642A01D30323EC
:1093F00004E00A2A01D3022300E001231026002101
:1094000029205B1C0096FFF786FC55A20221002054
:10941000FFF7B2FCE288BA4201D3042308E0642AD1
:1094200001D3032304E00A2A01D3022300E001232D
:10943000022129205B1C0096FFF76DFC4DA2042140
:109440000020FFF799FC2289BA4201D30423A2E04D
:1094500098E00000E8F7FF1FAB010020527B0408F2
:1094600049443A002E2020002E2E20002E2E2E00C1
:1094700091010020555342002E2020202020202042
:10948000000000002E2E20202020202000000000C0
:109490002E2E2E202020202000000000750100200C
:1094A00020202020202000007E0100207C010020C0
:1094B0002D0000005553422E2E2E202020000000AB
:1094C0005553422E20202020200000005553422ECC
:1094D0002E20202020000000930100204155544FF1
:1094E0003D33732052544B3D2020202000000000CB
:1094F0009D010020503A20202020202020202020E4
:109500002020202000000000820100205349474E07
:10951000414C202052544B3D2020202000000000D0
:109520004155544F3D32732052544B3D2020202052
:1095300000000000504943313A2020202020202004
:109540002020202000000000D81A0020504943327B
:109550003A20202020202020202020202000000051
:10956000504943333A202020202020202020202052
:1095700000000000504943343A20202020202020C1
:1095800020200000642A01D3032304E00A2A01D327
:10959000022300E00123042129205B1C0096FFF731
:1095A000BAFBFCA206210020FFF7E6FB6289BA4263
:1095B00001D3042308E0642A01D3032304E00A2A28
:1095C00001D3022300E00123062129205B1C009621
:1095D000FFF7A1FBF8BD70B5F348007801282BD048
:1095E000F2A200210846FFF7C7FB06220221002055
:1095F000FFF716FC012202211220FFF711FC0522C1
:1096000002212420FFF70CFCE9A204210020FFF72F
:10961000B3FBEA4D0124285D01284FEA0410A0F1B4
:109620001000C0B20BD020220621FFF73EFB641CC5
:10963000E4B2052CEFD970BDAFF2C812D1E704F146
:109640003001CAB2F0E770B5D748007801282BD0B6
:10965000D6A200210846FFF78FFB02221146002008
:10966000FFF7DEFB012202211220FFF7D9FB0522C2
:1096700002212420FFF7D4FBD1A204210020FFF710
:109680007BFBCE4D0124285D00284FEA0410A0F199
:109690001000C0B20BD020220621FFF706FB641C8D
:1096A000E4B2052CEFD970BDAFF23822D1E704F156
:1096B0003001CAB2F0E770B5BB480078012830D05D
:1096C000BAA200210846FFF757FB002202211046EC
:1096D000FFF7A6FB012202211220FFF7A1FB1222B5
:1096E00002212420FFF79CFB132202213620FFF7E2
:1096F00097FBB5A204210020FFF73EFBB44D0124E7
:10970000285D00284FEA0410A0F11000C0B20BD071
:1097100020220621FFF7C9FA641CE4B2052CEFD918
:1097200070BDAFF2B022CCE704F13001CAB2F0E76D
:1097300010B5A84C4FF000014FF007022078002828
:1097400008461BD0FFF790FB082200211220FFF7EC
:109750008BFB092200212420FFF786FB0A2200212F
:109760003620FFF781FB152200215C20FFF758FB14
:10977000162200216E20FFF753FB1AE0FFF750FB83
:10978000082200211220FFF74BFB09220021242090
:10979000FFF746FB0A2200213620FFF741FB152286
:1097A00000215C20FFF760FB162200216E20FFF7EE
:1097B0005BFB2078022816D087A202210020FFF749
:1097C000DBFA2078042814D086A204210020FFF7B9
:1097D000D3FA2078062812D00621BDE8104084A2D2
:1097E0000020FFF7C9BA85A202210020FFF7DCFAAA
:1097F000E7E785A204210020FFF7D6FAE9E7062172
:10980000BDE8104083A20020FFF7CEBA10B50128B2
:1098100020D0072200211220FFF702FB082200219E
:109820002420FFF7FDFA032200213620FFF7F8FA83
:10983000042200214820FFF7F3FA79480078022833
:1098400019D0042819D06AA20221BDE810400020D6
:10985000FFF7AABA0B2200211220FFF7E1FA0C222F
:1098600000212420FFF7DCFA072200213620FFF731
:10987000D7FA0822DDE761A2E6E75AA2E4E72DE97C
:10988000F0410646152200211220FFF7C9FA1622E0
:1098900000212420FFF7C4FA092200213620FFF717
:1098A000BFFA0A2200214820FFF7BAFA032E1BD87C
:1098B0000124DFF808811C2718F80400012804F1AE
:1098C0003000C2B204EB440007EB8005E8B240D0A0
:1098D0000421FFF7EAF9E8B220220221FFF7E5F9B7
:1098E000641CE4B2052CE7D900244E4D012E37D07C
:1098F000022E4BD0032E4AD0042E49D11A22022127
:109900000020FFF78DFA1B2202211220FFF788FAB0
:109910001C2202212420FFF783FA1D220221362077
:10992000FFF77EFA1E2202214820FFF779FA1F2254
:1099300002215A20FFF774FA202202216C20FFF73F
:109940006FFA2879002824D001286DD002286CD025
:109950007FE00221FFF7A9F92022E8B20421BDE748
:10996000022211460020FFF77FFA01220221122075
:10997000FFF77AFA062204210020FFF751FA0122AC
:1099800004211220FFF74CFA0222ADE063E096E0DA
:1099900058E0C1E0504943353A20202020202020C3
:1099A0002020202000000000910100202020200025
:1099B00057524F4E473A20200000000085010020FA
:1099C00057524F4E472020004C4F53453A2020001D
:1099D0009701002094010020534947414E4C20201C
:1099E000200000004155544F203253202020000019
:1099F0004155544F20335320202000005349474EF7
:109A0000414C2020200000004155544F203253206B
:109A1000200000004155544F203353202000000007
:109A200093010020A601002079E07DE0012870D09C
:109A300002280ED108E006213620FFF79DF928798B
:109A4000401C2871BDE8F081AFF2BC5206213620DF
:109A50006EE02C71F6E7022211460020FFF7E0F9D4
:109A6000012202211220FFF7DBF906220421002047
:109A7000FFF7D6F9012204211220FFF7D1F91822AD
:109A800006210020FFF7CCF9192206211020FFF74C
:109A9000C7F943A206212020FFF76EF917220621FD
:109AA0003820FFF7BDF9192206214820FFF7B8F941
:109AB000BDE8F04106213BA25820FFF75DB9022224
:109AC00011460020FFF7ACF9012202211220FFF716
:109AD000A7F9062204210020FFF7C6F9012204217C
:109AE0001220FFF7C1F9062206210020FFF798F99E
:109AF000012206211220FFF793F9052206212420D6
:109B0000FFF78EF92879002890D1AFF2946292E79E
:109B1000FFE7AFF290628EE7AFF2A46201E0AFF22E
:109B20009C620421002088E7AFF29C62042100209F
:109B3000FFF722F98DE72DE9F041203A00240F4686
:109B40008046D5B27F2803D900208F1C8046FFB203
:109B50003946FFF75BF8154E04EB05100121305C28
:109B6000C043C0B2FFF71AF8641CE4B2082CF3D368
:109B70007F1CF9B24046FFF749F8002404EB0510BA
:109B800030440121007AC043C0B2FFF707F8641CDB
:109B9000E4B2082CF2D355E70548401EFDD27047C9
:109BA0003D4F4B003D4E455854000000A273040841
:109BB00040420F0038B50121182008F0CAF94FF4CF
:109BC0004040ADF8000003258DF8025010248DF8B8
:109BD00003406946074807F0D4FF4020ADF8000075
:109BE0008DF802508DF803406946034807F0C9FF1D
:109BF00038BD0000000C01400010014030B50121CB
:109C0000CC0289B0204608F0A4F90121042008F014
:109C1000A0F9ADF81C4018208DF81F0003208DF826
:109C20001E0007A9254807F0ACFFF920ADF8140085
:109C30004720ADF810000024214DADF81640ADF8D6
:109C4000124004A9284608F041FB7021ADF800102D
:109C50000120ADF802007C20ADF80600ADF8084008
:109C60006946284608F016FC0821284608F0D4FE6C
:109C70000121284608F088FE0021284608F0D8FD7A
:109C80000021284608F0CAFD09B030BD10B50C4CC3
:109C90000121204608F0CCFD2046BDE810400121FE
:109CA00008F0BCBD10B5064C0021204608F0C0FDF0
:109CB0002046BDE81040002108F0B0BD000801407A
:109CC000002C01402DE9F04F002503260427DFF882
:109CD00018B485B00C464FF001094FF018084FF04A
:109CE0000C0A01285CD002287DD0032855D1FF49F9
:109CF000FA01A1F1180000F089FAFD49FA01A1F575
:109D0000037000F083FA0121082008F022F90121F4
:109D1000880408F027F98DF803808DF80260380276
:109D2000DFF8D083ADF800006946404607F029FF10
:109D30008DF803707802ADF800006946404607F0E0
:109D400020FF27208DF800008DF801608DF802506B
:109D50008DF80390684607F012FD0094E64CADF8CC
:109D60000450ADF80850ADF80650ADF80C50ADF801
:109D70000AA06946204608F0B9FF0121204609F0F3
:109D800028F8012240F22551204609F02CF804A8B9
:109D9000049504F02BFFCBF80C0005B0BDE8F08F64
:109DA000D6494FF40072A1F1180000F02FFAD449FF
:109DB0004FF40072A1F5037000F028FA012104208D
:109DC00008F0C7F80121880308F0C3F88DF8038074
:109DD0008DF802604FF40070DFF82883ADF80000C2
:109DE0006946404600E038E007F0CBFE8DF803708E
:109DF0004FF48060ADF800006946404607F0C1FEB0
:109E000025208DF800008DF801608DF802508DF846
:109E10000390684607F0B3FC0094BB4CADF80450C7
:109E2000ADF80850ADF80650ADF80C50ADF80AA0EA
:109E30006946204608F05AFF0121204608F0C9FF74
:109E4000012240F22551204608F0CDFF04A80495D8
:109E500004F0CCFECBF804009FE7AC494FF400724D
:109E6000A1F1180000F0D2F9A9494FF40072A1F550
:109E7000037000F0CBF90121042008F06AF80121F9
:109E8000480408F06FF88DF80380DFF878828DF8C9
:109E90000260ADF800706946404607F072FE8DF82A
:109EA00003700820ADF800006946404607F069FEDF
:109EB00026208DF800008DF801608DF802508DF895
:109EC0000390684607F05BFC0094924CADF8045098
:109ED000ADF80850ADF80650ADF80C50ADF80AA03A
:109EE0006946204608F002FF0121204608F071FF74
:109EF000012240F22551204608F075FF04A8049580
:109F000004F074FECBF8080047E770B50E46764CB7
:109F100015464FF0FF31012805D002280FD0032845
:109F20001CD0084670BD606804F063FE73482A4682
:109F30003146183800F0A2F9054660680AE0A068CA
:109F400004F057FE71482A463146183800F096F959
:109F50000546A06804F07FFE284670BDE06804F066
:109F600048FE62482A463146183800F087F905460F
:109F7000E068EFE72DE9F0410F465B4C164640F2F2
:109F800027754FF0FF31012806D0022815D003288D
:109F900027D00846BDE8F081606804F02AFE5748E3
:109FA000324639460C3800F044F90646012229466B
:109FB000554808F018FF60680FE0A06804F019FE2B
:109FC0005248324639460C3800F033F90646012231
:109FD0002946504808F007FFA06804F03CFE3046D0
:109FE000D8E7E06804F005FE4048324639460C38B0
:109FF00000F01FF90646012229463F4808F0F3FE0B
:10A00000E068EAE713B501A90122FFF7B3FF1CBD21
:10A0100070B505460C4608460BF0E8FC401C82B2C1
:10A0200021462846BDE87040A4E76EE710B54FF41E
:10A03000E1210120FFF746FE2B490120087010BDE9
:10A040000FB4294800B50078C1B000280ED043AB4A
:10A05000FF216846429A0CF047F968460BF0C6FCAF
:10A06000401C82B269460120FFF784FF41B05DF8D1
:10A0700014FB38B5244C40F22551204608F06AFF05
:10A0800050B1204608F0FFFE8DF800001B48012269
:10A090006946183800F0CDF840F227752946204669
:10A0A00008F058FF88B11548012269460C3800F0C5
:10A0B000E5F828B19DF80010204608F0E0FE04E025
:10A0C00000222946204608F08EFE0821204608F08E
:10A0D00037FF012806D10821204608F038FF204626
:10A0E00008F0D1FE38BD0000B00100202C23002074
:10A0F0002C250020000C014000480040FC1A0020E4
:10A10000FC1C00200008014000380140141F002002
:10A11000142100200044004038B5384C40F225514D
:10A12000204608F017FF48B1204608F0ACFE8DF835
:10A13000000001226946324800F07BF840F22775A2
:10A140002946204608F006FF88B12D4801226946BD
:10A150000C3000F093F828B19DF80010204608F06C
:10A160008EFE04E000222946204608F03CFE08212D
:10A17000204608F0E5FE0128B4D10821204608F069
:10A18000E6FE204608F07FFEACE738B51D4C40F2F5
:10A190002551204608F0DEFE48B1204608F073FE47
:10A1A0008DF8000001226946174800F042F840F29D
:10A1B00027752946204608F0CDFE88B112480122B5
:10A1C00069460C3000F05AF828B19DF8001020467E
:10A1D00008F055FE04E000222946204608F003FE60
:10A1E0000821204608F0ACFE012806D108212046AF
:10A1F00008F0ADFE204608F046FE73E7004400403C
:10A20000FC1E002000480040142300200023C380CF
:10A2100003810160511E0A4209D0002122FA01F394
:10A22000491C89B2012BF9D10122491E8A40828042
:10A2300070472DE9F04104460F4680882189E58862
:10A24000431A2B449DB2954200D91546421E114037
:10A25000401A86B2AE4200D92E46206832460844E3
:10A2600039460BF093FBAA1BB91920680BF08EFB43
:10A270002089284420812846BDE8F0812DE9F0415D
:10A280000F4604460189C088091A8DB2954200D94B
:10A290001546A1884A1E1040091A8EB2AE4200D956
:10A2A0002E4621683246014438460BF06FFBAA1B4C
:10A2B000B81921680BF06AFBE0882844E080284642
:10A2C000DAE781880289C088891A084480B2704719
:10A2D00010B5002247F2305404E02146491EFDD259
:10A2E000521C92B28242F8D310BD0122D9A10020A3
:10A2F00009F0F6BE2DE9F047002482462546514676
:10A30000D5480AF031FA30B150460AF0BEFB0120C0
:10A31000FFF7DEFFF3E7D14ECF4FD1493079283731
:10A320004FF0000930B18846CB49CB4828310AF0BC
:10A3300058FAB8B186F80490F3685246C9A1C848E3
:10A340005B1C0BF0BDFF1322C549C94809F0EDFEA7
:10A35000707100284FD1C64801690AF063F9BF48FF
:10A3600028301DE0787B0028E4D0387B202804D0FA
:10A3700012E04855641C6D1C00E041463819407BD2
:10A380002E28F6D108F80590B5480BF04DFBB060CB
:10A39000F168884200DBF06000242546C4E7641CB5
:10A3A000015D0029FBD1307801280ED1AB48F03097
:10A3B0000BF01CFBA94B0246103303F1E001AC4843
:10A3C0000AF006F8707102203070A44B2246103358
:10A3D00003F11801A64809F0FBFF707118B10220C3
:10A3E000FFF776FFF1E7F088401CF080BDE8F0470A
:10A3F0009F480AF009B9BDE8F08710B5012295A180
:10A400009C4809F06DFE954C0D28607108D000281D
:10A4100019D06078401C6070BDE81040012057E7FB
:10A42000002211468BA00AF0B7FC60710028F0D121
:10A43000012288A109F054FE6071012285A18D4896
:10A4400009F04EFE607110BD2DE9F041834E844A43
:10A450000020B17814320546012909D002F5C873ED
:10A46000195C79B11154401CC0B2B928F8D30CE082
:10A470007B4BDC33195C29B11154401CC0B2B928A4
:10A48000F8D302E01554401CC0B2754C401EC0B257
:10A490001434F070B4285DD807F04FF8FFF7ADFF23
:10A4A00007F067F8F0884FF47A72B0FBF2F36B496B
:10A4B000303328310B70B0FBF2F302FB1307642337
:10A4C000B7FBF3F730374F70B0FBF2F702FB17071B
:10A4D000B7FBF3FC03FB1C7C0A27BCFBF7FC0CF16D
:10A4E000300C81F802C0B0FBF2FC02FB1C00B0FB98
:10A4F000F3F203FB1200B0FBF7F207FB120030305F
:10A50000C8702C200871F37805205A1D04E014F857
:10A51000016B0E54401CC0B29042F8D3C8180D22F3
:10A5200042718771C57107F008F84C481430FFF785
:10A53000E1FE0220FFF7CCFEFFF7D7FE0120FFF778
:10A54000C7FEFFF7D2FE0120FFF7C2FEBDE8F041D3
:10A5500007F00FB8BDE8F08130B585B00D46044670
:10A56000142168460BF02BFA06F0E7FFFFF745FFD2
:10A5700006F0FFFF06F0E1FF214637480AF0F4F845
:10A5800030B120460AF081FA0120FFF7A1FEF3E77F
:10A590002B46224638A168460BF092FE13226946EC
:10A5A000334809F0C2FD2D4C607198B90021304844
:10A5B0000AF038F8294B0522103331492C4809F0AC
:10A5C00007FF607118B10220FFF782FEF2E728480A
:10A5D0000AF01AF820480AF0FBF8FFF786FE01207F
:10A5E000FFF776FEFFF781FE0120FFF771FE06F010
:10A5F000C0FF05B030BD10B5044606F09EFFFFF762
:10A60000FCFE06F0B6FF214613480AF0ADF8A0B1F3
:10A61000174809F0F9FF10480AF0DAF806F08DFF44
:10A62000FFF763FE0120FFF753FEFFF75EFE0120F8
:10A63000FFF74EFE06F09DFF07E0012211490C488E
:10A6400009F073FD0549487108B1002010BD0120D3
:10A6500010BD0000303A0000F8490020C001002081
:10A660002C27002025732F25642E74787400000099
:10A67000D03900209829002025732F257300000071
:10A68000AB01002028030020FE48FF490068B0FB12
:10A69000F1F0FE49C0B200EB40024870C2EBC010BE
:10A6A0004FF6FF7202EAC0004880704738B50020BC
:10A6B00007F0C7FC002007F0C8FC07F099FC002158
:10A6C0004FF4806007F03CFC4FF4F850ADF8000008
:10A6D00004248DF803406946ED4807F052FAADF8BE
:10A6E00000406946EB4807F04CFAFFF7CDFF38BD54
:10A6F00070B504468CB00E46E74807F050F9E74DB8
:10A700000021284607F025F9E548CDE9000400209E
:10A71000B108CDE902018021CDE90401890006914B
:10A720008900CDE907108900CDE90910694628465E
:10A7300007F0E5F80121284607F00BF90CB070BDD1
:10A7400070B504468CB00D46D34807F028F9D34EB7
:10A750000021304607F0FDF8D148CDE90004102073
:10A760000290A808039000208021CDE9040189000F
:10A7700006918900CDE907108900CDE909106946E5
:10A78000304607F0BCF80121304607F0E2F8D5E783
:10A790002DE9FC5F0024C34F00944FF480680194BE
:10A7A0004025C7F81080C7E902540E464FF0080B49
:10A7B0001021C7E900B1A146384607F060FC10201F
:10A7C00001F05DF8002851D1B048AA464D460089F5
:10A7D000000438603720C7E9010AC7E90398384602
:10A7E00007F04DFC372001F04AF800283ED1411E09
:10A7F00007F11400C0E9001B302181600221C0E98B
:10A8000003150121416107F05DFC3320C7F808A062
:10A81000C7E90050C7E90358384607F030FC332039
:10A8200001F02DF8050021D1DFF874824FF4001AF1
:10A830006F46A8F1800840F22A69D8F8340010EA7F
:10A84000090F0BD1504607F08AFC0028F5D007F01D
:10A8500059FC47F82400641C012CEED9082007F0AD
:10A860007EFC28B1082007F082FC0420BDE8FC9F94
:10A87000022007F074FC20B1022007F078FC0220CF
:10A88000F4E7202007F06BFC20B1202007F06FFCDC
:10A890000620EBE74FF40074204607F060FC20B17F
:10A8A000204607F064FC0720E0E740F2FF5007F085
:10A8B0005EFC009800BA7060019800BA30602846CB
:10A8C000D4E72DE9FC4700248146009420460194FA
:10A8D00007F0F1FB800102D50E20BDE8FC876B4D2F
:10A8E0006946288980B2FFF753FF0028F5D1372049
:10A8F0006C4E01994FF0060A4FF040084FF4806704
:10A90000B9F1010F1ED0C90334D52989C6F80880D2
:10A910000904C6E90010C6E90347304607F0AFFB5B
:10A92000372000F0ACFF0028D7D1C6F80880C6E970
:10A93000004AC6E903475B4807F0A1FB062000F088
:10A940009EFFCAE7490315D52989C6F8088009047E
:10A95000C6E90010C6E90347524807F090FB3720CC
:10A9600000F08DFF0028B8D10220C6F80880C6E9A3
:10A97000000ADEE72520B0E72DE9F0410146434813
:10A9800000244068032815D018B1012801D00228FE
:10A9900028D1B1F5805F0DD0424D4FF400680026FC
:10A9A0000127183D41450ED10120FFF78AFF040021
:10A9B00003D017E02720BDE8F0812F752E606E6070
:10A9C000C5E9026809E00020FFF77BFF040009D118
:10A9D0002F752E606E60AE60EE6032482E611838C2
:10A9E00007F013FB2046E6E72E4910B50860072064
:10A9F0004860402088600020C8604FF48060086193
:10AA0000084607F03CFBBDE81040072000F037BFC8
:10AA10002DE9F0431D49DFF88C904F6880F856709F
:10AA20000989A9F1A009A0F85410D9F800100A0E5C
:10AA300094090470C2F38304447002F0030282702C
:10AA40000A0CC2700A0A02714171D9F80430190E59
:10AA50000901C180C288C3F3074142EA1112C280D2
:10AA600001F00F010172C3F30721CA094272C1F359
:10AA700080128272C1F34012C272C1F300120273DB
:10AA8000002511E0D407002000127A003C030020CA
:10AA9000001001400014014000F000104404024086
:10AAA00080800140E84A002045734A464FF0010883
:10AAB0009268140EC2F30746C2F3072C27B1012F88
:10AAC00002D0022F39D04EE08907090D0161D9B2B9
:10AAD000036943EA81010161016941EA941101615D
